{
  "_format": "hh-sol-artifact-1",
  "contractName": "Byoa",
  "sourceName": "contracts/byoa.sol",
  "abi": [
    {
      "inputs": [],
      "stateMutability": "nonpayable",
      "type": "constructor"
    },
    {
      "anonymous": false,
      "inputs": [
        {
          "indexed": true,
          "internalType": "address",
          "name": "owner",
          "type": "address"
        },
        {
          "indexed": true,
          "internalType": "address",
          "name": "approved",
          "type": "address"
        },
        {
          "indexed": true,
          "internalType": "uint256",
          "name": "tokenId",
          "type": "uint256"
        }
      ],
      "name": "Approval",
      "type": "event"
    },
    {
      "anonymous": false,
      "inputs": [
        {
          "indexed": true,
          "internalType": "address",
          "name": "owner",
          "type": "address"
        },
        {
          "indexed": true,
          "internalType": "address",
          "name": "operator",
          "type": "address"
        },
        {
          "indexed": false,
          "internalType": "bool",
          "name": "approved",
          "type": "bool"
        }
      ],
      "name": "ApprovalForAll",
      "type": "event"
    },
    {
      "anonymous": false,
      "inputs": [
        {
          "indexed": true,
          "internalType": "bytes32",
          "name": "role",
          "type": "bytes32"
        },
        {
          "indexed": true,
          "internalType": "bytes32",
          "name": "previousAdminRole",
          "type": "bytes32"
        },
        {
          "indexed": true,
          "internalType": "bytes32",
          "name": "newAdminRole",
          "type": "bytes32"
        }
      ],
      "name": "RoleAdminChanged",
      "type": "event"
    },
    {
      "anonymous": false,
      "inputs": [
        {
          "indexed": true,
          "internalType": "bytes32",
          "name": "role",
          "type": "bytes32"
        },
        {
          "indexed": true,
          "internalType": "address",
          "name": "account",
          "type": "address"
        },
        {
          "indexed": true,
          "internalType": "address",
          "name": "sender",
          "type": "address"
        }
      ],
      "name": "RoleGranted",
      "type": "event"
    },
    {
      "anonymous": false,
      "inputs": [
        {
          "indexed": true,
          "internalType": "bytes32",
          "name": "role",
          "type": "bytes32"
        },
        {
          "indexed": true,
          "internalType": "address",
          "name": "account",
          "type": "address"
        },
        {
          "indexed": true,
          "internalType": "address",
          "name": "sender",
          "type": "address"
        }
      ],
      "name": "RoleRevoked",
      "type": "event"
    },
    {
      "anonymous": false,
      "inputs": [
        {
          "indexed": true,
          "internalType": "address",
          "name": "from",
          "type": "address"
        },
        {
          "indexed": true,
          "internalType": "address",
          "name": "to",
          "type": "address"
        },
        {
          "indexed": true,
          "internalType": "uint256",
          "name": "tokenId",
          "type": "uint256"
        }
      ],
      "name": "Transfer",
      "type": "event"
    },
    {
      "inputs": [],
      "name": "DEFAULT_ADMIN_ROLE",
      "outputs": [
        {
          "internalType": "bytes32",
          "name": "",
          "type": "bytes32"
        }
      ],
      "stateMutability": "view",
      "type": "function"
    },
    {
      "inputs": [],
      "name": "DEVELOPER_ROLE",
      "outputs": [
        {
          "internalType": "bytes32",
          "name": "",
          "type": "bytes32"
        }
      ],
      "stateMutability": "view",
      "type": "function"
    },
    {
      "inputs": [
        {
          "internalType": "address",
          "name": "to",
          "type": "address"
        },
        {
          "internalType": "uint256",
          "name": "tokenId",
          "type": "uint256"
        }
      ],
      "name": "approve",
      "outputs": [],
      "stateMutability": "nonpayable",
      "type": "function"
    },
    {
      "inputs": [
        {
          "internalType": "address",
          "name": "owner",
          "type": "address"
        }
      ],
      "name": "balanceOf",
      "outputs": [
        {
          "internalType": "uint256",
          "name": "",
          "type": "uint256"
        }
      ],
      "stateMutability": "view",
      "type": "function"
    },
    {
      "inputs": [
        {
          "internalType": "string",
          "name": "a",
          "type": "string"
        },
        {
          "internalType": "string",
          "name": "b",
          "type": "string"
        }
      ],
      "name": "compareStrings",
      "outputs": [
        {
          "internalType": "bool",
          "name": "",
          "type": "bool"
        }
      ],
      "stateMutability": "view",
      "type": "function"
    },
    {
      "inputs": [
        {
          "internalType": "string",
          "name": "name",
          "type": "string"
        },
        {
          "internalType": "string",
          "name": "description",
          "type": "string"
        },
        {
          "internalType": "uint256",
          "name": "price",
          "type": "uint256"
        },
        {
          "internalType": "string",
          "name": "_tokenURI",
          "type": "string"
        }
      ],
      "name": "createApp",
      "outputs": [
        {
          "internalType": "uint256",
          "name": "",
          "type": "uint256"
        }
      ],
      "stateMutability": "nonpayable",
      "type": "function"
    },
    {
      "inputs": [
        {
          "internalType": "uint256",
          "name": "appId",
          "type": "uint256"
        }
      ],
      "name": "getAppDetailsById",
      "outputs": [
        {
          "internalType": "string",
          "name": "name",
          "type": "string"
        },
        {
          "internalType": "string",
          "name": "description",
          "type": "string"
        },
        {
          "internalType": "string",
          "name": "_tokenURI",
          "type": "string"
        },
        {
          "internalType": "address",
          "name": "owner",
          "type": "address"
        },
        {
          "internalType": "uint256",
          "name": "price",
          "type": "uint256"
        }
      ],
      "stateMutability": "view",
      "type": "function"
    },
    {
      "inputs": [
        {
          "internalType": "uint256",
          "name": "_tokenId",
          "type": "uint256"
        }
      ],
      "name": "getAppIdByTokenId",
      "outputs": [
        {
          "internalType": "uint256",
          "name": "",
          "type": "uint256"
        }
      ],
      "stateMutability": "view",
      "type": "function"
    },
    {
      "inputs": [],
      "name": "getAppIds",
      "outputs": [
        {
          "internalType": "uint256[]",
          "name": "",
          "type": "uint256[]"
        }
      ],
      "stateMutability": "view",
      "type": "function"
    },
    {
      "inputs": [
        {
          "internalType": "uint256",
          "name": "tokenId",
          "type": "uint256"
        }
      ],
      "name": "getApproved",
      "outputs": [
        {
          "internalType": "address",
          "name": "",
          "type": "address"
        }
      ],
      "stateMutability": "view",
      "type": "function"
    },
    {
      "inputs": [
        {
          "internalType": "uint256",
          "name": "_tokenId",
          "type": "uint256"
        },
        {
          "internalType": "string",
          "name": "key",
          "type": "string"
        }
      ],
      "name": "getPreferenceByKey",
      "outputs": [
        {
          "internalType": "string",
          "name": "",
          "type": "string"
        }
      ],
      "stateMutability": "view",
      "type": "function"
    },
    {
      "inputs": [
        {
          "internalType": "uint256",
          "name": "_tokenId",
          "type": "uint256"
        }
      ],
      "name": "getPreferencesKeys",
      "outputs": [
        {
          "internalType": "string[]",
          "name": "",
          "type": "string[]"
        }
      ],
      "stateMutability": "view",
      "type": "function"
    },
    {
      "inputs": [
        {
          "internalType": "bytes32",
          "name": "role",
          "type": "bytes32"
        }
      ],
      "name": "getRoleAdmin",
      "outputs": [
        {
          "internalType": "bytes32",
          "name": "",
          "type": "bytes32"
        }
      ],
      "stateMutability": "view",
      "type": "function"
    },
    {
      "inputs": [
        {
          "internalType": "bytes32",
          "name": "role",
          "type": "bytes32"
        },
        {
          "internalType": "address",
          "name": "account",
          "type": "address"
        }
      ],
      "name": "grantRole",
      "outputs": [],
      "stateMutability": "nonpayable",
      "type": "function"
    },
    {
      "inputs": [
        {
          "internalType": "bytes32",
          "name": "role",
          "type": "bytes32"
        },
        {
          "internalType": "address",
          "name": "account",
          "type": "address"
        }
      ],
      "name": "hasRole",
      "outputs": [
        {
          "internalType": "bool",
          "name": "",
          "type": "bool"
        }
      ],
      "stateMutability": "view",
      "type": "function"
    },
    {
      "inputs": [
        {
          "internalType": "address",
          "name": "owner",
          "type": "address"
        },
        {
          "internalType": "address",
          "name": "operator",
          "type": "address"
        }
      ],
      "name": "isApprovedForAll",
      "outputs": [
        {
          "internalType": "bool",
          "name": "",
          "type": "bool"
        }
      ],
      "stateMutability": "view",
      "type": "function"
    },
    {
      "inputs": [
        {
          "internalType": "uint256",
          "name": "_appId",
          "type": "uint256"
        }
      ],
      "name": "mint",
      "outputs": [],
      "stateMutability": "payable",
      "type": "function"
    },
    {
      "inputs": [],
      "name": "name",
      "outputs": [
        {
          "internalType": "string",
          "name": "",
          "type": "string"
        }
      ],
      "stateMutability": "view",
      "type": "function"
    },
    {
      "inputs": [
        {
          "internalType": "uint256",
          "name": "tokenId",
          "type": "uint256"
        }
      ],
      "name": "ownerOf",
      "outputs": [
        {
          "internalType": "address",
          "name": "",
          "type": "address"
        }
      ],
      "stateMutability": "view",
      "type": "function"
    },
    {
      "inputs": [
        {
          "internalType": "bytes32",
          "name": "role",
          "type": "bytes32"
        },
        {
          "internalType": "address",
          "name": "account",
          "type": "address"
        }
      ],
      "name": "renounceRole",
      "outputs": [],
      "stateMutability": "nonpayable",
      "type": "function"
    },
    {
      "inputs": [
        {
          "internalType": "bytes32",
          "name": "role",
          "type": "bytes32"
        },
        {
          "internalType": "address",
          "name": "account",
          "type": "address"
        }
      ],
      "name": "revokeRole",
      "outputs": [],
      "stateMutability": "nonpayable",
      "type": "function"
    },
    {
      "inputs": [
        {
          "internalType": "address",
          "name": "from",
          "type": "address"
        },
        {
          "internalType": "address",
          "name": "to",
          "type": "address"
        },
        {
          "internalType": "uint256",
          "name": "tokenId",
          "type": "uint256"
        }
      ],
      "name": "safeTransferFrom",
      "outputs": [],
      "stateMutability": "nonpayable",
      "type": "function"
    },
    {
      "inputs": [
        {
          "internalType": "address",
          "name": "from",
          "type": "address"
        },
        {
          "internalType": "address",
          "name": "to",
          "type": "address"
        },
        {
          "internalType": "uint256",
          "name": "tokenId",
          "type": "uint256"
        },
        {
          "internalType": "bytes",
          "name": "_data",
          "type": "bytes"
        }
      ],
      "name": "safeTransferFrom",
      "outputs": [],
      "stateMutability": "nonpayable",
      "type": "function"
    },
    {
      "inputs": [
        {
          "internalType": "address",
          "name": "operator",
          "type": "address"
        },
        {
          "internalType": "bool",
          "name": "approved",
          "type": "bool"
        }
      ],
      "name": "setApprovalForAll",
      "outputs": [],
      "stateMutability": "nonpayable",
      "type": "function"
    },
    {
      "inputs": [
        {
          "internalType": "bool",
          "name": "_shouldOnboard",
          "type": "bool"
        }
      ],
      "name": "setDeveloperOnboarding",
      "outputs": [],
      "stateMutability": "nonpayable",
      "type": "function"
    },
    {
      "inputs": [
        {
          "internalType": "bytes4",
          "name": "interfaceId",
          "type": "bytes4"
        }
      ],
      "name": "supportsInterface",
      "outputs": [
        {
          "internalType": "bool",
          "name": "",
          "type": "bool"
        }
      ],
      "stateMutability": "view",
      "type": "function"
    },
    {
      "inputs": [],
      "name": "symbol",
      "outputs": [
        {
          "internalType": "string",
          "name": "",
          "type": "string"
        }
      ],
      "stateMutability": "view",
      "type": "function"
    },
    {
      "inputs": [
        {
          "internalType": "uint256",
          "name": "index",
          "type": "uint256"
        }
      ],
      "name": "tokenByIndex",
      "outputs": [
        {
          "internalType": "uint256",
          "name": "",
          "type": "uint256"
        }
      ],
      "stateMutability": "view",
      "type": "function"
    },
    {
      "inputs": [
        {
          "internalType": "address",
          "name": "owner",
          "type": "address"
        },
        {
          "internalType": "uint256",
          "name": "index",
          "type": "uint256"
        }
      ],
      "name": "tokenOfOwnerByIndex",
      "outputs": [
        {
          "internalType": "uint256",
          "name": "",
          "type": "uint256"
        }
      ],
      "stateMutability": "view",
      "type": "function"
    },
    {
      "inputs": [
        {
          "internalType": "uint256",
          "name": "tokenId",
          "type": "uint256"
        }
      ],
      "name": "tokenURI",
      "outputs": [
        {
          "internalType": "string",
          "name": "",
          "type": "string"
        }
      ],
      "stateMutability": "view",
      "type": "function"
    },
    {
      "inputs": [],
      "name": "totalSupply",
      "outputs": [
        {
          "internalType": "uint256",
          "name": "",
          "type": "uint256"
        }
      ],
      "stateMutability": "view",
      "type": "function"
    },
    {
      "inputs": [
        {
          "internalType": "address",
          "name": "from",
          "type": "address"
        },
        {
          "internalType": "address",
          "name": "to",
          "type": "address"
        },
        {
          "internalType": "uint256",
          "name": "tokenId",
          "type": "uint256"
        }
      ],
      "name": "transferFrom",
      "outputs": [],
      "stateMutability": "nonpayable",
      "type": "function"
    },
    {
      "inputs": [
        {
          "internalType": "uint256",
          "name": "appId",
          "type": "uint256"
        },
        {
          "internalType": "string",
          "name": "name",
          "type": "string"
        },
        {
          "internalType": "string",
          "name": "description",
          "type": "string"
        },
        {
          "internalType": "uint256",
          "name": "price",
          "type": "uint256"
        },
        {
          "internalType": "string",
          "name": "_tokenURI",
          "type": "string"
        }
      ],
      "name": "updateApp",
      "outputs": [
        {
          "internalType": "uint256",
          "name": "",
          "type": "uint256"
        }
      ],
      "stateMutability": "nonpayable",
      "type": "function"
    },
    {
      "inputs": [
        {
          "internalType": "uint256",
          "name": "_tokenID",
          "type": "uint256"
        },
        {
          "internalType": "string",
          "name": "key",
          "type": "string"
        },
        {
          "internalType": "string",
          "name": "value",
          "type": "string"
        }
      ],
      "name": "updatePreferences",
      "outputs": [],
      "stateMutability": "nonpayable",
      "type": "function"
    },
    {
      "inputs": [
        {
          "internalType": "address",
          "name": "_owner",
          "type": "address"
        }
      ],
      "name": "walletOfOwner",
      "outputs": [
        {
          "internalType": "uint256[]",
          "name": "",
          "type": "uint256[]"
        }
      ],
      "stateMutability": "view",
      "type": "function"
    },
    {
      "inputs": [],
      "name": "withdrawAll",
      "outputs": [],
      "stateMutability": "payable",
      "type": "function"
    }
  ],
  "bytecode": "0x60806040526001600d60006101000a81548160ff021916908315150217905550668e1bc9bf040000600e553480156200003757600080fd5b506040518060400160405280600781526020017f42796f61205631000000000000000000000000000000000000000000000000008152506040518060400160405280600781526020017f42594f415f5631000000000000000000000000000000000000000000000000008152508160009080519060200190620000bc9291906200026e565b508060019080519060200190620000d59291906200026e565b505050620000ed6000801b33620000f360201b60201c565b62000383565b6200010582826200010960201b60201c565b5050565b6200011b8282620001fb60201b60201c565b620001f7576001600a600084815260200190815260200160002060000160008373ffffffffffffffffffffffffffffffffffffffff1673ffffffffffffffffffffffffffffffffffffffff16815260200190815260200160002060006101000a81548160ff0219169083151502179055506200019c6200026660201b60201c565b73ffffffffffffffffffffffffffffffffffffffff168173ffffffffffffffffffffffffffffffffffffffff16837f2f8788117e7eff1d82e926ec794901d17c78024a50270940304540a733656f0d60405160405180910390a45b5050565b6000600a600084815260200190815260200160002060000160008373ffffffffffffffffffffffffffffffffffffffff1673ffffffffffffffffffffffffffffffffffffffff16815260200190815260200160002060009054906101000a900460ff16905092915050565b600033905090565b8280546200027c906200031e565b90600052602060002090601f016020900481019282620002a05760008555620002ec565b82601f10620002bb57805160ff1916838001178555620002ec565b82800160010185558215620002ec579182015b82811115620002eb578251825591602001919060010190620002ce565b5b509050620002fb9190620002ff565b5090565b5b808211156200031a57600081600090555060010162000300565b5090565b600060028204905060018216806200033757607f821691505b602082108114156200034e576200034d62000354565b5b50919050565b7f4e487b7100000000000000000000000000000000000000000000000000000000600052602260045260246000fd5b615ece80620003936000396000f3fe60806040526004361061020f5760003560e01c8063623450cc11610118578063a217fddf116100a0578063c87b56dd1161006f578063c87b56dd1461081b578063d14243b214610858578063d547741f14610881578063e985e9c5146108aa578063f26b2bc0146108e75761020f565b8063a217fddf14610761578063a22cb4651461078c578063b88d4fde146107b5578063bed34bba146107de5761020f565b80639103a0e0116100e75780639103a0e0146106755780639118f31a146106a057806391d14854146106dd57806395d89b411461071a578063a0712d68146107455761020f565b8063623450cc146105b45780636352211e146105f157806370a082311461062e578063853828b61461066b5761020f565b80632f745c591161019b578063438b63001161016a578063438b63001461047f578063458f9cfb146104bc578063471c1ea9146104fd5780634b42a0f81461053a5780634f6ccce7146105775761020f565b80632f745c59146103c557806333f717fe1461040257806336568abe1461042d57806342842e0e146104565761020f565b806318160ddd116101e257806318160ddd146102e25780631c3be41e1461030d57806323b872dd14610336578063248a9ca31461035f5780632f2ff15d1461039c5761020f565b806301ffc9a71461021457806306fdde0314610251578063081812fc1461027c578063095ea7b3146102b9575b600080fd5b34801561022057600080fd5b5061023b600480360381019061023691906141a6565b610924565b6040516102489190614c76565b60405180910390f35b34801561025d57600080fd5b50610266610936565b6040516102739190614cac565b60405180910390f35b34801561028857600080fd5b506102a3600480360381019061029e9190614333565b6109c8565b6040516102b09190614bcb565b60405180910390f35b3480156102c557600080fd5b506102e060048036038101906102db91906140cc565b610a4d565b005b3480156102ee57600080fd5b506102f7610b65565b60405161030491906150b6565b60405180910390f35b34801561031957600080fd5b50610334600480360381019061032f91906143bc565b610b72565b005b34801561034257600080fd5b5061035d60048036038101906103589190613fb6565b610dff565b005b34801561036b57600080fd5b5061038660048036038101906103819190614139565b610e5f565b6040516103939190614c91565b60405180910390f35b3480156103a857600080fd5b506103c360048036038101906103be9190614166565b610e7f565b005b3480156103d157600080fd5b506103ec60048036038101906103e791906140cc565b610ea8565b6040516103f991906150b6565b60405180910390f35b34801561040e57600080fd5b50610417610f4d565b6040516104249190614c54565b60405180910390f35b34801561043957600080fd5b50610454600480360381019061044f9190614166565b611003565b005b34801561046257600080fd5b5061047d60048036038101906104789190613fb6565b611086565b005b34801561048b57600080fd5b506104a660048036038101906104a19190613f49565b6110a6565b6040516104b39190614c54565b60405180910390f35b3480156104c857600080fd5b506104e360048036038101906104de9190614333565b6111b0565b6040516104f4959493929190614cce565b60405180910390f35b34801561050957600080fd5b50610524600480360381019061051f9190614447565b611481565b60405161053191906150b6565b60405180910390f35b34801561054657600080fd5b50610561600480360381019061055c9190614278565b611912565b60405161056e91906150b6565b60405180910390f35b34801561058357600080fd5b5061059e60048036038101906105999190614333565b611aca565b6040516105ab91906150b6565b60405180910390f35b3480156105c057600080fd5b506105db60048036038101906105d69190614333565b611b3b565b6040516105e89190614c32565b60405180910390f35b3480156105fd57600080fd5b5061061860048036038101906106139190614333565b611c6f565b6040516106259190614bcb565b60405180910390f35b34801561063a57600080fd5b5061065560048036038101906106509190613f49565b611d21565b60405161066291906150b6565b60405180910390f35b610673611dd9565b005b34801561068157600080fd5b5061068a611e65565b6040516106979190614c91565b60405180910390f35b3480156106ac57600080fd5b506106c760048036038101906106c29190614333565b611e89565b6040516106d491906150b6565b60405180910390f35b3480156106e957600080fd5b5061070460048036038101906106ff9190614166565b611ea6565b6040516107119190614c76565b60405180910390f35b34801561072657600080fd5b5061072f611f11565b60405161073c9190614cac565b60405180910390f35b61075f600480360381019061075a9190614333565b611fa3565b005b34801561076d57600080fd5b506107766120fb565b6040516107839190614c91565b60405180910390f35b34801561079857600080fd5b506107b360048036038101906107ae919061408c565b612102565b005b3480156107c157600080fd5b506107dc60048036038101906107d79190614009565b612283565b005b3480156107ea57600080fd5b5061080560048036038101906108009190614200565b6122e5565b6040516108129190614c76565b60405180910390f35b34801561082757600080fd5b50610842600480360381019061083d9190614333565b61233e565b60405161084f9190614cac565b60405180910390f35b34801561086457600080fd5b5061087f600480360381019061087a919061410c565b612350565b005b34801561088d57600080fd5b506108a860048036038101906108a39190614166565b6123b9565b005b3480156108b657600080fd5b506108d160048036038101906108cc9190613f76565b6123e2565b6040516108de9190614c76565b60405180910390f35b3480156108f357600080fd5b5061090e60048036038101906109099190614360565b612476565b60405161091b9190614cac565b60405180910390f35b600061092f82612580565b9050919050565b6060600080546109459061541d565b80601f01602080910402602001604051908101604052809291908181526020018280546109719061541d565b80156109be5780601f10610993576101008083540402835291602001916109be565b820191906000526020600020905b8154815290600101906020018083116109a157829003601f168201915b5050505050905090565b60006109d3826125fa565b610a12576040517f08c379a0000000000000000000000000000000000000000000000000000000008152600401610a0990614fb6565b60405180910390fd5b6004600083815260200190815260200160002060009054906101000a900473ffffffffffffffffffffffffffffffffffffffff169050919050565b6000610a5882611c6f565b90508073ffffffffffffffffffffffffffffffffffffffff168373ffffffffffffffffffffffffffffffffffffffff161415610ac9576040517f08c379a0000000000000000000000000000000000000000000000000000000008152600401610ac090615016565b60405180910390fd5b8073ffffffffffffffffffffffffffffffffffffffff16610ae8612666565b73ffffffffffffffffffffffffffffffffffffffff161480610b175750610b1681610b11612666565b6123e2565b5b610b56576040517f08c379a0000000000000000000000000000000000000000000000000000000008152600401610b4d90614e96565b60405180910390fd5b610b60838361266e565b505050565b6000600880549050905090565b610b7b836125fa565b610bba576040517f08c379a0000000000000000000000000000000000000000000000000000000008152600401610bb190614f56565b60405180910390fd5b3373ffffffffffffffffffffffffffffffffffffffff16610bda84611c6f565b73ffffffffffffffffffffffffffffffffffffffff1614610c30576040517f08c379a0000000000000000000000000000000000000000000000000000000008152600401610c2790614e16565b60405180910390fd5b806011600085815260200190815260200160002083604051610c529190614b56565b90815260200160405180910390209080519060200190610c73929190613d48565b50600060126000858152602001908152602001600020805480602002602001604051908101604052809291908181526020016000905b82821015610d55578382906000526020600020018054610cc89061541d565b80601f0160208091040260200160405190810160405280929190818152602001828054610cf49061541d565b8015610d415780601f10610d1657610100808354040283529160200191610d41565b820191906000526020600020905b815481529060010190602001808311610d2457829003601f168201915b505050505081526020019060010190610ca9565b50505050905060005b8151811015610daa57610d8b828281518110610d7d57610d7c6155b6565b5b6020026020010151856122e5565b15610d97575050610dfa565b8080610da290615480565b915050610d5e565b506012600085815260200190815260200160002083908060018154018082558091505060019003906000526020600020016000909190919091509080519060200190610df7929190613d48565b50505b505050565b610e10610e0a612666565b82612727565b610e4f576040517f08c379a0000000000000000000000000000000000000000000000000000000008152600401610e4690615036565b60405180910390fd5b610e5a838383612805565b505050565b6000600a6000838152602001908152602001600020600101549050919050565b610e8882610e5f565b610e9981610e94612666565b612a61565b610ea38383612afe565b505050565b6000610eb383611d21565b8210610ef4576040517f08c379a0000000000000000000000000000000000000000000000000000000008152600401610eeb90614d76565b60405180910390fd5b600660008473ffffffffffffffffffffffffffffffffffffffff1673ffffffffffffffffffffffffffffffffffffffff168152602001908152602001600020600083815260200190815260200160002054905092915050565b60606000610f5b600c612bdf565b67ffffffffffffffff811115610f7457610f736155e5565b5b604051908082528060200260200182016040528015610fa25781602001602082028036833780820191505090505b5090506000600190505b610fb6600c612bdf565b8111610ffb578082600183610fcb91906152ff565b81518110610fdc57610fdb6155b6565b5b6020026020010181815250508080610ff390615480565b915050610fac565b508091505090565b61100b612666565b73ffffffffffffffffffffffffffffffffffffffff168173ffffffffffffffffffffffffffffffffffffffff1614611078576040517f08c379a000000000000000000000000000000000000000000000000000000000815260040161106f90615096565b60405180910390fd5b6110828282612bed565b5050565b6110a183838360405180602001604052806000815250612283565b505050565b606060006110b383611d21565b9050600081141561111057600067ffffffffffffffff8111156110d9576110d86155e5565b5b6040519080825280602002602001820160405280156111075781602001602082028036833780820191505090505b509150506111ab565b60008167ffffffffffffffff81111561112c5761112b6155e5565b5b60405190808252806020026020018201604052801561115a5781602001602082028036833780820191505090505b50905060005b828110156111a4576111728582610ea8565b828281518110611185576111846155b6565b5b602002602001018181525050808061119c90615480565b915050611160565b5080925050505b919050565b60608060606000806000600f6000888152602001908152602001600020600001541415611212576040517f08c379a000000000000000000000000000000000000000000000000000000000815260040161120990614d96565b60405180910390fd5b6000600f60008881526020019081526020016000206040518060c00160405290816000820154815260200160018201805461124c9061541d565b80601f01602080910402602001604051908101604052809291908181526020018280546112789061541d565b80156112c55780601f1061129a576101008083540402835291602001916112c5565b820191906000526020600020905b8154815290600101906020018083116112a857829003601f168201915b505050505081526020016002820180546112de9061541d565b80601f016020809104026020016040519081016040528092919081815260200182805461130a9061541d565b80156113575780601f1061132c57610100808354040283529160200191611357565b820191906000526020600020905b81548152906001019060200180831161133a57829003601f168201915b505050505081526020016003820154815260200160048201805461137a9061541d565b80601f01602080910402602001604051908101604052809291908181526020018280546113a69061541d565b80156113f35780601f106113c8576101008083540402835291602001916113f3565b820191906000526020600020905b8154815290600101906020018083116113d657829003601f168201915b505050505081526020016005820160009054906101000a900473ffffffffffffffffffffffffffffffffffffffff1673ffffffffffffffffffffffffffffffffffffffff1673ffffffffffffffffffffffffffffffffffffffff168152505090508060200151816040015182608001518360a001518460600151955095509550955095505091939590929450565b60006114ad7f4504b9dfd7400a1522f49a8b4a100552da9236849581fd59b7363eb48c6a474c33611ea6565b6114ec576040517f08c379a00000000000000000000000000000000000000000000000000000000081526004016114e390614db6565b60405180910390fd5b6000600f6000888152602001908152602001600020600001541415611546576040517f08c379a000000000000000000000000000000000000000000000000000000000815260040161153d90614d96565b60405180910390fd5b6000600f60008881526020019081526020016000206040518060c0016040529081600082015481526020016001820180546115809061541d565b80601f01602080910402602001604051908101604052809291908181526020018280546115ac9061541d565b80156115f95780601f106115ce576101008083540402835291602001916115f9565b820191906000526020600020905b8154815290600101906020018083116115dc57829003601f168201915b505050505081526020016002820180546116129061541d565b80601f016020809104026020016040519081016040528092919081815260200182805461163e9061541d565b801561168b5780601f106116605761010080835404028352916020019161168b565b820191906000526020600020905b81548152906001019060200180831161166e57829003601f168201915b50505050508152602001600382015481526020016004820180546116ae9061541d565b80601f01602080910402602001604051908101604052809291908181526020018280546116da9061541d565b80156117275780601f106116fc57610100808354040283529160200191611727565b820191906000526020600020905b81548152906001019060200180831161170a57829003601f168201915b505050505081526020016005820160009054906101000a900473ffffffffffffffffffffffffffffffffffffffff1673ffffffffffffffffffffffffffffffffffffffff1673ffffffffffffffffffffffffffffffffffffffff168152505090503373ffffffffffffffffffffffffffffffffffffffff168160a0015173ffffffffffffffffffffffffffffffffffffffff16146117fa576040517f08c379a00000000000000000000000000000000000000000000000000000000081526004016117f190614f76565b60405180910390fd5b6040518060c001604052808881526020018781526020018681526020018581526020018481526020013373ffffffffffffffffffffffffffffffffffffffff16815250600f6000898152602001908152602001600020600082015181600001556020820151816001019080519060200190611876929190613d48565b506040820151816002019080519060200190611893929190613d48565b506060820151816003015560808201518160040190805190602001906118ba929190613d48565b5060a08201518160050160006101000a81548173ffffffffffffffffffffffffffffffffffffffff021916908373ffffffffffffffffffffffffffffffffffffffff1602179055509050508691505095945050505050565b600061193e7f4504b9dfd7400a1522f49a8b4a100552da9236849581fd59b7363eb48c6a474c33611ea6565b8061195c575060001515600d60009054906101000a900460ff161515145b61199b576040517f08c379a000000000000000000000000000000000000000000000000000000000815260040161199290614db6565b60405180910390fd5b6119a5600c612ccf565b60006119b1600c612bdf565b90506040518060c001604052808281526020018781526020018681526020018581526020018481526020013373ffffffffffffffffffffffffffffffffffffffff16815250600f6000838152602001908152602001600020600082015181600001556020820151816001019080519060200190611a2f929190613d48565b506040820151816002019080519060200190611a4c929190613d48565b50606082015181600301556080820151816004019080519060200190611a73929190613d48565b5060a08201518160050160006101000a81548173ffffffffffffffffffffffffffffffffffffffff021916908373ffffffffffffffffffffffffffffffffffffffff16021790555090505080915050949350505050565b6000611ad4610b65565b8210611b15576040517f08c379a0000000000000000000000000000000000000000000000000000000008152600401611b0c90615056565b60405180910390fd5b60088281548110611b2957611b286155b6565b5b90600052602060002001549050919050565b6060611b46826125fa565b611b85576040517f08c379a0000000000000000000000000000000000000000000000000000000008152600401611b7c90614d56565b60405180910390fd5b60126000838152602001908152602001600020805480602002602001604051908101604052809291908181526020016000905b82821015611c64578382906000526020600020018054611bd79061541d565b80601f0160208091040260200160405190810160405280929190818152602001828054611c039061541d565b8015611c505780601f10611c2557610100808354040283529160200191611c50565b820191906000526020600020905b815481529060010190602001808311611c3357829003601f168201915b505050505081526020019060010190611bb8565b505050509050919050565b6000806002600084815260200190815260200160002060009054906101000a900473ffffffffffffffffffffffffffffffffffffffff169050600073ffffffffffffffffffffffffffffffffffffffff168173ffffffffffffffffffffffffffffffffffffffff161415611d18576040517f08c379a0000000000000000000000000000000000000000000000000000000008152600401611d0f90614ed6565b60405180910390fd5b80915050919050565b60008073ffffffffffffffffffffffffffffffffffffffff168273ffffffffffffffffffffffffffffffffffffffff161415611d92576040517f08c379a0000000000000000000000000000000000000000000000000000000008152600401611d8990614eb6565b60405180910390fd5b600360008373ffffffffffffffffffffffffffffffffffffffff1673ffffffffffffffffffffffffffffffffffffffff168152602001908152602001600020549050919050565b611de66000801b33611ea6565b611e25576040517f08c379a0000000000000000000000000000000000000000000000000000000008152600401611e1c90614f16565b60405180910390fd5b3373ffffffffffffffffffffffffffffffffffffffff166108fc479081150290604051600060405180830381858888f19350505050611e6357600080fd5b565b7f4504b9dfd7400a1522f49a8b4a100552da9236849581fd59b7363eb48c6a474c81565b600060106000838152602001908152602001600020549050919050565b6000600a600084815260200190815260200160002060000160008373ffffffffffffffffffffffffffffffffffffffff1673ffffffffffffffffffffffffffffffffffffffff16815260200190815260200160002060009054906101000a900460ff16905092915050565b606060018054611f209061541d565b80601f0160208091040260200160405190810160405280929190818152602001828054611f4c9061541d565b8015611f995780601f10611f6e57610100808354040283529160200191611f99565b820191906000526020600020905b815481529060010190602001808311611f7c57829003601f168201915b5050505050905090565b6000600f6000838152602001908152602001600020600001541415611ffd576040517f08c379a0000000000000000000000000000000000000000000000000000000008152600401611ff490614d96565b60405180910390fd5b6000612007610b65565b90506000600182612018919061521e565b90506120243382612ce5565b61202d816125fa565b61203657600080fd5b8260106000838152602001908152602001600020819055506120f681600f600086815260200190815260200160002060040180546120739061541d565b80601f016020809104026020016040519081016040528092919081815260200182805461209f9061541d565b80156120ec5780601f106120c1576101008083540402835291602001916120ec565b820191906000526020600020905b8154815290600101906020018083116120cf57829003601f168201915b5050505050612d03565b505050565b6000801b81565b61210a612666565b73ffffffffffffffffffffffffffffffffffffffff168273ffffffffffffffffffffffffffffffffffffffff161415612178576040517f08c379a000000000000000000000000000000000000000000000000000000000815260040161216f90614e56565b60405180910390fd5b8060056000612185612666565b73ffffffffffffffffffffffffffffffffffffffff1673ffffffffffffffffffffffffffffffffffffffff16815260200190815260200160002060008473ffffffffffffffffffffffffffffffffffffffff1673ffffffffffffffffffffffffffffffffffffffff16815260200190815260200160002060006101000a81548160ff0219169083151502179055508173ffffffffffffffffffffffffffffffffffffffff16612232612666565b73ffffffffffffffffffffffffffffffffffffffff167f17307eab39ab6107e8899845ad3d59bd9653f200f220920489ca2b5937696c31836040516122779190614c76565b60405180910390a35050565b61229461228e612666565b83612727565b6122d3576040517f08c379a00000000000000000000000000000000000000000000000000000000081526004016122ca90615036565b60405180910390fd5b6122df84848484612d77565b50505050565b6000816040516020016122f89190614b56565b604051602081830303815290604052805190602001208360405160200161231f9190614b56565b6040516020818303038152906040528051906020012014905092915050565b606061234982612dd3565b9050919050565b61235d6000801b33611ea6565b61239c576040517f08c379a000000000000000000000000000000000000000000000000000000000815260040161239390615076565b60405180910390fd5b80600d60006101000a81548160ff02191690831515021790555050565b6123c282610e5f565b6123d3816123ce612666565b612a61565b6123dd8383612bed565b505050565b6000600560008473ffffffffffffffffffffffffffffffffffffffff1673ffffffffffffffffffffffffffffffffffffffff16815260200190815260200160002060008373ffffffffffffffffffffffffffffffffffffffff1673ffffffffffffffffffffffffffffffffffffffff16815260200190815260200160002060009054906101000a900460ff16905092915050565b6060612481836125fa565b6124c0576040517f08c379a00000000000000000000000000000000000000000000000000000000081526004016124b790614d56565b60405180910390fd5b60116000848152602001908152602001600020826040516124e19190614b56565b908152602001604051809103902080546124fa9061541d565b80601f01602080910402602001604051908101604052809291908181526020018280546125269061541d565b80156125735780601f1061254857610100808354040283529160200191612573565b820191906000526020600020905b81548152906001019060200180831161255657829003601f168201915b5050505050905092915050565b60007f7965db0b000000000000000000000000000000000000000000000000000000007bffffffffffffffffffffffffffffffffffffffffffffffffffffffff1916827bffffffffffffffffffffffffffffffffffffffffffffffffffffffff191614806125f357506125f282612f25565b5b9050919050565b60008073ffffffffffffffffffffffffffffffffffffffff166002600084815260200190815260200160002060009054906101000a900473ffffffffffffffffffffffffffffffffffffffff1673ffffffffffffffffffffffffffffffffffffffff1614159050919050565b600033905090565b816004600083815260200190815260200160002060006101000a81548173ffffffffffffffffffffffffffffffffffffffff021916908373ffffffffffffffffffffffffffffffffffffffff160217905550808273ffffffffffffffffffffffffffffffffffffffff166126e183611c6f565b73ffffffffffffffffffffffffffffffffffffffff167f8c5be1e5ebec7d5bd14f71427d1e84f3dd0314c0f7b2291e5b200ac8c7c3b92560405160405180910390a45050565b6000612732826125fa565b612771576040517f08c379a000000000000000000000000000000000000000000000000000000000815260040161276890614e76565b60405180910390fd5b600061277c83611c6f565b90508073ffffffffffffffffffffffffffffffffffffffff168473ffffffffffffffffffffffffffffffffffffffff1614806127eb57508373ffffffffffffffffffffffffffffffffffffffff166127d3846109c8565b73ffffffffffffffffffffffffffffffffffffffff16145b806127fc57506127fb81856123e2565b5b91505092915050565b8273ffffffffffffffffffffffffffffffffffffffff1661282582611c6f565b73ffffffffffffffffffffffffffffffffffffffff161461287b576040517f08c379a000000000000000000000000000000000000000000000000000000000815260040161287290614fd6565b60405180910390fd5b600073ffffffffffffffffffffffffffffffffffffffff168273ffffffffffffffffffffffffffffffffffffffff1614156128eb576040517f08c379a00000000000000000000000000000000000000000000000000000000081526004016128e290614e36565b60405180910390fd5b6128f6838383612f9f565b61290160008261266e565b6001600360008573ffffffffffffffffffffffffffffffffffffffff1673ffffffffffffffffffffffffffffffffffffffff168152602001908152602001600020600082825461295191906152ff565b925050819055506001600360008473ffffffffffffffffffffffffffffffffffffffff1673ffffffffffffffffffffffffffffffffffffffff16815260200190815260200160002060008282546129a8919061521e565b92505081905550816002600083815260200190815260200160002060006101000a81548173ffffffffffffffffffffffffffffffffffffffff021916908373ffffffffffffffffffffffffffffffffffffffff160217905550808273ffffffffffffffffffffffffffffffffffffffff168473ffffffffffffffffffffffffffffffffffffffff167fddf252ad1be2c89b69c2b068fc378daa952ba7f163c4a11628f55a4df523b3ef60405160405180910390a4505050565b612a6b8282611ea6565b612afa57612a908173ffffffffffffffffffffffffffffffffffffffff166014612faf565b612a9e8360001c6020612faf565b604051602001612aaf929190614b91565b6040516020818303038152906040526040517f08c379a0000000000000000000000000000000000000000000000000000000008152600401612af19190614cac565b60405180910390fd5b5050565b612b088282611ea6565b612bdb576001600a600084815260200190815260200160002060000160008373ffffffffffffffffffffffffffffffffffffffff1673ffffffffffffffffffffffffffffffffffffffff16815260200190815260200160002060006101000a81548160ff021916908315150217905550612b80612666565b73ffffffffffffffffffffffffffffffffffffffff168173ffffffffffffffffffffffffffffffffffffffff16837f2f8788117e7eff1d82e926ec794901d17c78024a50270940304540a733656f0d60405160405180910390a45b5050565b600081600001549050919050565b612bf78282611ea6565b15612ccb576000600a600084815260200190815260200160002060000160008373ffffffffffffffffffffffffffffffffffffffff1673ffffffffffffffffffffffffffffffffffffffff16815260200190815260200160002060006101000a81548160ff021916908315150217905550612c70612666565b73ffffffffffffffffffffffffffffffffffffffff168173ffffffffffffffffffffffffffffffffffffffff16837ff6391f5c32d9c69d2a47ea670b442974b53935d1edc7fd64eb21e047a839171b60405160405180910390a45b5050565b6001816000016000828254019250508190555050565b612cff8282604051806020016040528060008152506131eb565b5050565b612d0c826125fa565b612d4b576040517f08c379a0000000000000000000000000000000000000000000000000000000008152600401612d4290614ef6565b60405180910390fd5b80600b60008481526020019081526020016000209080519060200190612d72929190613d48565b505050565b612d82848484612805565b612d8e84848484613246565b612dcd576040517f08c379a0000000000000000000000000000000000000000000000000000000008152600401612dc490614dd6565b60405180910390fd5b50505050565b6060612dde826125fa565b612e1d576040517f08c379a0000000000000000000000000000000000000000000000000000000008152600401612e1490614f96565b60405180910390fd5b6000600b60008481526020019081526020016000208054612e3d9061541d565b80601f0160208091040260200160405190810160405280929190818152602001828054612e699061541d565b8015612eb65780601f10612e8b57610100808354040283529160200191612eb6565b820191906000526020600020905b815481529060010190602001808311612e9957829003601f168201915b505050505090506000612ec76133dd565b9050600081511415612edd578192505050612f20565b600082511115612f12578082604051602001612efa929190614b6d565b60405160208183030381529060405292505050612f20565b612f1b846133f4565b925050505b919050565b60007f780e9d63000000000000000000000000000000000000000000000000000000007bffffffffffffffffffffffffffffffffffffffffffffffffffffffff1916827bffffffffffffffffffffffffffffffffffffffffffffffffffffffff19161480612f985750612f978261349b565b5b9050919050565b612faa83838361357d565b505050565b606060006002836002612fc291906152a5565b612fcc919061521e565b67ffffffffffffffff811115612fe557612fe46155e5565b5b6040519080825280601f01601f1916602001820160405280156130175781602001600182028036833780820191505090505b5090507f30000000000000000000000000000000000000000000000000000000000000008160008151811061304f5761304e6155b6565b5b60200101907effffffffffffffffffffffffffffffffffffffffffffffffffffffffffffff1916908160001a9053507f7800000000000000000000000000000000000000000000000000000000000000816001815181106130b3576130b26155b6565b5b60200101907effffffffffffffffffffffffffffffffffffffffffffffffffffffffffffff1916908160001a905350600060018460026130f391906152a5565b6130fd919061521e565b90505b600181111561319d577f3031323334353637383961626364656600000000000000000000000000000000600f86166010811061313f5761313e6155b6565b5b1a60f81b828281518110613156576131556155b6565b5b60200101907effffffffffffffffffffffffffffffffffffffffffffffffffffffffffffff1916908160001a905350600485901c945080613196906153f3565b9050613100565b50600084146131e1576040517f08c379a00000000000000000000000000000000000000000000000000000000081526004016131d890614d36565b60405180910390fd5b8091505092915050565b6131f58383613691565b6132026000848484613246565b613241576040517f08c379a000000000000000000000000000000000000000000000000000000000815260040161323890614dd6565b60405180910390fd5b505050565b60006132678473ffffffffffffffffffffffffffffffffffffffff1661385f565b156133d0578373ffffffffffffffffffffffffffffffffffffffff1663150b7a02613290612666565b8786866040518563ffffffff1660e01b81526004016132b29493929190614be6565b602060405180830381600087803b1580156132cc57600080fd5b505af19250505080156132fd57506040513d601f19601f820116820180604052508101906132fa91906141d3565b60015b613380573d806000811461332d576040519150601f19603f3d011682016040523d82523d6000602084013e613332565b606091505b50600081511415613378576040517f08c379a000000000000000000000000000000000000000000000000000000000815260040161336f90614dd6565b60405180910390fd5b805181602001fd5b63150b7a0260e01b7bffffffffffffffffffffffffffffffffffffffffffffffffffffffff1916817bffffffffffffffffffffffffffffffffffffffffffffffffffffffff1916149150506133d5565b600190505b949350505050565b606060405180602001604052806000815250905090565b60606133ff826125fa565b61343e576040517f08c379a000000000000000000000000000000000000000000000000000000000815260040161343590614ff6565b60405180910390fd5b60006134486133dd565b905060008151116134685760405180602001604052806000815250613493565b8061347284613872565b604051602001613483929190614b6d565b6040516020818303038152906040525b915050919050565b60007f80ac58cd000000000000000000000000000000000000000000000000000000007bffffffffffffffffffffffffffffffffffffffffffffffffffffffff1916827bffffffffffffffffffffffffffffffffffffffffffffffffffffffff1916148061356657507f5b5e139f000000000000000000000000000000000000000000000000000000007bffffffffffffffffffffffffffffffffffffffffffffffffffffffff1916827bffffffffffffffffffffffffffffffffffffffffffffffffffffffff1916145b806135765750613575826139d3565b5b9050919050565b613588838383613a3d565b600073ffffffffffffffffffffffffffffffffffffffff168373ffffffffffffffffffffffffffffffffffffffff1614156135cb576135c681613a42565b61360a565b8173ffffffffffffffffffffffffffffffffffffffff168373ffffffffffffffffffffffffffffffffffffffff1614613609576136088382613a8b565b5b5b600073ffffffffffffffffffffffffffffffffffffffff168273ffffffffffffffffffffffffffffffffffffffff16141561364d5761364881613bf8565b61368c565b8273ffffffffffffffffffffffffffffffffffffffff168273ffffffffffffffffffffffffffffffffffffffff161461368b5761368a8282613cc9565b5b5b505050565b600073ffffffffffffffffffffffffffffffffffffffff168273ffffffffffffffffffffffffffffffffffffffff161415613701576040517f08c379a00000000000000000000000000000000000000000000000000000000081526004016136f890614f36565b60405180910390fd5b61370a816125fa565b1561374a576040517f08c379a000000000000000000000000000000000000000000000000000000000815260040161374190614df6565b60405180910390fd5b61375660008383612f9f565b6001600360008473ffffffffffffffffffffffffffffffffffffffff1673ffffffffffffffffffffffffffffffffffffffff16815260200190815260200160002060008282546137a6919061521e565b92505081905550816002600083815260200190815260200160002060006101000a81548173ffffffffffffffffffffffffffffffffffffffff021916908373ffffffffffffffffffffffffffffffffffffffff160217905550808273ffffffffffffffffffffffffffffffffffffffff16600073ffffffffffffffffffffffffffffffffffffffff167fddf252ad1be2c89b69c2b068fc378daa952ba7f163c4a11628f55a4df523b3ef60405160405180910390a45050565b600080823b905060008111915050919050565b606060008214156138ba576040518060400160405280600181526020017f300000000000000000000000000000000000000000000000000000000000000081525090506139ce565b600082905060005b600082146138ec5780806138d590615480565b915050600a826138e59190615274565b91506138c2565b60008167ffffffffffffffff811115613908576139076155e5565b5b6040519080825280601f01601f19166020018201604052801561393a5781602001600182028036833780820191505090505b5090505b600085146139c75760018261395391906152ff565b9150600a8561396291906154c9565b603061396e919061521e565b60f81b818381518110613984576139836155b6565b5b60200101907effffffffffffffffffffffffffffffffffffffffffffffffffffffffffffff1916908160001a905350600a856139c09190615274565b945061393e565b8093505050505b919050565b60007f01ffc9a7000000000000000000000000000000000000000000000000000000007bffffffffffffffffffffffffffffffffffffffffffffffffffffffff1916827bffffffffffffffffffffffffffffffffffffffffffffffffffffffff1916149050919050565b505050565b6008805490506009600083815260200190815260200160002081905550600881908060018154018082558091505060019003906000526020600020016000909190919091505550565b60006001613a9884611d21565b613aa291906152ff565b9050600060076000848152602001908152602001600020549050818114613b87576000600660008673ffffffffffffffffffffffffffffffffffffffff1673ffffffffffffffffffffffffffffffffffffffff168152602001908152602001600020600084815260200190815260200160002054905080600660008773ffffffffffffffffffffffffffffffffffffffff1673ffffffffffffffffffffffffffffffffffffffff168152602001908152602001600020600084815260200190815260200160002081905550816007600083815260200190815260200160002081905550505b6007600084815260200190815260200160002060009055600660008573ffffffffffffffffffffffffffffffffffffffff1673ffffffffffffffffffffffffffffffffffffffff16815260200190815260200160002060008381526020019081526020016000206000905550505050565b60006001600880549050613c0c91906152ff565b9050600060096000848152602001908152602001600020549050600060088381548110613c3c57613c3b6155b6565b5b906000526020600020015490508060088381548110613c5e57613c5d6155b6565b5b906000526020600020018190555081600960008381526020019081526020016000208190555060096000858152602001908152602001600020600090556008805480613cad57613cac615587565b5b6001900381819060005260206000200160009055905550505050565b6000613cd483611d21565b905081600660008573ffffffffffffffffffffffffffffffffffffffff1673ffffffffffffffffffffffffffffffffffffffff168152602001908152602001600020600083815260200190815260200160002081905550806007600084815260200190815260200160002081905550505050565b828054613d549061541d565b90600052602060002090601f016020900481019282613d765760008555613dbd565b82601f10613d8f57805160ff1916838001178555613dbd565b82800160010185558215613dbd579182015b82811115613dbc578251825591602001919060010190613da1565b5b509050613dca9190613dce565b5090565b5b80821115613de7576000816000905550600101613dcf565b5090565b6000613dfe613df9846150f6565b6150d1565b905082815260208101848484011115613e1a57613e19615619565b5b613e258482856153b1565b509392505050565b6000613e40613e3b84615127565b6150d1565b905082815260208101848484011115613e5c57613e5b615619565b5b613e678482856153b1565b509392505050565b600081359050613e7e81615e25565b92915050565b600081359050613e9381615e3c565b92915050565b600081359050613ea881615e53565b92915050565b600081359050613ebd81615e6a565b92915050565b600081519050613ed281615e6a565b92915050565b600082601f830112613eed57613eec615614565b5b8135613efd848260208601613deb565b91505092915050565b600082601f830112613f1b57613f1a615614565b5b8135613f2b848260208601613e2d565b91505092915050565b600081359050613f4381615e81565b92915050565b600060208284031215613f5f57613f5e615623565b5b6000613f6d84828501613e6f565b91505092915050565b60008060408385031215613f8d57613f8c615623565b5b6000613f9b85828601613e6f565b9250506020613fac85828601613e6f565b9150509250929050565b600080600060608486031215613fcf57613fce615623565b5b6000613fdd86828701613e6f565b9350506020613fee86828701613e6f565b9250506040613fff86828701613f34565b9150509250925092565b6000806000806080858703121561402357614022615623565b5b600061403187828801613e6f565b945050602061404287828801613e6f565b935050604061405387828801613f34565b925050606085013567ffffffffffffffff8111156140745761407361561e565b5b61408087828801613ed8565b91505092959194509250565b600080604083850312156140a3576140a2615623565b5b60006140b185828601613e6f565b92505060206140c285828601613e84565b9150509250929050565b600080604083850312156140e3576140e2615623565b5b60006140f185828601613e6f565b925050602061410285828601613f34565b9150509250929050565b60006020828403121561412257614121615623565b5b600061413084828501613e84565b91505092915050565b60006020828403121561414f5761414e615623565b5b600061415d84828501613e99565b91505092915050565b6000806040838503121561417d5761417c615623565b5b600061418b85828601613e99565b925050602061419c85828601613e6f565b9150509250929050565b6000602082840312156141bc576141bb615623565b5b60006141ca84828501613eae565b91505092915050565b6000602082840312156141e9576141e8615623565b5b60006141f784828501613ec3565b91505092915050565b6000806040838503121561421757614216615623565b5b600083013567ffffffffffffffff8111156142355761423461561e565b5b61424185828601613f06565b925050602083013567ffffffffffffffff8111156142625761426161561e565b5b61426e85828601613f06565b9150509250929050565b6000806000806080858703121561429257614291615623565b5b600085013567ffffffffffffffff8111156142b0576142af61561e565b5b6142bc87828801613f06565b945050602085013567ffffffffffffffff8111156142dd576142dc61561e565b5b6142e987828801613f06565b93505060406142fa87828801613f34565b925050606085013567ffffffffffffffff81111561431b5761431a61561e565b5b61432787828801613f06565b91505092959194509250565b60006020828403121561434957614348615623565b5b600061435784828501613f34565b91505092915050565b6000806040838503121561437757614376615623565b5b600061438585828601613f34565b925050602083013567ffffffffffffffff8111156143a6576143a561561e565b5b6143b285828601613f06565b9150509250929050565b6000806000606084860312156143d5576143d4615623565b5b60006143e386828701613f34565b935050602084013567ffffffffffffffff8111156144045761440361561e565b5b61441086828701613f06565b925050604084013567ffffffffffffffff8111156144315761443061561e565b5b61443d86828701613f06565b9150509250925092565b600080600080600060a0868803121561446357614462615623565b5b600061447188828901613f34565b955050602086013567ffffffffffffffff8111156144925761449161561e565b5b61449e88828901613f06565b945050604086013567ffffffffffffffff8111156144bf576144be61561e565b5b6144cb88828901613f06565b93505060606144dc88828901613f34565b925050608086013567ffffffffffffffff8111156144fd576144fc61561e565b5b61450988828901613f06565b9150509295509295909350565b6000614522838361467b565b905092915050565b60006145368383614b38565b60208301905092915050565b61454b81615333565b82525050565b600061455c82615178565b61456681856151be565b93508360208202850161457885615158565b8060005b858110156145b457848403895281516145958582614516565b94506145a0836151a4565b925060208a0199505060018101905061457c565b50829750879550505050505092915050565b60006145d182615183565b6145db81856151cf565b93506145e683615168565b8060005b838110156146175781516145fe888261452a565b9750614609836151b1565b9250506001810190506145ea565b5085935050505092915050565b61462d81615345565b82525050565b61463c81615351565b82525050565b600061464d8261518e565b61465781856151e0565b93506146678185602086016153c0565b61467081615628565b840191505092915050565b600061468682615199565b61469081856151f1565b93506146a08185602086016153c0565b6146a981615628565b840191505092915050565b60006146bf82615199565b6146c98185615202565b93506146d98185602086016153c0565b6146e281615628565b840191505092915050565b60006146f882615199565b6147028185615213565b93506147128185602086016153c0565b80840191505092915050565b600061472b602083615202565b915061473682615639565b602082019050919050565b600061474e602683615202565b915061475982615662565b604082019050919050565b6000614771602b83615202565b915061477c826156b1565b604082019050919050565b6000614794601183615202565b915061479f82615700565b602082019050919050565b60006147b7602483615202565b91506147c282615729565b604082019050919050565b60006147da603283615202565b91506147e582615778565b604082019050919050565b60006147fd601c83615202565b9150614808826157c7565b602082019050919050565b6000614820602f83615202565b915061482b826157f0565b604082019050919050565b6000614843602483615202565b915061484e8261583f565b604082019050919050565b6000614866601983615202565b91506148718261588e565b602082019050919050565b6000614889602c83615202565b9150614894826158b7565b604082019050919050565b60006148ac603883615202565b91506148b782615906565b604082019050919050565b60006148cf602a83615202565b91506148da82615955565b604082019050919050565b60006148f2602983615202565b91506148fd826159a4565b604082019050919050565b6000614915602e83615202565b9150614920826159f3565b604082019050919050565b6000614938601c83615202565b915061494382615a42565b602082019050919050565b600061495b602083615202565b915061496682615a6b565b602082019050919050565b600061497e601383615202565b915061498982615a94565b602082019050919050565b60006149a1602183615202565b91506149ac82615abd565b604082019050919050565b60006149c4603183615202565b91506149cf82615b0c565b604082019050919050565b60006149e7602c83615202565b91506149f282615b5b565b604082019050919050565b6000614a0a602983615202565b9150614a1582615baa565b604082019050919050565b6000614a2d602f83615202565b9150614a3882615bf9565b604082019050919050565b6000614a50602183615202565b9150614a5b82615c48565b604082019050919050565b6000614a73603183615202565b9150614a7e82615c97565b604082019050919050565b6000614a96602c83615202565b9150614aa182615ce6565b604082019050919050565b6000614ab9601783615213565b9150614ac482615d35565b601782019050919050565b6000614adc602c83615202565b9150614ae782615d5e565b604082019050919050565b6000614aff601183615213565b9150614b0a82615dad565b601182019050919050565b6000614b22602f83615202565b9150614b2d82615dd6565b604082019050919050565b614b41816153a7565b82525050565b614b50816153a7565b82525050565b6000614b6282846146ed565b915081905092915050565b6000614b7982856146ed565b9150614b8582846146ed565b91508190509392505050565b6000614b9c82614aac565b9150614ba882856146ed565b9150614bb382614af2565b9150614bbf82846146ed565b91508190509392505050565b6000602082019050614be06000830184614542565b92915050565b6000608082019050614bfb6000830187614542565b614c086020830186614542565b614c156040830185614b47565b8181036060830152614c278184614642565b905095945050505050565b60006020820190508181036000830152614c4c8184614551565b905092915050565b60006020820190508181036000830152614c6e81846145c6565b905092915050565b6000602082019050614c8b6000830184614624565b92915050565b6000602082019050614ca66000830184614633565b92915050565b60006020820190508181036000830152614cc681846146b4565b905092915050565b600060a0820190508181036000830152614ce881886146b4565b90508181036020830152614cfc81876146b4565b90508181036040830152614d1081866146b4565b9050614d1f6060830185614542565b614d2c6080830184614b47565b9695505050505050565b60006020820190508181036000830152614d4f8161471e565b9050919050565b60006020820190508181036000830152614d6f81614741565b9050919050565b60006020820190508181036000830152614d8f81614764565b9050919050565b60006020820190508181036000830152614daf81614787565b9050919050565b60006020820190508181036000830152614dcf816147aa565b9050919050565b60006020820190508181036000830152614def816147cd565b9050919050565b60006020820190508181036000830152614e0f816147f0565b9050919050565b60006020820190508181036000830152614e2f81614813565b9050919050565b60006020820190508181036000830152614e4f81614836565b9050919050565b60006020820190508181036000830152614e6f81614859565b9050919050565b60006020820190508181036000830152614e8f8161487c565b9050919050565b60006020820190508181036000830152614eaf8161489f565b9050919050565b60006020820190508181036000830152614ecf816148c2565b9050919050565b60006020820190508181036000830152614eef816148e5565b9050919050565b60006020820190508181036000830152614f0f81614908565b9050919050565b60006020820190508181036000830152614f2f8161492b565b9050919050565b60006020820190508181036000830152614f4f8161494e565b9050919050565b60006020820190508181036000830152614f6f81614971565b9050919050565b60006020820190508181036000830152614f8f81614994565b9050919050565b60006020820190508181036000830152614faf816149b7565b9050919050565b60006020820190508181036000830152614fcf816149da565b9050919050565b60006020820190508181036000830152614fef816149fd565b9050919050565b6000602082019050818103600083015261500f81614a20565b9050919050565b6000602082019050818103600083015261502f81614a43565b9050919050565b6000602082019050818103600083015261504f81614a66565b9050919050565b6000602082019050818103600083015261506f81614a89565b9050919050565b6000602082019050818103600083015261508f81614acf565b9050919050565b600060208201905081810360008301526150af81614b15565b9050919050565b60006020820190506150cb6000830184614b47565b92915050565b60006150db6150ec565b90506150e7828261544f565b919050565b6000604051905090565b600067ffffffffffffffff821115615111576151106155e5565b5b61511a82615628565b9050602081019050919050565b600067ffffffffffffffff821115615142576151416155e5565b5b61514b82615628565b9050602081019050919050565b6000819050602082019050919050565b6000819050602082019050919050565b600081519050919050565b600081519050919050565b600081519050919050565b600081519050919050565b6000602082019050919050565b6000602082019050919050565b600082825260208201905092915050565b600082825260208201905092915050565b600082825260208201905092915050565b600082825260208201905092915050565b600082825260208201905092915050565b600081905092915050565b6000615229826153a7565b9150615234836153a7565b9250827fffffffffffffffffffffffffffffffffffffffffffffffffffffffffffffffff03821115615269576152686154fa565b5b828201905092915050565b600061527f826153a7565b915061528a836153a7565b92508261529a57615299615529565b5b828204905092915050565b60006152b0826153a7565b91506152bb836153a7565b9250817fffffffffffffffffffffffffffffffffffffffffffffffffffffffffffffffff04831182151516156152f4576152f36154fa565b5b828202905092915050565b600061530a826153a7565b9150615315836153a7565b925082821015615328576153276154fa565b5b828203905092915050565b600061533e82615387565b9050919050565b60008115159050919050565b6000819050919050565b60007fffffffff0000000000000000000000000000000000000000000000000000000082169050919050565b600073ffffffffffffffffffffffffffffffffffffffff82169050919050565b6000819050919050565b82818337600083830152505050565b60005b838110156153de5780820151818401526020810190506153c3565b838111156153ed576000848401525b50505050565b60006153fe826153a7565b91506000821415615412576154116154fa565b5b600182039050919050565b6000600282049050600182168061543557607f821691505b6020821081141561544957615448615558565b5b50919050565b61545882615628565b810181811067ffffffffffffffff82111715615477576154766155e5565b5b80604052505050565b600061548b826153a7565b91507fffffffffffffffffffffffffffffffffffffffffffffffffffffffffffffffff8214156154be576154bd6154fa565b5b600182019050919050565b60006154d4826153a7565b91506154df836153a7565b9250826154ef576154ee615529565b5b828206905092915050565b7f4e487b7100000000000000000000000000000000000000000000000000000000600052601160045260246000fd5b7f4e487b7100000000000000000000000000000000000000000000000000000000600052601260045260246000fd5b7f4e487b7100000000000000000000000000000000000000000000000000000000600052602260045260246000fd5b7f4e487b7100000000000000000000000000000000000000000000000000000000600052603160045260246000fd5b7f4e487b7100000000000000000000000000000000000000000000000000000000600052603260045260246000fd5b7f4e487b7100000000000000000000000000000000000000000000000000000000600052604160045260246000fd5b600080fd5b600080fd5b600080fd5b600080fd5b6000601f19601f8301169050919050565b7f537472696e67733a20686578206c656e67746820696e73756666696369656e74600082015250565b7f546f6b656e204944206d75737420657869737420746f2067657420707265666560008201527f72656e6365730000000000000000000000000000000000000000000000000000602082015250565b7f455243373231456e756d657261626c653a206f776e657220696e646578206f7560008201527f74206f6620626f756e6473000000000000000000000000000000000000000000602082015250565b7f417070204944206d757374206578697374000000000000000000000000000000600082015250565b7f4d757374206265206120646576656c6f70657220746f2063726561746520616e60008201527f2061707000000000000000000000000000000000000000000000000000000000602082015250565b7f4552433732313a207472616e7366657220746f206e6f6e20455243373231526560008201527f63656976657220696d706c656d656e7465720000000000000000000000000000602082015250565b7f4552433732313a20746f6b656e20616c7265616479206d696e74656400000000600082015250565b7f546865206f776e6572206d75737420626520746865206f6e6520617474656d7060008201527f74696e6720746865207570646174650000000000000000000000000000000000602082015250565b7f4552433732313a207472616e7366657220746f20746865207a65726f2061646460008201527f7265737300000000000000000000000000000000000000000000000000000000602082015250565b7f4552433732313a20617070726f766520746f2063616c6c657200000000000000600082015250565b7f4552433732313a206f70657261746f7220717565727920666f72206e6f6e657860008201527f697374656e7420746f6b656e0000000000000000000000000000000000000000602082015250565b7f4552433732313a20617070726f76652063616c6c6572206973206e6f74206f7760008201527f6e6572206e6f7220617070726f76656420666f7220616c6c0000000000000000602082015250565b7f4552433732313a2062616c616e636520717565727920666f7220746865207a6560008201527f726f206164647265737300000000000000000000000000000000000000000000602082015250565b7f4552433732313a206f776e657220717565727920666f72206e6f6e657869737460008201527f656e7420746f6b656e0000000000000000000000000000000000000000000000602082015250565b7f45524337323155524953746f726167653a2055524920736574206f66206e6f6e60008201527f6578697374656e7420746f6b656e000000000000000000000000000000000000602082015250565b7f4d75737420626520616e2061646d696e20746f20776974686472617700000000600082015250565b7f4552433732313a206d696e7420746f20746865207a65726f2061646472657373600082015250565b7f546f6b656e204944206d75737420657869737400000000000000000000000000600082015250565b7f596f75206d75737420626520746865206f776e6572206f66207468697320617060008201527f7000000000000000000000000000000000000000000000000000000000000000602082015250565b7f45524337323155524953746f726167653a2055524920717565727920666f722060008201527f6e6f6e6578697374656e7420746f6b656e000000000000000000000000000000602082015250565b7f4552433732313a20617070726f76656420717565727920666f72206e6f6e657860008201527f697374656e7420746f6b656e0000000000000000000000000000000000000000602082015250565b7f4552433732313a207472616e73666572206f6620746f6b656e2074686174206960008201527f73206e6f74206f776e0000000000000000000000000000000000000000000000602082015250565b7f4552433732314d657461646174613a2055524920717565727920666f72206e6f60008201527f6e6578697374656e7420746f6b656e0000000000000000000000000000000000602082015250565b7f4552433732313a20617070726f76616c20746f2063757272656e74206f776e6560008201527f7200000000000000000000000000000000000000000000000000000000000000602082015250565b7f4552433732313a207472616e736665722063616c6c6572206973206e6f74206f60008201527f776e6572206e6f7220617070726f766564000000000000000000000000000000602082015250565b7f455243373231456e756d657261626c653a20676c6f62616c20696e646578206f60008201527f7574206f6620626f756e64730000000000000000000000000000000000000000602082015250565b7f416363657373436f6e74726f6c3a206163636f756e7420000000000000000000600082015250565b7f4d75737420626520616e2061646d696e20746f2073657420646576656c6f706560008201527f72206f6e626f617264696e670000000000000000000000000000000000000000602082015250565b7f206973206d697373696e6720726f6c6520000000000000000000000000000000600082015250565b7f416363657373436f6e74726f6c3a2063616e206f6e6c792072656e6f756e636560008201527f20726f6c657320666f722073656c660000000000000000000000000000000000602082015250565b615e2e81615333565b8114615e3957600080fd5b50565b615e4581615345565b8114615e5057600080fd5b50565b615e5c81615351565b8114615e6757600080fd5b50565b615e738161535b565b8114615e7e57600080fd5b50565b615e8a816153a7565b8114615e9557600080fd5b5056fea2646970667358221220da4b51d2c304655a4194b475847f80b80609834dbe52b7d94a38efcd1eb7a64764736f6c63430008060033",
  "linkReferences": {},
  "deployedLinkReferences": {}
}