{
  "_format": "hh-sol-artifact-1",
  "contractName": "Byoa",
  "sourceName": "contracts/byoa.sol",
  "abi": [
    {
      "inputs": [],
      "stateMutability": "nonpayable",
      "type": "constructor"
    },
    {
      "anonymous": false,
      "inputs": [
        {
          "indexed": true,
          "internalType": "address",
          "name": "owner",
          "type": "address"
        },
        {
          "indexed": true,
          "internalType": "address",
          "name": "approved",
          "type": "address"
        },
        {
          "indexed": true,
          "internalType": "uint256",
          "name": "tokenId",
          "type": "uint256"
        }
      ],
      "name": "Approval",
      "type": "event"
    },
    {
      "anonymous": false,
      "inputs": [
        {
          "indexed": true,
          "internalType": "address",
          "name": "owner",
          "type": "address"
        },
        {
          "indexed": true,
          "internalType": "address",
          "name": "operator",
          "type": "address"
        },
        {
          "indexed": false,
          "internalType": "bool",
          "name": "approved",
          "type": "bool"
        }
      ],
      "name": "ApprovalForAll",
      "type": "event"
    },
    {
      "anonymous": false,
      "inputs": [
        {
          "indexed": true,
          "internalType": "bytes32",
          "name": "role",
          "type": "bytes32"
        },
        {
          "indexed": true,
          "internalType": "bytes32",
          "name": "previousAdminRole",
          "type": "bytes32"
        },
        {
          "indexed": true,
          "internalType": "bytes32",
          "name": "newAdminRole",
          "type": "bytes32"
        }
      ],
      "name": "RoleAdminChanged",
      "type": "event"
    },
    {
      "anonymous": false,
      "inputs": [
        {
          "indexed": true,
          "internalType": "bytes32",
          "name": "role",
          "type": "bytes32"
        },
        {
          "indexed": true,
          "internalType": "address",
          "name": "account",
          "type": "address"
        },
        {
          "indexed": true,
          "internalType": "address",
          "name": "sender",
          "type": "address"
        }
      ],
      "name": "RoleGranted",
      "type": "event"
    },
    {
      "anonymous": false,
      "inputs": [
        {
          "indexed": true,
          "internalType": "bytes32",
          "name": "role",
          "type": "bytes32"
        },
        {
          "indexed": true,
          "internalType": "address",
          "name": "account",
          "type": "address"
        },
        {
          "indexed": true,
          "internalType": "address",
          "name": "sender",
          "type": "address"
        }
      ],
      "name": "RoleRevoked",
      "type": "event"
    },
    {
      "anonymous": false,
      "inputs": [
        {
          "indexed": true,
          "internalType": "address",
          "name": "from",
          "type": "address"
        },
        {
          "indexed": true,
          "internalType": "address",
          "name": "to",
          "type": "address"
        },
        {
          "indexed": true,
          "internalType": "uint256",
          "name": "tokenId",
          "type": "uint256"
        }
      ],
      "name": "Transfer",
      "type": "event"
    },
    {
      "inputs": [],
      "name": "DEFAULT_ADMIN_ROLE",
      "outputs": [
        {
          "internalType": "bytes32",
          "name": "",
          "type": "bytes32"
        }
      ],
      "stateMutability": "view",
      "type": "function"
    },
    {
      "inputs": [],
      "name": "DEVELOPER_ROLE",
      "outputs": [
        {
          "internalType": "bytes32",
          "name": "",
          "type": "bytes32"
        }
      ],
      "stateMutability": "view",
      "type": "function"
    },
    {
      "inputs": [
        {
          "internalType": "address",
          "name": "to",
          "type": "address"
        },
        {
          "internalType": "uint256",
          "name": "tokenId",
          "type": "uint256"
        }
      ],
      "name": "approve",
      "outputs": [],
      "stateMutability": "nonpayable",
      "type": "function"
    },
    {
      "inputs": [
        {
          "internalType": "address",
          "name": "owner",
          "type": "address"
        }
      ],
      "name": "balanceOf",
      "outputs": [
        {
          "internalType": "uint256",
          "name": "",
          "type": "uint256"
        }
      ],
      "stateMutability": "view",
      "type": "function"
    },
    {
      "inputs": [
        {
          "internalType": "string",
          "name": "name",
          "type": "string"
        },
        {
          "internalType": "string",
          "name": "description",
          "type": "string"
        },
        {
          "internalType": "uint256",
          "name": "price",
          "type": "uint256"
        },
        {
          "internalType": "string",
          "name": "_tokenURI",
          "type": "string"
        }
      ],
      "name": "createApp",
      "outputs": [
        {
          "internalType": "uint256",
          "name": "",
          "type": "uint256"
        }
      ],
      "stateMutability": "nonpayable",
      "type": "function"
    },
    {
      "inputs": [
        {
          "internalType": "uint256",
          "name": "appId",
          "type": "uint256"
        }
      ],
      "name": "getAppDetailsById",
      "outputs": [
        {
          "internalType": "string",
          "name": "name",
          "type": "string"
        },
        {
          "internalType": "string",
          "name": "description",
          "type": "string"
        },
        {
          "internalType": "string",
          "name": "_tokenURI",
          "type": "string"
        },
        {
          "internalType": "address",
          "name": "owner",
          "type": "address"
        },
        {
          "internalType": "uint256",
          "name": "price",
          "type": "uint256"
        }
      ],
      "stateMutability": "view",
      "type": "function"
    },
    {
      "inputs": [],
      "name": "getAppIds",
      "outputs": [
        {
          "internalType": "uint256[]",
          "name": "",
          "type": "uint256[]"
        }
      ],
      "stateMutability": "view",
      "type": "function"
    },
    {
      "inputs": [
        {
          "internalType": "uint256",
          "name": "tokenId",
          "type": "uint256"
        }
      ],
      "name": "getApproved",
      "outputs": [
        {
          "internalType": "address",
          "name": "",
          "type": "address"
        }
      ],
      "stateMutability": "view",
      "type": "function"
    },
    {
      "inputs": [
        {
          "internalType": "bytes32",
          "name": "role",
          "type": "bytes32"
        }
      ],
      "name": "getRoleAdmin",
      "outputs": [
        {
          "internalType": "bytes32",
          "name": "",
          "type": "bytes32"
        }
      ],
      "stateMutability": "view",
      "type": "function"
    },
    {
      "inputs": [
        {
          "internalType": "bytes32",
          "name": "role",
          "type": "bytes32"
        },
        {
          "internalType": "address",
          "name": "account",
          "type": "address"
        }
      ],
      "name": "grantRole",
      "outputs": [],
      "stateMutability": "nonpayable",
      "type": "function"
    },
    {
      "inputs": [
        {
          "internalType": "bytes32",
          "name": "role",
          "type": "bytes32"
        },
        {
          "internalType": "address",
          "name": "account",
          "type": "address"
        }
      ],
      "name": "hasRole",
      "outputs": [
        {
          "internalType": "bool",
          "name": "",
          "type": "bool"
        }
      ],
      "stateMutability": "view",
      "type": "function"
    },
    {
      "inputs": [
        {
          "internalType": "address",
          "name": "owner",
          "type": "address"
        },
        {
          "internalType": "address",
          "name": "operator",
          "type": "address"
        }
      ],
      "name": "isApprovedForAll",
      "outputs": [
        {
          "internalType": "bool",
          "name": "",
          "type": "bool"
        }
      ],
      "stateMutability": "view",
      "type": "function"
    },
    {
      "inputs": [
        {
          "internalType": "uint256",
          "name": "_appId",
          "type": "uint256"
        }
      ],
      "name": "mint",
      "outputs": [],
      "stateMutability": "payable",
      "type": "function"
    },
    {
      "inputs": [],
      "name": "name",
      "outputs": [
        {
          "internalType": "string",
          "name": "",
          "type": "string"
        }
      ],
      "stateMutability": "view",
      "type": "function"
    },
    {
      "inputs": [
        {
          "internalType": "uint256",
          "name": "tokenId",
          "type": "uint256"
        }
      ],
      "name": "ownerOf",
      "outputs": [
        {
          "internalType": "address",
          "name": "",
          "type": "address"
        }
      ],
      "stateMutability": "view",
      "type": "function"
    },
    {
      "inputs": [
        {
          "internalType": "bytes32",
          "name": "role",
          "type": "bytes32"
        },
        {
          "internalType": "address",
          "name": "account",
          "type": "address"
        }
      ],
      "name": "renounceRole",
      "outputs": [],
      "stateMutability": "nonpayable",
      "type": "function"
    },
    {
      "inputs": [
        {
          "internalType": "bytes32",
          "name": "role",
          "type": "bytes32"
        },
        {
          "internalType": "address",
          "name": "account",
          "type": "address"
        }
      ],
      "name": "revokeRole",
      "outputs": [],
      "stateMutability": "nonpayable",
      "type": "function"
    },
    {
      "inputs": [
        {
          "internalType": "address",
          "name": "from",
          "type": "address"
        },
        {
          "internalType": "address",
          "name": "to",
          "type": "address"
        },
        {
          "internalType": "uint256",
          "name": "tokenId",
          "type": "uint256"
        }
      ],
      "name": "safeTransferFrom",
      "outputs": [],
      "stateMutability": "nonpayable",
      "type": "function"
    },
    {
      "inputs": [
        {
          "internalType": "address",
          "name": "from",
          "type": "address"
        },
        {
          "internalType": "address",
          "name": "to",
          "type": "address"
        },
        {
          "internalType": "uint256",
          "name": "tokenId",
          "type": "uint256"
        },
        {
          "internalType": "bytes",
          "name": "_data",
          "type": "bytes"
        }
      ],
      "name": "safeTransferFrom",
      "outputs": [],
      "stateMutability": "nonpayable",
      "type": "function"
    },
    {
      "inputs": [
        {
          "internalType": "address",
          "name": "operator",
          "type": "address"
        },
        {
          "internalType": "bool",
          "name": "approved",
          "type": "bool"
        }
      ],
      "name": "setApprovalForAll",
      "outputs": [],
      "stateMutability": "nonpayable",
      "type": "function"
    },
    {
      "inputs": [
        {
          "internalType": "bytes4",
          "name": "interfaceId",
          "type": "bytes4"
        }
      ],
      "name": "supportsInterface",
      "outputs": [
        {
          "internalType": "bool",
          "name": "",
          "type": "bool"
        }
      ],
      "stateMutability": "view",
      "type": "function"
    },
    {
      "inputs": [],
      "name": "symbol",
      "outputs": [
        {
          "internalType": "string",
          "name": "",
          "type": "string"
        }
      ],
      "stateMutability": "view",
      "type": "function"
    },
    {
      "inputs": [
        {
          "internalType": "uint256",
          "name": "index",
          "type": "uint256"
        }
      ],
      "name": "tokenByIndex",
      "outputs": [
        {
          "internalType": "uint256",
          "name": "",
          "type": "uint256"
        }
      ],
      "stateMutability": "view",
      "type": "function"
    },
    {
      "inputs": [
        {
          "internalType": "address",
          "name": "owner",
          "type": "address"
        },
        {
          "internalType": "uint256",
          "name": "index",
          "type": "uint256"
        }
      ],
      "name": "tokenOfOwnerByIndex",
      "outputs": [
        {
          "internalType": "uint256",
          "name": "",
          "type": "uint256"
        }
      ],
      "stateMutability": "view",
      "type": "function"
    },
    {
      "inputs": [
        {
          "internalType": "uint256",
          "name": "tokenId",
          "type": "uint256"
        }
      ],
      "name": "tokenURI",
      "outputs": [
        {
          "internalType": "string",
          "name": "",
          "type": "string"
        }
      ],
      "stateMutability": "view",
      "type": "function"
    },
    {
      "inputs": [],
      "name": "totalSupply",
      "outputs": [
        {
          "internalType": "uint256",
          "name": "",
          "type": "uint256"
        }
      ],
      "stateMutability": "view",
      "type": "function"
    },
    {
      "inputs": [
        {
          "internalType": "address",
          "name": "from",
          "type": "address"
        },
        {
          "internalType": "address",
          "name": "to",
          "type": "address"
        },
        {
          "internalType": "uint256",
          "name": "tokenId",
          "type": "uint256"
        }
      ],
      "name": "transferFrom",
      "outputs": [],
      "stateMutability": "nonpayable",
      "type": "function"
    },
    {
      "inputs": [
        {
          "internalType": "uint256",
          "name": "appId",
          "type": "uint256"
        },
        {
          "internalType": "string",
          "name": "name",
          "type": "string"
        },
        {
          "internalType": "string",
          "name": "description",
          "type": "string"
        },
        {
          "internalType": "uint256",
          "name": "price",
          "type": "uint256"
        },
        {
          "internalType": "string",
          "name": "_tokenURI",
          "type": "string"
        }
      ],
      "name": "updateApp",
      "outputs": [
        {
          "internalType": "uint256",
          "name": "",
          "type": "uint256"
        }
      ],
      "stateMutability": "nonpayable",
      "type": "function"
    },
    {
      "inputs": [
        {
          "internalType": "address",
          "name": "_owner",
          "type": "address"
        }
      ],
      "name": "walletOfOwner",
      "outputs": [
        {
          "internalType": "uint256[]",
          "name": "",
          "type": "uint256[]"
        }
      ],
      "stateMutability": "view",
      "type": "function"
    },
    {
      "inputs": [],
      "name": "withdrawAll",
      "outputs": [],
      "stateMutability": "payable",
      "type": "function"
    }
  ],
  "bytecode": "0x6080604052668e1bc9bf040000600d553480156200001c57600080fd5b506040518060400160405280600781526020017f42796f61205631000000000000000000000000000000000000000000000000008152506040518060400160405280600781526020017f42594f415f5631000000000000000000000000000000000000000000000000008152508160009080519060200190620000a192919062000253565b508060019080519060200190620000ba92919062000253565b505050620000d26000801b33620000d860201b60201c565b62000368565b620000ea8282620000ee60201b60201c565b5050565b620001008282620001e060201b60201c565b620001dc576001600a600084815260200190815260200160002060000160008373ffffffffffffffffffffffffffffffffffffffff1673ffffffffffffffffffffffffffffffffffffffff16815260200190815260200160002060006101000a81548160ff021916908315150217905550620001816200024b60201b60201c565b73ffffffffffffffffffffffffffffffffffffffff168173ffffffffffffffffffffffffffffffffffffffff16837f2f8788117e7eff1d82e926ec794901d17c78024a50270940304540a733656f0d60405160405180910390a45b5050565b6000600a600084815260200190815260200160002060000160008373ffffffffffffffffffffffffffffffffffffffff1673ffffffffffffffffffffffffffffffffffffffff16815260200190815260200160002060009054906101000a900460ff16905092915050565b600033905090565b828054620002619062000303565b90600052602060002090601f016020900481019282620002855760008555620002d1565b82601f10620002a057805160ff1916838001178555620002d1565b82800160010185558215620002d1579182015b82811115620002d0578251825591602001919060010190620002b3565b5b509050620002e09190620002e4565b5090565b5b80821115620002ff576000816000905550600101620002e5565b5090565b600060028204905060018216806200031c57607f821691505b6020821081141562000333576200033262000339565b5b50919050565b7f4e487b7100000000000000000000000000000000000000000000000000000000600052602260045260246000fd5b61527380620003786000396000f3fe6080604052600436106101cd5760003560e01c80634b42a0f8116100f757806395d89b4111610095578063b88d4fde11610064578063b88d4fde146106d0578063c87b56dd146106f9578063d547741f14610736578063e985e9c51461075f576101cd565b806395d89b4114610635578063a0712d6814610660578063a217fddf1461067c578063a22cb465146106a7576101cd565b806370a08231116100d157806370a0823114610586578063853828b6146105c35780639103a0e0146105cd57806391d14854146105f8576101cd565b80634b42a0f8146104cf5780634f6ccce71461050c5780636352211e14610549576101cd565b80632f2ff15d1161016f57806342842e0e1161013e57806342842e0e146103eb578063438b630014610414578063458f9cfb14610451578063471c1ea914610492576101cd565b80632f2ff15d146103315780632f745c591461035a57806333f717fe1461039757806336568abe146103c2576101cd565b8063095ea7b3116101ab578063095ea7b31461027757806318160ddd146102a057806323b872dd146102cb578063248a9ca3146102f4576101cd565b806301ffc9a7146101d257806306fdde031461020f578063081812fc1461023a575b600080fd5b3480156101de57600080fd5b506101f960048036038101906101f49190613a11565b61079c565b60405161020691906141fb565b60405180910390f35b34801561021b57600080fd5b506102246107ae565b6040516102319190614231565b60405180910390f35b34801561024657600080fd5b50610261600480360381019061025c9190613b26565b610840565b60405161026e9190614172565b60405180910390f35b34801561028357600080fd5b5061029e60048036038101906102999190613964565b6108c5565b005b3480156102ac57600080fd5b506102b56109dd565b6040516102c291906145bb565b60405180910390f35b3480156102d757600080fd5b506102f260048036038101906102ed919061384e565b6109ea565b005b34801561030057600080fd5b5061031b600480360381019061031691906139a4565b610a4a565b6040516103289190614216565b60405180910390f35b34801561033d57600080fd5b50610358600480360381019061035391906139d1565b610a6a565b005b34801561036657600080fd5b50610381600480360381019061037c9190613964565b610a93565b60405161038e91906145bb565b60405180910390f35b3480156103a357600080fd5b506103ac610b38565b6040516103b991906141d9565b60405180910390f35b3480156103ce57600080fd5b506103e960048036038101906103e491906139d1565b610bee565b005b3480156103f757600080fd5b50610412600480360381019061040d919061384e565b610c71565b005b34801561042057600080fd5b5061043b600480360381019061043691906137e1565b610c91565b60405161044891906141d9565b60405180910390f35b34801561045d57600080fd5b5061047860048036038101906104739190613b26565b610d9b565b604051610489959493929190614253565b60405180910390f35b34801561049e57600080fd5b506104b960048036038101906104b49190613b53565b61106c565b6040516104c691906145bb565b60405180910390f35b3480156104db57600080fd5b506104f660048036038101906104f19190613a6b565b6114fd565b60405161050391906145bb565b60405180910390f35b34801561051857600080fd5b50610533600480360381019061052e9190613b26565b611697565b60405161054091906145bb565b60405180910390f35b34801561055557600080fd5b50610570600480360381019061056b9190613b26565b611708565b60405161057d9190614172565b60405180910390f35b34801561059257600080fd5b506105ad60048036038101906105a891906137e1565b6117ba565b6040516105ba91906145bb565b60405180910390f35b6105cb611872565b005b3480156105d957600080fd5b506105e26118fe565b6040516105ef9190614216565b60405180910390f35b34801561060457600080fd5b5061061f600480360381019061061a91906139d1565b611922565b60405161062c91906141fb565b60405180910390f35b34801561064157600080fd5b5061064a61198d565b6040516106579190614231565b60405180910390f35b61067a60048036038101906106759190613b26565b611a1f565b005b34801561068857600080fd5b50610691611b5f565b60405161069e9190614216565b60405180910390f35b3480156106b357600080fd5b506106ce60048036038101906106c99190613924565b611b66565b005b3480156106dc57600080fd5b506106f760048036038101906106f291906138a1565b611ce7565b005b34801561070557600080fd5b50610720600480360381019061071b9190613b26565b611d49565b60405161072d9190614231565b60405180910390f35b34801561074257600080fd5b5061075d600480360381019061075891906139d1565b611d5b565b005b34801561076b57600080fd5b506107866004803603810190610781919061380e565b611d84565b60405161079391906141fb565b60405180910390f35b60006107a782611e18565b9050919050565b6060600080546107bd906148d8565b80601f01602080910402602001604051908101604052809291908181526020018280546107e9906148d8565b80156108365780601f1061080b57610100808354040283529160200191610836565b820191906000526020600020905b81548152906001019060200180831161081957829003601f168201915b5050505050905090565b600061084b82611e92565b61088a576040517f08c379a0000000000000000000000000000000000000000000000000000000008152600401610881906144db565b60405180910390fd5b6004600083815260200190815260200160002060009054906101000a900473ffffffffffffffffffffffffffffffffffffffff169050919050565b60006108d082611708565b90508073ffffffffffffffffffffffffffffffffffffffff168373ffffffffffffffffffffffffffffffffffffffff161415610941576040517f08c379a00000000000000000000000000000000000000000000000000000000081526004016109389061453b565b60405180910390fd5b8073ffffffffffffffffffffffffffffffffffffffff16610960611efe565b73ffffffffffffffffffffffffffffffffffffffff16148061098f575061098e81610989611efe565b611d84565b5b6109ce576040517f08c379a00000000000000000000000000000000000000000000000000000000081526004016109c5906143db565b60405180910390fd5b6109d88383611f06565b505050565b6000600880549050905090565b6109fb6109f5611efe565b82611fbf565b610a3a576040517f08c379a0000000000000000000000000000000000000000000000000000000008152600401610a319061455b565b60405180910390fd5b610a4583838361209d565b505050565b6000600a6000838152602001908152602001600020600101549050919050565b610a7382610a4a565b610a8481610a7f611efe565b6122f9565b610a8e8383612396565b505050565b6000610a9e836117ba565b8210610adf576040517f08c379a0000000000000000000000000000000000000000000000000000000008152600401610ad6906142db565b60405180910390fd5b600660008473ffffffffffffffffffffffffffffffffffffffff1673ffffffffffffffffffffffffffffffffffffffff168152602001908152602001600020600083815260200190815260200160002054905092915050565b60606000610b46600c612477565b67ffffffffffffffff811115610b5f57610b5e614aa0565b5b604051908082528060200260200182016040528015610b8d5781602001602082028036833780820191505090505b5090506000600190505b610ba1600c612477565b8111610be6578082600183610bb691906147ba565b81518110610bc757610bc6614a71565b5b6020026020010181815250508080610bde9061493b565b915050610b97565b508091505090565b610bf6611efe565b73ffffffffffffffffffffffffffffffffffffffff168173ffffffffffffffffffffffffffffffffffffffff1614610c63576040517f08c379a0000000000000000000000000000000000000000000000000000000008152600401610c5a9061459b565b60405180910390fd5b610c6d8282612485565b5050565b610c8c83838360405180602001604052806000815250611ce7565b505050565b60606000610c9e836117ba565b90506000811415610cfb57600067ffffffffffffffff811115610cc457610cc3614aa0565b5b604051908082528060200260200182016040528015610cf25781602001602082028036833780820191505090505b50915050610d96565b60008167ffffffffffffffff811115610d1757610d16614aa0565b5b604051908082528060200260200182016040528015610d455781602001602082028036833780820191505090505b50905060005b82811015610d8f57610d5d8582610a93565b828281518110610d7057610d6f614a71565b5b6020026020010181815250508080610d879061493b565b915050610d4b565b5080925050505b919050565b60608060606000806000600e6000888152602001908152602001600020600001541415610dfd576040517f08c379a0000000000000000000000000000000000000000000000000000000008152600401610df4906142fb565b60405180910390fd5b6000600e60008881526020019081526020016000206040518060c001604052908160008201548152602001600182018054610e37906148d8565b80601f0160208091040260200160405190810160405280929190818152602001828054610e63906148d8565b8015610eb05780601f10610e8557610100808354040283529160200191610eb0565b820191906000526020600020905b815481529060010190602001808311610e9357829003601f168201915b50505050508152602001600282018054610ec9906148d8565b80601f0160208091040260200160405190810160405280929190818152602001828054610ef5906148d8565b8015610f425780601f10610f1757610100808354040283529160200191610f42565b820191906000526020600020905b815481529060010190602001808311610f2557829003601f168201915b5050505050815260200160038201548152602001600482018054610f65906148d8565b80601f0160208091040260200160405190810160405280929190818152602001828054610f91906148d8565b8015610fde5780601f10610fb357610100808354040283529160200191610fde565b820191906000526020600020905b815481529060010190602001808311610fc157829003601f168201915b505050505081526020016005820160009054906101000a900473ffffffffffffffffffffffffffffffffffffffff1673ffffffffffffffffffffffffffffffffffffffff1673ffffffffffffffffffffffffffffffffffffffff168152505090508060200151816040015182608001518360a001518460600151955095509550955095505091939590929450565b60006110987f4504b9dfd7400a1522f49a8b4a100552da9236849581fd59b7363eb48c6a474c33611922565b6110d7576040517f08c379a00000000000000000000000000000000000000000000000000000000081526004016110ce9061431b565b60405180910390fd5b6000600e6000888152602001908152602001600020600001541415611131576040517f08c379a0000000000000000000000000000000000000000000000000000000008152600401611128906142fb565b60405180910390fd5b6000600e60008881526020019081526020016000206040518060c00160405290816000820154815260200160018201805461116b906148d8565b80601f0160208091040260200160405190810160405280929190818152602001828054611197906148d8565b80156111e45780601f106111b9576101008083540402835291602001916111e4565b820191906000526020600020905b8154815290600101906020018083116111c757829003601f168201915b505050505081526020016002820180546111fd906148d8565b80601f0160208091040260200160405190810160405280929190818152602001828054611229906148d8565b80156112765780601f1061124b57610100808354040283529160200191611276565b820191906000526020600020905b81548152906001019060200180831161125957829003601f168201915b5050505050815260200160038201548152602001600482018054611299906148d8565b80601f01602080910402602001604051908101604052809291908181526020018280546112c5906148d8565b80156113125780601f106112e757610100808354040283529160200191611312565b820191906000526020600020905b8154815290600101906020018083116112f557829003601f168201915b505050505081526020016005820160009054906101000a900473ffffffffffffffffffffffffffffffffffffffff1673ffffffffffffffffffffffffffffffffffffffff1673ffffffffffffffffffffffffffffffffffffffff168152505090503373ffffffffffffffffffffffffffffffffffffffff168160a0015173ffffffffffffffffffffffffffffffffffffffff16146113e5576040517f08c379a00000000000000000000000000000000000000000000000000000000081526004016113dc9061449b565b60405180910390fd5b6040518060c001604052808881526020018781526020018681526020018581526020018481526020013373ffffffffffffffffffffffffffffffffffffffff16815250600e60008981526020019081526020016000206000820151816000015560208201518160010190805190602001906114619291906135e0565b50604082015181600201908051906020019061147e9291906135e0565b506060820151816003015560808201518160040190805190602001906114a59291906135e0565b5060a08201518160050160006101000a81548173ffffffffffffffffffffffffffffffffffffffff021916908373ffffffffffffffffffffffffffffffffffffffff1602179055509050508691505095945050505050565b60006115297f4504b9dfd7400a1522f49a8b4a100552da9236849581fd59b7363eb48c6a474c33611922565b611568576040517f08c379a000000000000000000000000000000000000000000000000000000000815260040161155f9061431b565b60405180910390fd5b611572600c612567565b600061157e600c612477565b90506040518060c001604052808281526020018781526020018681526020018581526020018481526020013373ffffffffffffffffffffffffffffffffffffffff16815250600e60008381526020019081526020016000206000820151816000015560208201518160010190805190602001906115fc9291906135e0565b5060408201518160020190805190602001906116199291906135e0565b506060820151816003015560808201518160040190805190602001906116409291906135e0565b5060a08201518160050160006101000a81548173ffffffffffffffffffffffffffffffffffffffff021916908373ffffffffffffffffffffffffffffffffffffffff16021790555090505080915050949350505050565b60006116a16109dd565b82106116e2576040517f08c379a00000000000000000000000000000000000000000000000000000000081526004016116d99061457b565b60405180910390fd5b600882815481106116f6576116f5614a71565b5b90600052602060002001549050919050565b6000806002600084815260200190815260200160002060009054906101000a900473ffffffffffffffffffffffffffffffffffffffff169050600073ffffffffffffffffffffffffffffffffffffffff168173ffffffffffffffffffffffffffffffffffffffff1614156117b1576040517f08c379a00000000000000000000000000000000000000000000000000000000081526004016117a89061441b565b60405180910390fd5b80915050919050565b60008073ffffffffffffffffffffffffffffffffffffffff168273ffffffffffffffffffffffffffffffffffffffff16141561182b576040517f08c379a0000000000000000000000000000000000000000000000000000000008152600401611822906143fb565b60405180910390fd5b600360008373ffffffffffffffffffffffffffffffffffffffff1673ffffffffffffffffffffffffffffffffffffffff168152602001908152602001600020549050919050565b61187f6000801b33611922565b6118be576040517f08c379a00000000000000000000000000000000000000000000000000000000081526004016118b59061445b565b60405180910390fd5b3373ffffffffffffffffffffffffffffffffffffffff166108fc479081150290604051600060405180830381858888f193505050506118fc57600080fd5b565b7f4504b9dfd7400a1522f49a8b4a100552da9236849581fd59b7363eb48c6a474c81565b6000600a600084815260200190815260200160002060000160008373ffffffffffffffffffffffffffffffffffffffff1673ffffffffffffffffffffffffffffffffffffffff16815260200190815260200160002060009054906101000a900460ff16905092915050565b60606001805461199c906148d8565b80601f01602080910402602001604051908101604052809291908181526020018280546119c8906148d8565b8015611a155780601f106119ea57610100808354040283529160200191611a15565b820191906000526020600020905b8154815290600101906020018083116119f857829003601f168201915b5050505050905090565b6000600e6000838152602001908152602001600020600001541415611a79576040517f08c379a0000000000000000000000000000000000000000000000000000000008152600401611a70906142fb565b60405180910390fd5b6000611a836109dd565b90506000600182611a9491906146d9565b9050611aa0338261257d565b611aa981611e92565b611ab257600080fd5b611b5a81600e60008681526020019081526020016000206004018054611ad7906148d8565b80601f0160208091040260200160405190810160405280929190818152602001828054611b03906148d8565b8015611b505780601f10611b2557610100808354040283529160200191611b50565b820191906000526020600020905b815481529060010190602001808311611b3357829003601f168201915b505050505061259b565b505050565b6000801b81565b611b6e611efe565b73ffffffffffffffffffffffffffffffffffffffff168273ffffffffffffffffffffffffffffffffffffffff161415611bdc576040517f08c379a0000000000000000000000000000000000000000000000000000000008152600401611bd39061439b565b60405180910390fd5b8060056000611be9611efe565b73ffffffffffffffffffffffffffffffffffffffff1673ffffffffffffffffffffffffffffffffffffffff16815260200190815260200160002060008473ffffffffffffffffffffffffffffffffffffffff1673ffffffffffffffffffffffffffffffffffffffff16815260200190815260200160002060006101000a81548160ff0219169083151502179055508173ffffffffffffffffffffffffffffffffffffffff16611c96611efe565b73ffffffffffffffffffffffffffffffffffffffff167f17307eab39ab6107e8899845ad3d59bd9653f200f220920489ca2b5937696c3183604051611cdb91906141fb565b60405180910390a35050565b611cf8611cf2611efe565b83611fbf565b611d37576040517f08c379a0000000000000000000000000000000000000000000000000000000008152600401611d2e9061455b565b60405180910390fd5b611d438484848461260f565b50505050565b6060611d548261266b565b9050919050565b611d6482610a4a565b611d7581611d70611efe565b6122f9565b611d7f8383612485565b505050565b6000600560008473ffffffffffffffffffffffffffffffffffffffff1673ffffffffffffffffffffffffffffffffffffffff16815260200190815260200160002060008373ffffffffffffffffffffffffffffffffffffffff1673ffffffffffffffffffffffffffffffffffffffff16815260200190815260200160002060009054906101000a900460ff16905092915050565b60007f7965db0b000000000000000000000000000000000000000000000000000000007bffffffffffffffffffffffffffffffffffffffffffffffffffffffff1916827bffffffffffffffffffffffffffffffffffffffffffffffffffffffff19161480611e8b5750611e8a826127bd565b5b9050919050565b60008073ffffffffffffffffffffffffffffffffffffffff166002600084815260200190815260200160002060009054906101000a900473ffffffffffffffffffffffffffffffffffffffff1673ffffffffffffffffffffffffffffffffffffffff1614159050919050565b600033905090565b816004600083815260200190815260200160002060006101000a81548173ffffffffffffffffffffffffffffffffffffffff021916908373ffffffffffffffffffffffffffffffffffffffff160217905550808273ffffffffffffffffffffffffffffffffffffffff16611f7983611708565b73ffffffffffffffffffffffffffffffffffffffff167f8c5be1e5ebec7d5bd14f71427d1e84f3dd0314c0f7b2291e5b200ac8c7c3b92560405160405180910390a45050565b6000611fca82611e92565b612009576040517f08c379a0000000000000000000000000000000000000000000000000000000008152600401612000906143bb565b60405180910390fd5b600061201483611708565b90508073ffffffffffffffffffffffffffffffffffffffff168473ffffffffffffffffffffffffffffffffffffffff16148061208357508373ffffffffffffffffffffffffffffffffffffffff1661206b84610840565b73ffffffffffffffffffffffffffffffffffffffff16145b8061209457506120938185611d84565b5b91505092915050565b8273ffffffffffffffffffffffffffffffffffffffff166120bd82611708565b73ffffffffffffffffffffffffffffffffffffffff1614612113576040517f08c379a000000000000000000000000000000000000000000000000000000000815260040161210a906144fb565b60405180910390fd5b600073ffffffffffffffffffffffffffffffffffffffff168273ffffffffffffffffffffffffffffffffffffffff161415612183576040517f08c379a000000000000000000000000000000000000000000000000000000000815260040161217a9061437b565b60405180910390fd5b61218e838383612837565b612199600082611f06565b6001600360008573ffffffffffffffffffffffffffffffffffffffff1673ffffffffffffffffffffffffffffffffffffffff16815260200190815260200160002060008282546121e991906147ba565b925050819055506001600360008473ffffffffffffffffffffffffffffffffffffffff1673ffffffffffffffffffffffffffffffffffffffff168152602001908152602001600020600082825461224091906146d9565b92505081905550816002600083815260200190815260200160002060006101000a81548173ffffffffffffffffffffffffffffffffffffffff021916908373ffffffffffffffffffffffffffffffffffffffff160217905550808273ffffffffffffffffffffffffffffffffffffffff168473ffffffffffffffffffffffffffffffffffffffff167fddf252ad1be2c89b69c2b068fc378daa952ba7f163c4a11628f55a4df523b3ef60405160405180910390a4505050565b6123038282611922565b612392576123288173ffffffffffffffffffffffffffffffffffffffff166014612847565b6123368360001c6020612847565b604051602001612347929190614138565b6040516020818303038152906040526040517f08c379a00000000000000000000000000000000000000000000000000000000081526004016123899190614231565b60405180910390fd5b5050565b6123a08282611922565b612473576001600a600084815260200190815260200160002060000160008373ffffffffffffffffffffffffffffffffffffffff1673ffffffffffffffffffffffffffffffffffffffff16815260200190815260200160002060006101000a81548160ff021916908315150217905550612418611efe565b73ffffffffffffffffffffffffffffffffffffffff168173ffffffffffffffffffffffffffffffffffffffff16837f2f8788117e7eff1d82e926ec794901d17c78024a50270940304540a733656f0d60405160405180910390a45b5050565b600081600001549050919050565b61248f8282611922565b15612563576000600a600084815260200190815260200160002060000160008373ffffffffffffffffffffffffffffffffffffffff1673ffffffffffffffffffffffffffffffffffffffff16815260200190815260200160002060006101000a81548160ff021916908315150217905550612508611efe565b73ffffffffffffffffffffffffffffffffffffffff168173ffffffffffffffffffffffffffffffffffffffff16837ff6391f5c32d9c69d2a47ea670b442974b53935d1edc7fd64eb21e047a839171b60405160405180910390a45b5050565b6001816000016000828254019250508190555050565b612597828260405180602001604052806000815250612a83565b5050565b6125a482611e92565b6125e3576040517f08c379a00000000000000000000000000000000000000000000000000000000081526004016125da9061443b565b60405180910390fd5b80600b6000848152602001908152602001600020908051906020019061260a9291906135e0565b505050565b61261a84848461209d565b61262684848484612ade565b612665576040517f08c379a000000000000000000000000000000000000000000000000000000000815260040161265c9061433b565b60405180910390fd5b50505050565b606061267682611e92565b6126b5576040517f08c379a00000000000000000000000000000000000000000000000000000000081526004016126ac906144bb565b60405180910390fd5b6000600b600084815260200190815260200160002080546126d5906148d8565b80601f0160208091040260200160405190810160405280929190818152602001828054612701906148d8565b801561274e5780601f106127235761010080835404028352916020019161274e565b820191906000526020600020905b81548152906001019060200180831161273157829003601f168201915b50505050509050600061275f612c75565b90506000815114156127755781925050506127b8565b6000825111156127aa578082604051602001612792929190614114565b604051602081830303815290604052925050506127b8565b6127b384612c8c565b925050505b919050565b60007f780e9d63000000000000000000000000000000000000000000000000000000007bffffffffffffffffffffffffffffffffffffffffffffffffffffffff1916827bffffffffffffffffffffffffffffffffffffffffffffffffffffffff19161480612830575061282f82612d33565b5b9050919050565b612842838383612e15565b505050565b60606000600283600261285a9190614760565b61286491906146d9565b67ffffffffffffffff81111561287d5761287c614aa0565b5b6040519080825280601f01601f1916602001820160405280156128af5781602001600182028036833780820191505090505b5090507f3000000000000000000000000000000000000000000000000000000000000000816000815181106128e7576128e6614a71565b5b60200101907effffffffffffffffffffffffffffffffffffffffffffffffffffffffffffff1916908160001a9053507f78000000000000000000000000000000000000000000000000000000000000008160018151811061294b5761294a614a71565b5b60200101907effffffffffffffffffffffffffffffffffffffffffffffffffffffffffffff1916908160001a9053506000600184600261298b9190614760565b61299591906146d9565b90505b6001811115612a35577f3031323334353637383961626364656600000000000000000000000000000000600f8616601081106129d7576129d6614a71565b5b1a60f81b8282815181106129ee576129ed614a71565b5b60200101907effffffffffffffffffffffffffffffffffffffffffffffffffffffffffffff1916908160001a905350600485901c945080612a2e906148ae565b9050612998565b5060008414612a79576040517f08c379a0000000000000000000000000000000000000000000000000000000008152600401612a70906142bb565b60405180910390fd5b8091505092915050565b612a8d8383612f29565b612a9a6000848484612ade565b612ad9576040517f08c379a0000000000000000000000000000000000000000000000000000000008152600401612ad09061433b565b60405180910390fd5b505050565b6000612aff8473ffffffffffffffffffffffffffffffffffffffff166130f7565b15612c68578373ffffffffffffffffffffffffffffffffffffffff1663150b7a02612b28611efe565b8786866040518563ffffffff1660e01b8152600401612b4a949392919061418d565b602060405180830381600087803b158015612b6457600080fd5b505af1925050508015612b9557506040513d601f19601f82011682018060405250810190612b929190613a3e565b60015b612c18573d8060008114612bc5576040519150601f19603f3d011682016040523d82523d6000602084013e612bca565b606091505b50600081511415612c10576040517f08c379a0000000000000000000000000000000000000000000000000000000008152600401612c079061433b565b60405180910390fd5b805181602001fd5b63150b7a0260e01b7bffffffffffffffffffffffffffffffffffffffffffffffffffffffff1916817bffffffffffffffffffffffffffffffffffffffffffffffffffffffff191614915050612c6d565b600190505b949350505050565b606060405180602001604052806000815250905090565b6060612c9782611e92565b612cd6576040517f08c379a0000000000000000000000000000000000000000000000000000000008152600401612ccd9061451b565b60405180910390fd5b6000612ce0612c75565b90506000815111612d005760405180602001604052806000815250612d2b565b80612d0a8461310a565b604051602001612d1b929190614114565b6040516020818303038152906040525b915050919050565b60007f80ac58cd000000000000000000000000000000000000000000000000000000007bffffffffffffffffffffffffffffffffffffffffffffffffffffffff1916827bffffffffffffffffffffffffffffffffffffffffffffffffffffffff19161480612dfe57507f5b5e139f000000000000000000000000000000000000000000000000000000007bffffffffffffffffffffffffffffffffffffffffffffffffffffffff1916827bffffffffffffffffffffffffffffffffffffffffffffffffffffffff1916145b80612e0e5750612e0d8261326b565b5b9050919050565b612e208383836132d5565b600073ffffffffffffffffffffffffffffffffffffffff168373ffffffffffffffffffffffffffffffffffffffff161415612e6357612e5e816132da565b612ea2565b8173ffffffffffffffffffffffffffffffffffffffff168373ffffffffffffffffffffffffffffffffffffffff1614612ea157612ea08382613323565b5b5b600073ffffffffffffffffffffffffffffffffffffffff168273ffffffffffffffffffffffffffffffffffffffff161415612ee557612ee081613490565b612f24565b8273ffffffffffffffffffffffffffffffffffffffff168273ffffffffffffffffffffffffffffffffffffffff1614612f2357612f228282613561565b5b5b505050565b600073ffffffffffffffffffffffffffffffffffffffff168273ffffffffffffffffffffffffffffffffffffffff161415612f99576040517f08c379a0000000000000000000000000000000000000000000000000000000008152600401612f909061447b565b60405180910390fd5b612fa281611e92565b15612fe2576040517f08c379a0000000000000000000000000000000000000000000000000000000008152600401612fd99061435b565b60405180910390fd5b612fee60008383612837565b6001600360008473ffffffffffffffffffffffffffffffffffffffff1673ffffffffffffffffffffffffffffffffffffffff168152602001908152602001600020600082825461303e91906146d9565b92505081905550816002600083815260200190815260200160002060006101000a81548173ffffffffffffffffffffffffffffffffffffffff021916908373ffffffffffffffffffffffffffffffffffffffff160217905550808273ffffffffffffffffffffffffffffffffffffffff16600073ffffffffffffffffffffffffffffffffffffffff167fddf252ad1be2c89b69c2b068fc378daa952ba7f163c4a11628f55a4df523b3ef60405160405180910390a45050565b600080823b905060008111915050919050565b60606000821415613152576040518060400160405280600181526020017f30000000000000000000000000000000000000000000000000000000000000008152509050613266565b600082905060005b6000821461318457808061316d9061493b565b915050600a8261317d919061472f565b915061315a565b60008167ffffffffffffffff8111156131a05761319f614aa0565b5b6040519080825280601f01601f1916602001820160405280156131d25781602001600182028036833780820191505090505b5090505b6000851461325f576001826131eb91906147ba565b9150600a856131fa9190614984565b603061320691906146d9565b60f81b81838151811061321c5761321b614a71565b5b60200101907effffffffffffffffffffffffffffffffffffffffffffffffffffffffffffff1916908160001a905350600a85613258919061472f565b94506131d6565b8093505050505b919050565b60007f01ffc9a7000000000000000000000000000000000000000000000000000000007bffffffffffffffffffffffffffffffffffffffffffffffffffffffff1916827bffffffffffffffffffffffffffffffffffffffffffffffffffffffff1916149050919050565b505050565b6008805490506009600083815260200190815260200160002081905550600881908060018154018082558091505060019003906000526020600020016000909190919091505550565b60006001613330846117ba565b61333a91906147ba565b905060006007600084815260200190815260200160002054905081811461341f576000600660008673ffffffffffffffffffffffffffffffffffffffff1673ffffffffffffffffffffffffffffffffffffffff168152602001908152602001600020600084815260200190815260200160002054905080600660008773ffffffffffffffffffffffffffffffffffffffff1673ffffffffffffffffffffffffffffffffffffffff168152602001908152602001600020600084815260200190815260200160002081905550816007600083815260200190815260200160002081905550505b6007600084815260200190815260200160002060009055600660008573ffffffffffffffffffffffffffffffffffffffff1673ffffffffffffffffffffffffffffffffffffffff16815260200190815260200160002060008381526020019081526020016000206000905550505050565b600060016008805490506134a491906147ba565b90506000600960008481526020019081526020016000205490506000600883815481106134d4576134d3614a71565b5b9060005260206000200154905080600883815481106134f6576134f5614a71565b5b90600052602060002001819055508160096000838152602001908152602001600020819055506009600085815260200190815260200160002060009055600880548061354557613544614a42565b5b6001900381819060005260206000200160009055905550505050565b600061356c836117ba565b905081600660008573ffffffffffffffffffffffffffffffffffffffff1673ffffffffffffffffffffffffffffffffffffffff168152602001908152602001600020600083815260200190815260200160002081905550806007600084815260200190815260200160002081905550505050565b8280546135ec906148d8565b90600052602060002090601f01602090048101928261360e5760008555613655565b82601f1061362757805160ff1916838001178555613655565b82800160010185558215613655579182015b82811115613654578251825591602001919060010190613639565b5b5090506136629190613666565b5090565b5b8082111561367f576000816000905550600101613667565b5090565b6000613696613691846145fb565b6145d6565b9050828152602081018484840111156136b2576136b1614ad4565b5b6136bd84828561486c565b509392505050565b60006136d86136d38461462c565b6145d6565b9050828152602081018484840111156136f4576136f3614ad4565b5b6136ff84828561486c565b509392505050565b600081359050613716816151ca565b92915050565b60008135905061372b816151e1565b92915050565b600081359050613740816151f8565b92915050565b6000813590506137558161520f565b92915050565b60008151905061376a8161520f565b92915050565b600082601f83011261378557613784614acf565b5b8135613795848260208601613683565b91505092915050565b600082601f8301126137b3576137b2614acf565b5b81356137c38482602086016136c5565b91505092915050565b6000813590506137db81615226565b92915050565b6000602082840312156137f7576137f6614ade565b5b600061380584828501613707565b91505092915050565b6000806040838503121561382557613824614ade565b5b600061383385828601613707565b925050602061384485828601613707565b9150509250929050565b60008060006060848603121561386757613866614ade565b5b600061387586828701613707565b935050602061388686828701613707565b9250506040613897868287016137cc565b9150509250925092565b600080600080608085870312156138bb576138ba614ade565b5b60006138c987828801613707565b94505060206138da87828801613707565b93505060406138eb878288016137cc565b925050606085013567ffffffffffffffff81111561390c5761390b614ad9565b5b61391887828801613770565b91505092959194509250565b6000806040838503121561393b5761393a614ade565b5b600061394985828601613707565b925050602061395a8582860161371c565b9150509250929050565b6000806040838503121561397b5761397a614ade565b5b600061398985828601613707565b925050602061399a858286016137cc565b9150509250929050565b6000602082840312156139ba576139b9614ade565b5b60006139c884828501613731565b91505092915050565b600080604083850312156139e8576139e7614ade565b5b60006139f685828601613731565b9250506020613a0785828601613707565b9150509250929050565b600060208284031215613a2757613a26614ade565b5b6000613a3584828501613746565b91505092915050565b600060208284031215613a5457613a53614ade565b5b6000613a628482850161375b565b91505092915050565b60008060008060808587031215613a8557613a84614ade565b5b600085013567ffffffffffffffff811115613aa357613aa2614ad9565b5b613aaf8782880161379e565b945050602085013567ffffffffffffffff811115613ad057613acf614ad9565b5b613adc8782880161379e565b9350506040613aed878288016137cc565b925050606085013567ffffffffffffffff811115613b0e57613b0d614ad9565b5b613b1a8782880161379e565b91505092959194509250565b600060208284031215613b3c57613b3b614ade565b5b6000613b4a848285016137cc565b91505092915050565b600080600080600060a08688031215613b6f57613b6e614ade565b5b6000613b7d888289016137cc565b955050602086013567ffffffffffffffff811115613b9e57613b9d614ad9565b5b613baa8882890161379e565b945050604086013567ffffffffffffffff811115613bcb57613bca614ad9565b5b613bd78882890161379e565b9350506060613be8888289016137cc565b925050608086013567ffffffffffffffff811115613c0957613c08614ad9565b5b613c158882890161379e565b9150509295509295909350565b6000613c2e83836140f6565b60208301905092915050565b613c43816147ee565b82525050565b6000613c548261466d565b613c5e818561469b565b9350613c698361465d565b8060005b83811015613c9a578151613c818882613c22565b9750613c8c8361468e565b925050600181019050613c6d565b5085935050505092915050565b613cb081614800565b82525050565b613cbf8161480c565b82525050565b6000613cd082614678565b613cda81856146ac565b9350613cea81856020860161487b565b613cf381614ae3565b840191505092915050565b6000613d0982614683565b613d1381856146bd565b9350613d2381856020860161487b565b613d2c81614ae3565b840191505092915050565b6000613d4282614683565b613d4c81856146ce565b9350613d5c81856020860161487b565b80840191505092915050565b6000613d756020836146bd565b9150613d8082614af4565b602082019050919050565b6000613d98602b836146bd565b9150613da382614b1d565b604082019050919050565b6000613dbb6011836146bd565b9150613dc682614b6c565b602082019050919050565b6000613dde6024836146bd565b9150613de982614b95565b604082019050919050565b6000613e016032836146bd565b9150613e0c82614be4565b604082019050919050565b6000613e24601c836146bd565b9150613e2f82614c33565b602082019050919050565b6000613e476024836146bd565b9150613e5282614c5c565b604082019050919050565b6000613e6a6019836146bd565b9150613e7582614cab565b602082019050919050565b6000613e8d602c836146bd565b9150613e9882614cd4565b604082019050919050565b6000613eb06038836146bd565b9150613ebb82614d23565b604082019050919050565b6000613ed3602a836146bd565b9150613ede82614d72565b604082019050919050565b6000613ef66029836146bd565b9150613f0182614dc1565b604082019050919050565b6000613f19602e836146bd565b9150613f2482614e10565b604082019050919050565b6000613f3c601c836146bd565b9150613f4782614e5f565b602082019050919050565b6000613f5f6020836146bd565b9150613f6a82614e88565b602082019050919050565b6000613f826021836146bd565b9150613f8d82614eb1565b604082019050919050565b6000613fa56031836146bd565b9150613fb082614f00565b604082019050919050565b6000613fc8602c836146bd565b9150613fd382614f4f565b604082019050919050565b6000613feb6029836146bd565b9150613ff682614f9e565b604082019050919050565b600061400e602f836146bd565b915061401982614fed565b604082019050919050565b60006140316021836146bd565b915061403c8261503c565b604082019050919050565b60006140546031836146bd565b915061405f8261508b565b604082019050919050565b6000614077602c836146bd565b9150614082826150da565b604082019050919050565b600061409a6017836146ce565b91506140a582615129565b601782019050919050565b60006140bd6011836146ce565b91506140c882615152565b601182019050919050565b60006140e0602f836146bd565b91506140eb8261517b565b604082019050919050565b6140ff81614862565b82525050565b61410e81614862565b82525050565b60006141208285613d37565b915061412c8284613d37565b91508190509392505050565b60006141438261408d565b915061414f8285613d37565b915061415a826140b0565b91506141668284613d37565b91508190509392505050565b60006020820190506141876000830184613c3a565b92915050565b60006080820190506141a26000830187613c3a565b6141af6020830186613c3a565b6141bc6040830185614105565b81810360608301526141ce8184613cc5565b905095945050505050565b600060208201905081810360008301526141f38184613c49565b905092915050565b60006020820190506142106000830184613ca7565b92915050565b600060208201905061422b6000830184613cb6565b92915050565b6000602082019050818103600083015261424b8184613cfe565b905092915050565b600060a082019050818103600083015261426d8188613cfe565b905081810360208301526142818187613cfe565b905081810360408301526142958186613cfe565b90506142a46060830185613c3a565b6142b16080830184614105565b9695505050505050565b600060208201905081810360008301526142d481613d68565b9050919050565b600060208201905081810360008301526142f481613d8b565b9050919050565b6000602082019050818103600083015261431481613dae565b9050919050565b6000602082019050818103600083015261433481613dd1565b9050919050565b6000602082019050818103600083015261435481613df4565b9050919050565b6000602082019050818103600083015261437481613e17565b9050919050565b6000602082019050818103600083015261439481613e3a565b9050919050565b600060208201905081810360008301526143b481613e5d565b9050919050565b600060208201905081810360008301526143d481613e80565b9050919050565b600060208201905081810360008301526143f481613ea3565b9050919050565b6000602082019050818103600083015261441481613ec6565b9050919050565b6000602082019050818103600083015261443481613ee9565b9050919050565b6000602082019050818103600083015261445481613f0c565b9050919050565b6000602082019050818103600083015261447481613f2f565b9050919050565b6000602082019050818103600083015261449481613f52565b9050919050565b600060208201905081810360008301526144b481613f75565b9050919050565b600060208201905081810360008301526144d481613f98565b9050919050565b600060208201905081810360008301526144f481613fbb565b9050919050565b6000602082019050818103600083015261451481613fde565b9050919050565b6000602082019050818103600083015261453481614001565b9050919050565b6000602082019050818103600083015261455481614024565b9050919050565b6000602082019050818103600083015261457481614047565b9050919050565b600060208201905081810360008301526145948161406a565b9050919050565b600060208201905081810360008301526145b4816140d3565b9050919050565b60006020820190506145d06000830184614105565b92915050565b60006145e06145f1565b90506145ec828261490a565b919050565b6000604051905090565b600067ffffffffffffffff82111561461657614615614aa0565b5b61461f82614ae3565b9050602081019050919050565b600067ffffffffffffffff82111561464757614646614aa0565b5b61465082614ae3565b9050602081019050919050565b6000819050602082019050919050565b600081519050919050565b600081519050919050565b600081519050919050565b6000602082019050919050565b600082825260208201905092915050565b600082825260208201905092915050565b600082825260208201905092915050565b600081905092915050565b60006146e482614862565b91506146ef83614862565b9250827fffffffffffffffffffffffffffffffffffffffffffffffffffffffffffffffff03821115614724576147236149b5565b5b828201905092915050565b600061473a82614862565b915061474583614862565b925082614755576147546149e4565b5b828204905092915050565b600061476b82614862565b915061477683614862565b9250817fffffffffffffffffffffffffffffffffffffffffffffffffffffffffffffffff04831182151516156147af576147ae6149b5565b5b828202905092915050565b60006147c582614862565b91506147d083614862565b9250828210156147e3576147e26149b5565b5b828203905092915050565b60006147f982614842565b9050919050565b60008115159050919050565b6000819050919050565b60007fffffffff0000000000000000000000000000000000000000000000000000000082169050919050565b600073ffffffffffffffffffffffffffffffffffffffff82169050919050565b6000819050919050565b82818337600083830152505050565b60005b8381101561489957808201518184015260208101905061487e565b838111156148a8576000848401525b50505050565b60006148b982614862565b915060008214156148cd576148cc6149b5565b5b600182039050919050565b600060028204905060018216806148f057607f821691505b6020821081141561490457614903614a13565b5b50919050565b61491382614ae3565b810181811067ffffffffffffffff8211171561493257614931614aa0565b5b80604052505050565b600061494682614862565b91507fffffffffffffffffffffffffffffffffffffffffffffffffffffffffffffffff821415614979576149786149b5565b5b600182019050919050565b600061498f82614862565b915061499a83614862565b9250826149aa576149a96149e4565b5b828206905092915050565b7f4e487b7100000000000000000000000000000000000000000000000000000000600052601160045260246000fd5b7f4e487b7100000000000000000000000000000000000000000000000000000000600052601260045260246000fd5b7f4e487b7100000000000000000000000000000000000000000000000000000000600052602260045260246000fd5b7f4e487b7100000000000000000000000000000000000000000000000000000000600052603160045260246000fd5b7f4e487b7100000000000000000000000000000000000000000000000000000000600052603260045260246000fd5b7f4e487b7100000000000000000000000000000000000000000000000000000000600052604160045260246000fd5b600080fd5b600080fd5b600080fd5b600080fd5b6000601f19601f8301169050919050565b7f537472696e67733a20686578206c656e67746820696e73756666696369656e74600082015250565b7f455243373231456e756d657261626c653a206f776e657220696e646578206f7560008201527f74206f6620626f756e6473000000000000000000000000000000000000000000602082015250565b7f417070204944206d757374206578697374000000000000000000000000000000600082015250565b7f4d757374206265206120646576656c6f70657220746f2063726561746520616e60008201527f2061707000000000000000000000000000000000000000000000000000000000602082015250565b7f4552433732313a207472616e7366657220746f206e6f6e20455243373231526560008201527f63656976657220696d706c656d656e7465720000000000000000000000000000602082015250565b7f4552433732313a20746f6b656e20616c7265616479206d696e74656400000000600082015250565b7f4552433732313a207472616e7366657220746f20746865207a65726f2061646460008201527f7265737300000000000000000000000000000000000000000000000000000000602082015250565b7f4552433732313a20617070726f766520746f2063616c6c657200000000000000600082015250565b7f4552433732313a206f70657261746f7220717565727920666f72206e6f6e657860008201527f697374656e7420746f6b656e0000000000000000000000000000000000000000602082015250565b7f4552433732313a20617070726f76652063616c6c6572206973206e6f74206f7760008201527f6e6572206e6f7220617070726f76656420666f7220616c6c0000000000000000602082015250565b7f4552433732313a2062616c616e636520717565727920666f7220746865207a6560008201527f726f206164647265737300000000000000000000000000000000000000000000602082015250565b7f4552433732313a206f776e657220717565727920666f72206e6f6e657869737460008201527f656e7420746f6b656e0000000000000000000000000000000000000000000000602082015250565b7f45524337323155524953746f726167653a2055524920736574206f66206e6f6e60008201527f6578697374656e7420746f6b656e000000000000000000000000000000000000602082015250565b7f4d75737420626520616e2061646d696e20746f20776974686472617700000000600082015250565b7f4552433732313a206d696e7420746f20746865207a65726f2061646472657373600082015250565b7f596f75206d75737420626520746865206f776e6572206f66207468697320617060008201527f7000000000000000000000000000000000000000000000000000000000000000602082015250565b7f45524337323155524953746f726167653a2055524920717565727920666f722060008201527f6e6f6e6578697374656e7420746f6b656e000000000000000000000000000000602082015250565b7f4552433732313a20617070726f76656420717565727920666f72206e6f6e657860008201527f697374656e7420746f6b656e0000000000000000000000000000000000000000602082015250565b7f4552433732313a207472616e73666572206f6620746f6b656e2074686174206960008201527f73206e6f74206f776e0000000000000000000000000000000000000000000000602082015250565b7f4552433732314d657461646174613a2055524920717565727920666f72206e6f60008201527f6e6578697374656e7420746f6b656e0000000000000000000000000000000000602082015250565b7f4552433732313a20617070726f76616c20746f2063757272656e74206f776e6560008201527f7200000000000000000000000000000000000000000000000000000000000000602082015250565b7f4552433732313a207472616e736665722063616c6c6572206973206e6f74206f60008201527f776e6572206e6f7220617070726f766564000000000000000000000000000000602082015250565b7f455243373231456e756d657261626c653a20676c6f62616c20696e646578206f60008201527f7574206f6620626f756e64730000000000000000000000000000000000000000602082015250565b7f416363657373436f6e74726f6c3a206163636f756e7420000000000000000000600082015250565b7f206973206d697373696e6720726f6c6520000000000000000000000000000000600082015250565b7f416363657373436f6e74726f6c3a2063616e206f6e6c792072656e6f756e636560008201527f20726f6c657320666f722073656c660000000000000000000000000000000000602082015250565b6151d3816147ee565b81146151de57600080fd5b50565b6151ea81614800565b81146151f557600080fd5b50565b6152018161480c565b811461520c57600080fd5b50565b61521881614816565b811461522357600080fd5b50565b61522f81614862565b811461523a57600080fd5b5056fea264697066735822122051f8b496e7ebab443894f42aad239be5f3084a269a23c55c297136b599441b4664736f6c63430008060033",
  "linkReferences": {},
  "deployedLinkReferences": {}
}