{
  "_format": "hh-sol-artifact-1",
  "contractName": "Byoa",
  "sourceName": "contracts/byoa.sol",
  "abi": [
    {
      "inputs": [],
      "stateMutability": "nonpayable",
      "type": "constructor"
    },
    {
      "anonymous": false,
      "inputs": [
        {
          "indexed": true,
          "internalType": "address",
          "name": "owner",
          "type": "address"
        },
        {
          "indexed": true,
          "internalType": "address",
          "name": "approved",
          "type": "address"
        },
        {
          "indexed": true,
          "internalType": "uint256",
          "name": "tokenId",
          "type": "uint256"
        }
      ],
      "name": "Approval",
      "type": "event"
    },
    {
      "anonymous": false,
      "inputs": [
        {
          "indexed": true,
          "internalType": "address",
          "name": "owner",
          "type": "address"
        },
        {
          "indexed": true,
          "internalType": "address",
          "name": "operator",
          "type": "address"
        },
        {
          "indexed": false,
          "internalType": "bool",
          "name": "approved",
          "type": "bool"
        }
      ],
      "name": "ApprovalForAll",
      "type": "event"
    },
    {
      "anonymous": false,
      "inputs": [
        {
          "indexed": true,
          "internalType": "bytes32",
          "name": "role",
          "type": "bytes32"
        },
        {
          "indexed": true,
          "internalType": "bytes32",
          "name": "previousAdminRole",
          "type": "bytes32"
        },
        {
          "indexed": true,
          "internalType": "bytes32",
          "name": "newAdminRole",
          "type": "bytes32"
        }
      ],
      "name": "RoleAdminChanged",
      "type": "event"
    },
    {
      "anonymous": false,
      "inputs": [
        {
          "indexed": true,
          "internalType": "bytes32",
          "name": "role",
          "type": "bytes32"
        },
        {
          "indexed": true,
          "internalType": "address",
          "name": "account",
          "type": "address"
        },
        {
          "indexed": true,
          "internalType": "address",
          "name": "sender",
          "type": "address"
        }
      ],
      "name": "RoleGranted",
      "type": "event"
    },
    {
      "anonymous": false,
      "inputs": [
        {
          "indexed": true,
          "internalType": "bytes32",
          "name": "role",
          "type": "bytes32"
        },
        {
          "indexed": true,
          "internalType": "address",
          "name": "account",
          "type": "address"
        },
        {
          "indexed": true,
          "internalType": "address",
          "name": "sender",
          "type": "address"
        }
      ],
      "name": "RoleRevoked",
      "type": "event"
    },
    {
      "anonymous": false,
      "inputs": [
        {
          "indexed": true,
          "internalType": "address",
          "name": "from",
          "type": "address"
        },
        {
          "indexed": true,
          "internalType": "address",
          "name": "to",
          "type": "address"
        },
        {
          "indexed": true,
          "internalType": "uint256",
          "name": "tokenId",
          "type": "uint256"
        }
      ],
      "name": "Transfer",
      "type": "event"
    },
    {
      "inputs": [],
      "name": "DEFAULT_ADMIN_ROLE",
      "outputs": [
        {
          "internalType": "bytes32",
          "name": "",
          "type": "bytes32"
        }
      ],
      "stateMutability": "view",
      "type": "function"
    },
    {
      "inputs": [],
      "name": "DEVELOPER_ROLE",
      "outputs": [
        {
          "internalType": "bytes32",
          "name": "",
          "type": "bytes32"
        }
      ],
      "stateMutability": "view",
      "type": "function"
    },
    {
      "inputs": [
        {
          "internalType": "address",
          "name": "to",
          "type": "address"
        },
        {
          "internalType": "uint256",
          "name": "tokenId",
          "type": "uint256"
        }
      ],
      "name": "approve",
      "outputs": [],
      "stateMutability": "nonpayable",
      "type": "function"
    },
    {
      "inputs": [
        {
          "internalType": "address",
          "name": "owner",
          "type": "address"
        }
      ],
      "name": "balanceOf",
      "outputs": [
        {
          "internalType": "uint256",
          "name": "",
          "type": "uint256"
        }
      ],
      "stateMutability": "view",
      "type": "function"
    },
    {
      "inputs": [
        {
          "internalType": "string",
          "name": "name",
          "type": "string"
        },
        {
          "internalType": "string",
          "name": "description",
          "type": "string"
        },
        {
          "internalType": "uint256",
          "name": "price",
          "type": "uint256"
        },
        {
          "internalType": "string",
          "name": "_tokenURI",
          "type": "string"
        }
      ],
      "name": "createApp",
      "outputs": [
        {
          "internalType": "uint256",
          "name": "",
          "type": "uint256"
        }
      ],
      "stateMutability": "nonpayable",
      "type": "function"
    },
    {
      "inputs": [
        {
          "internalType": "uint256",
          "name": "appId",
          "type": "uint256"
        }
      ],
      "name": "getAppDetailsById",
      "outputs": [
        {
          "internalType": "string",
          "name": "name",
          "type": "string"
        },
        {
          "internalType": "string",
          "name": "description",
          "type": "string"
        },
        {
          "internalType": "string",
          "name": "_tokenURI",
          "type": "string"
        },
        {
          "internalType": "address",
          "name": "owner",
          "type": "address"
        },
        {
          "internalType": "uint256",
          "name": "price",
          "type": "uint256"
        }
      ],
      "stateMutability": "view",
      "type": "function"
    },
    {
      "inputs": [],
      "name": "getAppIds",
      "outputs": [
        {
          "internalType": "uint256[]",
          "name": "",
          "type": "uint256[]"
        }
      ],
      "stateMutability": "view",
      "type": "function"
    },
    {
      "inputs": [
        {
          "internalType": "uint256",
          "name": "tokenId",
          "type": "uint256"
        }
      ],
      "name": "getApproved",
      "outputs": [
        {
          "internalType": "address",
          "name": "",
          "type": "address"
        }
      ],
      "stateMutability": "view",
      "type": "function"
    },
    {
      "inputs": [
        {
          "internalType": "bytes32",
          "name": "role",
          "type": "bytes32"
        }
      ],
      "name": "getRoleAdmin",
      "outputs": [
        {
          "internalType": "bytes32",
          "name": "",
          "type": "bytes32"
        }
      ],
      "stateMutability": "view",
      "type": "function"
    },
    {
      "inputs": [
        {
          "internalType": "bytes32",
          "name": "role",
          "type": "bytes32"
        },
        {
          "internalType": "address",
          "name": "account",
          "type": "address"
        }
      ],
      "name": "grantRole",
      "outputs": [],
      "stateMutability": "nonpayable",
      "type": "function"
    },
    {
      "inputs": [
        {
          "internalType": "bytes32",
          "name": "role",
          "type": "bytes32"
        },
        {
          "internalType": "address",
          "name": "account",
          "type": "address"
        }
      ],
      "name": "hasRole",
      "outputs": [
        {
          "internalType": "bool",
          "name": "",
          "type": "bool"
        }
      ],
      "stateMutability": "view",
      "type": "function"
    },
    {
      "inputs": [
        {
          "internalType": "address",
          "name": "owner",
          "type": "address"
        },
        {
          "internalType": "address",
          "name": "operator",
          "type": "address"
        }
      ],
      "name": "isApprovedForAll",
      "outputs": [
        {
          "internalType": "bool",
          "name": "",
          "type": "bool"
        }
      ],
      "stateMutability": "view",
      "type": "function"
    },
    {
      "inputs": [
        {
          "internalType": "uint256",
          "name": "_appId",
          "type": "uint256"
        }
      ],
      "name": "mint",
      "outputs": [],
      "stateMutability": "payable",
      "type": "function"
    },
    {
      "inputs": [],
      "name": "name",
      "outputs": [
        {
          "internalType": "string",
          "name": "",
          "type": "string"
        }
      ],
      "stateMutability": "view",
      "type": "function"
    },
    {
      "inputs": [
        {
          "internalType": "uint256",
          "name": "tokenId",
          "type": "uint256"
        }
      ],
      "name": "ownerOf",
      "outputs": [
        {
          "internalType": "address",
          "name": "",
          "type": "address"
        }
      ],
      "stateMutability": "view",
      "type": "function"
    },
    {
      "inputs": [
        {
          "internalType": "bytes32",
          "name": "role",
          "type": "bytes32"
        },
        {
          "internalType": "address",
          "name": "account",
          "type": "address"
        }
      ],
      "name": "renounceRole",
      "outputs": [],
      "stateMutability": "nonpayable",
      "type": "function"
    },
    {
      "inputs": [
        {
          "internalType": "bytes32",
          "name": "role",
          "type": "bytes32"
        },
        {
          "internalType": "address",
          "name": "account",
          "type": "address"
        }
      ],
      "name": "revokeRole",
      "outputs": [],
      "stateMutability": "nonpayable",
      "type": "function"
    },
    {
      "inputs": [
        {
          "internalType": "address",
          "name": "from",
          "type": "address"
        },
        {
          "internalType": "address",
          "name": "to",
          "type": "address"
        },
        {
          "internalType": "uint256",
          "name": "tokenId",
          "type": "uint256"
        }
      ],
      "name": "safeTransferFrom",
      "outputs": [],
      "stateMutability": "nonpayable",
      "type": "function"
    },
    {
      "inputs": [
        {
          "internalType": "address",
          "name": "from",
          "type": "address"
        },
        {
          "internalType": "address",
          "name": "to",
          "type": "address"
        },
        {
          "internalType": "uint256",
          "name": "tokenId",
          "type": "uint256"
        },
        {
          "internalType": "bytes",
          "name": "_data",
          "type": "bytes"
        }
      ],
      "name": "safeTransferFrom",
      "outputs": [],
      "stateMutability": "nonpayable",
      "type": "function"
    },
    {
      "inputs": [
        {
          "internalType": "address",
          "name": "operator",
          "type": "address"
        },
        {
          "internalType": "bool",
          "name": "approved",
          "type": "bool"
        }
      ],
      "name": "setApprovalForAll",
      "outputs": [],
      "stateMutability": "nonpayable",
      "type": "function"
    },
    {
      "inputs": [
        {
          "internalType": "bytes4",
          "name": "interfaceId",
          "type": "bytes4"
        }
      ],
      "name": "supportsInterface",
      "outputs": [
        {
          "internalType": "bool",
          "name": "",
          "type": "bool"
        }
      ],
      "stateMutability": "view",
      "type": "function"
    },
    {
      "inputs": [],
      "name": "symbol",
      "outputs": [
        {
          "internalType": "string",
          "name": "",
          "type": "string"
        }
      ],
      "stateMutability": "view",
      "type": "function"
    },
    {
      "inputs": [
        {
          "internalType": "uint256",
          "name": "index",
          "type": "uint256"
        }
      ],
      "name": "tokenByIndex",
      "outputs": [
        {
          "internalType": "uint256",
          "name": "",
          "type": "uint256"
        }
      ],
      "stateMutability": "view",
      "type": "function"
    },
    {
      "inputs": [
        {
          "internalType": "address",
          "name": "owner",
          "type": "address"
        },
        {
          "internalType": "uint256",
          "name": "index",
          "type": "uint256"
        }
      ],
      "name": "tokenOfOwnerByIndex",
      "outputs": [
        {
          "internalType": "uint256",
          "name": "",
          "type": "uint256"
        }
      ],
      "stateMutability": "view",
      "type": "function"
    },
    {
      "inputs": [
        {
          "internalType": "uint256",
          "name": "tokenId",
          "type": "uint256"
        }
      ],
      "name": "tokenURI",
      "outputs": [
        {
          "internalType": "string",
          "name": "",
          "type": "string"
        }
      ],
      "stateMutability": "view",
      "type": "function"
    },
    {
      "inputs": [],
      "name": "totalSupply",
      "outputs": [
        {
          "internalType": "uint256",
          "name": "",
          "type": "uint256"
        }
      ],
      "stateMutability": "view",
      "type": "function"
    },
    {
      "inputs": [
        {
          "internalType": "address",
          "name": "from",
          "type": "address"
        },
        {
          "internalType": "address",
          "name": "to",
          "type": "address"
        },
        {
          "internalType": "uint256",
          "name": "tokenId",
          "type": "uint256"
        }
      ],
      "name": "transferFrom",
      "outputs": [],
      "stateMutability": "nonpayable",
      "type": "function"
    },
    {
      "inputs": [
        {
          "internalType": "uint256",
          "name": "appId",
          "type": "uint256"
        },
        {
          "internalType": "string",
          "name": "name",
          "type": "string"
        },
        {
          "internalType": "string",
          "name": "description",
          "type": "string"
        },
        {
          "internalType": "uint256",
          "name": "price",
          "type": "uint256"
        },
        {
          "internalType": "string",
          "name": "_tokenURI",
          "type": "string"
        }
      ],
      "name": "updateApp",
      "outputs": [
        {
          "internalType": "uint256",
          "name": "",
          "type": "uint256"
        }
      ],
      "stateMutability": "nonpayable",
      "type": "function"
    },
    {
      "inputs": [
        {
          "internalType": "address",
          "name": "_owner",
          "type": "address"
        }
      ],
      "name": "walletOfOwner",
      "outputs": [
        {
          "internalType": "uint256[]",
          "name": "",
          "type": "uint256[]"
        }
      ],
      "stateMutability": "view",
      "type": "function"
    },
    {
      "inputs": [],
      "name": "withdrawAll",
      "outputs": [],
      "stateMutability": "payable",
      "type": "function"
    }
  ],
  "bytecode": "0x6080604052668e1bc9bf040000600d553480156200001c57600080fd5b506040518060400160405280600781526020017f42796f61205631000000000000000000000000000000000000000000000000008152506040518060400160405280600781526020017f42594f415f5631000000000000000000000000000000000000000000000000008152508160009080519060200190620000a192919062000253565b508060019080519060200190620000ba92919062000253565b505050620000d26000801b33620000d860201b60201c565b62000368565b620000ea8282620000ee60201b60201c565b5050565b620001008282620001e060201b60201c565b620001dc576001600a600084815260200190815260200160002060000160008373ffffffffffffffffffffffffffffffffffffffff1673ffffffffffffffffffffffffffffffffffffffff16815260200190815260200160002060006101000a81548160ff021916908315150217905550620001816200024b60201b60201c565b73ffffffffffffffffffffffffffffffffffffffff168173ffffffffffffffffffffffffffffffffffffffff16837f2f8788117e7eff1d82e926ec794901d17c78024a50270940304540a733656f0d60405160405180910390a45b5050565b6000600a600084815260200190815260200160002060000160008373ffffffffffffffffffffffffffffffffffffffff1673ffffffffffffffffffffffffffffffffffffffff16815260200190815260200160002060009054906101000a900460ff16905092915050565b600033905090565b828054620002619062000303565b90600052602060002090601f016020900481019282620002855760008555620002d1565b82601f10620002a057805160ff1916838001178555620002d1565b82800160010185558215620002d1579182015b82811115620002d0578251825591602001919060010190620002b3565b5b509050620002e09190620002e4565b5090565b5b80821115620002ff576000816000905550600101620002e5565b5090565b600060028204905060018216806200031c57607f821691505b6020821081141562000333576200033262000339565b5b50919050565b7f4e487b7100000000000000000000000000000000000000000000000000000000600052602260045260246000fd5b61526480620003786000396000f3fe6080604052600436106101cd5760003560e01c80634b42a0f8116100f757806395d89b4111610095578063b88d4fde11610064578063b88d4fde146106d0578063c87b56dd146106f9578063d547741f14610736578063e985e9c51461075f576101cd565b806395d89b4114610635578063a0712d6814610660578063a217fddf1461067c578063a22cb465146106a7576101cd565b806370a08231116100d157806370a0823114610586578063853828b6146105c35780639103a0e0146105cd57806391d14854146105f8576101cd565b80634b42a0f8146104cf5780634f6ccce71461050c5780636352211e14610549576101cd565b80632f2ff15d1161016f57806342842e0e1161013e57806342842e0e146103eb578063438b630014610414578063458f9cfb14610451578063471c1ea914610492576101cd565b80632f2ff15d146103315780632f745c591461035a57806333f717fe1461039757806336568abe146103c2576101cd565b8063095ea7b3116101ab578063095ea7b31461027757806318160ddd146102a057806323b872dd146102cb578063248a9ca3146102f4576101cd565b806301ffc9a7146101d257806306fdde031461020f578063081812fc1461023a575b600080fd5b3480156101de57600080fd5b506101f960048036038101906101f49190613a02565b61079c565b60405161020691906141ec565b60405180910390f35b34801561021b57600080fd5b506102246107ae565b6040516102319190614222565b60405180910390f35b34801561024657600080fd5b50610261600480360381019061025c9190613b17565b610840565b60405161026e9190614163565b60405180910390f35b34801561028357600080fd5b5061029e60048036038101906102999190613955565b6108c5565b005b3480156102ac57600080fd5b506102b56109dd565b6040516102c291906145ac565b60405180910390f35b3480156102d757600080fd5b506102f260048036038101906102ed919061383f565b6109ea565b005b34801561030057600080fd5b5061031b60048036038101906103169190613995565b610a4a565b6040516103289190614207565b60405180910390f35b34801561033d57600080fd5b50610358600480360381019061035391906139c2565b610a6a565b005b34801561036657600080fd5b50610381600480360381019061037c9190613955565b610a93565b60405161038e91906145ac565b60405180910390f35b3480156103a357600080fd5b506103ac610b38565b6040516103b991906141ca565b60405180910390f35b3480156103ce57600080fd5b506103e960048036038101906103e491906139c2565b610bdf565b005b3480156103f757600080fd5b50610412600480360381019061040d919061383f565b610c62565b005b34801561042057600080fd5b5061043b600480360381019061043691906137d2565b610c82565b60405161044891906141ca565b60405180910390f35b34801561045d57600080fd5b5061047860048036038101906104739190613b17565b610d8c565b604051610489959493929190614244565b60405180910390f35b34801561049e57600080fd5b506104b960048036038101906104b49190613b44565b61105d565b6040516104c691906145ac565b60405180910390f35b3480156104db57600080fd5b506104f660048036038101906104f19190613a5c565b6114ee565b60405161050391906145ac565b60405180910390f35b34801561051857600080fd5b50610533600480360381019061052e9190613b17565b611688565b60405161054091906145ac565b60405180910390f35b34801561055557600080fd5b50610570600480360381019061056b9190613b17565b6116f9565b60405161057d9190614163565b60405180910390f35b34801561059257600080fd5b506105ad60048036038101906105a891906137d2565b6117ab565b6040516105ba91906145ac565b60405180910390f35b6105cb611863565b005b3480156105d957600080fd5b506105e26118ef565b6040516105ef9190614207565b60405180910390f35b34801561060457600080fd5b5061061f600480360381019061061a91906139c2565b611913565b60405161062c91906141ec565b60405180910390f35b34801561064157600080fd5b5061064a61197e565b6040516106579190614222565b60405180910390f35b61067a60048036038101906106759190613b17565b611a10565b005b34801561068857600080fd5b50610691611b50565b60405161069e9190614207565b60405180910390f35b3480156106b357600080fd5b506106ce60048036038101906106c99190613915565b611b57565b005b3480156106dc57600080fd5b506106f760048036038101906106f29190613892565b611cd8565b005b34801561070557600080fd5b50610720600480360381019061071b9190613b17565b611d3a565b60405161072d9190614222565b60405180910390f35b34801561074257600080fd5b5061075d600480360381019061075891906139c2565b611d4c565b005b34801561076b57600080fd5b50610786600480360381019061078191906137ff565b611d75565b60405161079391906141ec565b60405180910390f35b60006107a782611e09565b9050919050565b6060600080546107bd906148c9565b80601f01602080910402602001604051908101604052809291908181526020018280546107e9906148c9565b80156108365780601f1061080b57610100808354040283529160200191610836565b820191906000526020600020905b81548152906001019060200180831161081957829003601f168201915b5050505050905090565b600061084b82611e83565b61088a576040517f08c379a0000000000000000000000000000000000000000000000000000000008152600401610881906144cc565b60405180910390fd5b6004600083815260200190815260200160002060009054906101000a900473ffffffffffffffffffffffffffffffffffffffff169050919050565b60006108d0826116f9565b90508073ffffffffffffffffffffffffffffffffffffffff168373ffffffffffffffffffffffffffffffffffffffff161415610941576040517f08c379a00000000000000000000000000000000000000000000000000000000081526004016109389061452c565b60405180910390fd5b8073ffffffffffffffffffffffffffffffffffffffff16610960611eef565b73ffffffffffffffffffffffffffffffffffffffff16148061098f575061098e81610989611eef565b611d75565b5b6109ce576040517f08c379a00000000000000000000000000000000000000000000000000000000081526004016109c5906143cc565b60405180910390fd5b6109d88383611ef7565b505050565b6000600880549050905090565b6109fb6109f5611eef565b82611fb0565b610a3a576040517f08c379a0000000000000000000000000000000000000000000000000000000008152600401610a319061454c565b60405180910390fd5b610a4583838361208e565b505050565b6000600a6000838152602001908152602001600020600101549050919050565b610a7382610a4a565b610a8481610a7f611eef565b6122ea565b610a8e8383612387565b505050565b6000610a9e836117ab565b8210610adf576040517f08c379a0000000000000000000000000000000000000000000000000000000008152600401610ad6906142cc565b60405180910390fd5b600660008473ffffffffffffffffffffffffffffffffffffffff1673ffffffffffffffffffffffffffffffffffffffff168152602001908152602001600020600083815260200190815260200160002054905092915050565b60606000610b46600c612468565b67ffffffffffffffff811115610b5f57610b5e614a91565b5b604051908082528060200260200182016040528015610b8d5781602001602082028036833780820191505090505b50905060005b610b9d600c612468565b811015610bd75780828281518110610bb857610bb7614a62565b5b6020026020010181815250508080610bcf9061492c565b915050610b93565b508091505090565b610be7611eef565b73ffffffffffffffffffffffffffffffffffffffff168173ffffffffffffffffffffffffffffffffffffffff1614610c54576040517f08c379a0000000000000000000000000000000000000000000000000000000008152600401610c4b9061458c565b60405180910390fd5b610c5e8282612476565b5050565b610c7d83838360405180602001604052806000815250611cd8565b505050565b60606000610c8f836117ab565b90506000811415610cec57600067ffffffffffffffff811115610cb557610cb4614a91565b5b604051908082528060200260200182016040528015610ce35781602001602082028036833780820191505090505b50915050610d87565b60008167ffffffffffffffff811115610d0857610d07614a91565b5b604051908082528060200260200182016040528015610d365781602001602082028036833780820191505090505b50905060005b82811015610d8057610d4e8582610a93565b828281518110610d6157610d60614a62565b5b6020026020010181815250508080610d789061492c565b915050610d3c565b5080925050505b919050565b60608060606000806000600e6000888152602001908152602001600020600001541415610dee576040517f08c379a0000000000000000000000000000000000000000000000000000000008152600401610de5906142ec565b60405180910390fd5b6000600e60008881526020019081526020016000206040518060c001604052908160008201548152602001600182018054610e28906148c9565b80601f0160208091040260200160405190810160405280929190818152602001828054610e54906148c9565b8015610ea15780601f10610e7657610100808354040283529160200191610ea1565b820191906000526020600020905b815481529060010190602001808311610e8457829003601f168201915b50505050508152602001600282018054610eba906148c9565b80601f0160208091040260200160405190810160405280929190818152602001828054610ee6906148c9565b8015610f335780601f10610f0857610100808354040283529160200191610f33565b820191906000526020600020905b815481529060010190602001808311610f1657829003601f168201915b5050505050815260200160038201548152602001600482018054610f56906148c9565b80601f0160208091040260200160405190810160405280929190818152602001828054610f82906148c9565b8015610fcf5780601f10610fa457610100808354040283529160200191610fcf565b820191906000526020600020905b815481529060010190602001808311610fb257829003601f168201915b505050505081526020016005820160009054906101000a900473ffffffffffffffffffffffffffffffffffffffff1673ffffffffffffffffffffffffffffffffffffffff1673ffffffffffffffffffffffffffffffffffffffff168152505090508060200151816040015182608001518360a001518460600151955095509550955095505091939590929450565b60006110897f4504b9dfd7400a1522f49a8b4a100552da9236849581fd59b7363eb48c6a474c33611913565b6110c8576040517f08c379a00000000000000000000000000000000000000000000000000000000081526004016110bf9061430c565b60405180910390fd5b6000600e6000888152602001908152602001600020600001541415611122576040517f08c379a0000000000000000000000000000000000000000000000000000000008152600401611119906142ec565b60405180910390fd5b6000600e60008881526020019081526020016000206040518060c00160405290816000820154815260200160018201805461115c906148c9565b80601f0160208091040260200160405190810160405280929190818152602001828054611188906148c9565b80156111d55780601f106111aa576101008083540402835291602001916111d5565b820191906000526020600020905b8154815290600101906020018083116111b857829003601f168201915b505050505081526020016002820180546111ee906148c9565b80601f016020809104026020016040519081016040528092919081815260200182805461121a906148c9565b80156112675780601f1061123c57610100808354040283529160200191611267565b820191906000526020600020905b81548152906001019060200180831161124a57829003601f168201915b505050505081526020016003820154815260200160048201805461128a906148c9565b80601f01602080910402602001604051908101604052809291908181526020018280546112b6906148c9565b80156113035780601f106112d857610100808354040283529160200191611303565b820191906000526020600020905b8154815290600101906020018083116112e657829003601f168201915b505050505081526020016005820160009054906101000a900473ffffffffffffffffffffffffffffffffffffffff1673ffffffffffffffffffffffffffffffffffffffff1673ffffffffffffffffffffffffffffffffffffffff168152505090503373ffffffffffffffffffffffffffffffffffffffff168160a0015173ffffffffffffffffffffffffffffffffffffffff16146113d6576040517f08c379a00000000000000000000000000000000000000000000000000000000081526004016113cd9061448c565b60405180910390fd5b6040518060c001604052808881526020018781526020018681526020018581526020018481526020013373ffffffffffffffffffffffffffffffffffffffff16815250600e60008981526020019081526020016000206000820151816000015560208201518160010190805190602001906114529291906135d1565b50604082015181600201908051906020019061146f9291906135d1565b506060820151816003015560808201518160040190805190602001906114969291906135d1565b5060a08201518160050160006101000a81548173ffffffffffffffffffffffffffffffffffffffff021916908373ffffffffffffffffffffffffffffffffffffffff1602179055509050508691505095945050505050565b600061151a7f4504b9dfd7400a1522f49a8b4a100552da9236849581fd59b7363eb48c6a474c33611913565b611559576040517f08c379a00000000000000000000000000000000000000000000000000000000081526004016115509061430c565b60405180910390fd5b611563600c612558565b600061156f600c612468565b90506040518060c001604052808281526020018781526020018681526020018581526020018481526020013373ffffffffffffffffffffffffffffffffffffffff16815250600e60008381526020019081526020016000206000820151816000015560208201518160010190805190602001906115ed9291906135d1565b50604082015181600201908051906020019061160a9291906135d1565b506060820151816003015560808201518160040190805190602001906116319291906135d1565b5060a08201518160050160006101000a81548173ffffffffffffffffffffffffffffffffffffffff021916908373ffffffffffffffffffffffffffffffffffffffff16021790555090505080915050949350505050565b60006116926109dd565b82106116d3576040517f08c379a00000000000000000000000000000000000000000000000000000000081526004016116ca9061456c565b60405180910390fd5b600882815481106116e7576116e6614a62565b5b90600052602060002001549050919050565b6000806002600084815260200190815260200160002060009054906101000a900473ffffffffffffffffffffffffffffffffffffffff169050600073ffffffffffffffffffffffffffffffffffffffff168173ffffffffffffffffffffffffffffffffffffffff1614156117a2576040517f08c379a00000000000000000000000000000000000000000000000000000000081526004016117999061440c565b60405180910390fd5b80915050919050565b60008073ffffffffffffffffffffffffffffffffffffffff168273ffffffffffffffffffffffffffffffffffffffff16141561181c576040517f08c379a0000000000000000000000000000000000000000000000000000000008152600401611813906143ec565b60405180910390fd5b600360008373ffffffffffffffffffffffffffffffffffffffff1673ffffffffffffffffffffffffffffffffffffffff168152602001908152602001600020549050919050565b6118706000801b33611913565b6118af576040517f08c379a00000000000000000000000000000000000000000000000000000000081526004016118a69061444c565b60405180910390fd5b3373ffffffffffffffffffffffffffffffffffffffff166108fc479081150290604051600060405180830381858888f193505050506118ed57600080fd5b565b7f4504b9dfd7400a1522f49a8b4a100552da9236849581fd59b7363eb48c6a474c81565b6000600a600084815260200190815260200160002060000160008373ffffffffffffffffffffffffffffffffffffffff1673ffffffffffffffffffffffffffffffffffffffff16815260200190815260200160002060009054906101000a900460ff16905092915050565b60606001805461198d906148c9565b80601f01602080910402602001604051908101604052809291908181526020018280546119b9906148c9565b8015611a065780601f106119db57610100808354040283529160200191611a06565b820191906000526020600020905b8154815290600101906020018083116119e957829003601f168201915b5050505050905090565b6000600e6000838152602001908152602001600020600001541415611a6a576040517f08c379a0000000000000000000000000000000000000000000000000000000008152600401611a61906142ec565b60405180910390fd5b6000611a746109dd565b90506000600182611a8591906146ca565b9050611a91338261256e565b611a9a81611e83565b611aa357600080fd5b611b4b81600e60008681526020019081526020016000206004018054611ac8906148c9565b80601f0160208091040260200160405190810160405280929190818152602001828054611af4906148c9565b8015611b415780601f10611b1657610100808354040283529160200191611b41565b820191906000526020600020905b815481529060010190602001808311611b2457829003601f168201915b505050505061258c565b505050565b6000801b81565b611b5f611eef565b73ffffffffffffffffffffffffffffffffffffffff168273ffffffffffffffffffffffffffffffffffffffff161415611bcd576040517f08c379a0000000000000000000000000000000000000000000000000000000008152600401611bc49061438c565b60405180910390fd5b8060056000611bda611eef565b73ffffffffffffffffffffffffffffffffffffffff1673ffffffffffffffffffffffffffffffffffffffff16815260200190815260200160002060008473ffffffffffffffffffffffffffffffffffffffff1673ffffffffffffffffffffffffffffffffffffffff16815260200190815260200160002060006101000a81548160ff0219169083151502179055508173ffffffffffffffffffffffffffffffffffffffff16611c87611eef565b73ffffffffffffffffffffffffffffffffffffffff167f17307eab39ab6107e8899845ad3d59bd9653f200f220920489ca2b5937696c3183604051611ccc91906141ec565b60405180910390a35050565b611ce9611ce3611eef565b83611fb0565b611d28576040517f08c379a0000000000000000000000000000000000000000000000000000000008152600401611d1f9061454c565b60405180910390fd5b611d3484848484612600565b50505050565b6060611d458261265c565b9050919050565b611d5582610a4a565b611d6681611d61611eef565b6122ea565b611d708383612476565b505050565b6000600560008473ffffffffffffffffffffffffffffffffffffffff1673ffffffffffffffffffffffffffffffffffffffff16815260200190815260200160002060008373ffffffffffffffffffffffffffffffffffffffff1673ffffffffffffffffffffffffffffffffffffffff16815260200190815260200160002060009054906101000a900460ff16905092915050565b60007f7965db0b000000000000000000000000000000000000000000000000000000007bffffffffffffffffffffffffffffffffffffffffffffffffffffffff1916827bffffffffffffffffffffffffffffffffffffffffffffffffffffffff19161480611e7c5750611e7b826127ae565b5b9050919050565b60008073ffffffffffffffffffffffffffffffffffffffff166002600084815260200190815260200160002060009054906101000a900473ffffffffffffffffffffffffffffffffffffffff1673ffffffffffffffffffffffffffffffffffffffff1614159050919050565b600033905090565b816004600083815260200190815260200160002060006101000a81548173ffffffffffffffffffffffffffffffffffffffff021916908373ffffffffffffffffffffffffffffffffffffffff160217905550808273ffffffffffffffffffffffffffffffffffffffff16611f6a836116f9565b73ffffffffffffffffffffffffffffffffffffffff167f8c5be1e5ebec7d5bd14f71427d1e84f3dd0314c0f7b2291e5b200ac8c7c3b92560405160405180910390a45050565b6000611fbb82611e83565b611ffa576040517f08c379a0000000000000000000000000000000000000000000000000000000008152600401611ff1906143ac565b60405180910390fd5b6000612005836116f9565b90508073ffffffffffffffffffffffffffffffffffffffff168473ffffffffffffffffffffffffffffffffffffffff16148061207457508373ffffffffffffffffffffffffffffffffffffffff1661205c84610840565b73ffffffffffffffffffffffffffffffffffffffff16145b8061208557506120848185611d75565b5b91505092915050565b8273ffffffffffffffffffffffffffffffffffffffff166120ae826116f9565b73ffffffffffffffffffffffffffffffffffffffff1614612104576040517f08c379a00000000000000000000000000000000000000000000000000000000081526004016120fb906144ec565b60405180910390fd5b600073ffffffffffffffffffffffffffffffffffffffff168273ffffffffffffffffffffffffffffffffffffffff161415612174576040517f08c379a000000000000000000000000000000000000000000000000000000000815260040161216b9061436c565b60405180910390fd5b61217f838383612828565b61218a600082611ef7565b6001600360008573ffffffffffffffffffffffffffffffffffffffff1673ffffffffffffffffffffffffffffffffffffffff16815260200190815260200160002060008282546121da91906147ab565b925050819055506001600360008473ffffffffffffffffffffffffffffffffffffffff1673ffffffffffffffffffffffffffffffffffffffff168152602001908152602001600020600082825461223191906146ca565b92505081905550816002600083815260200190815260200160002060006101000a81548173ffffffffffffffffffffffffffffffffffffffff021916908373ffffffffffffffffffffffffffffffffffffffff160217905550808273ffffffffffffffffffffffffffffffffffffffff168473ffffffffffffffffffffffffffffffffffffffff167fddf252ad1be2c89b69c2b068fc378daa952ba7f163c4a11628f55a4df523b3ef60405160405180910390a4505050565b6122f48282611913565b612383576123198173ffffffffffffffffffffffffffffffffffffffff166014612838565b6123278360001c6020612838565b604051602001612338929190614129565b6040516020818303038152906040526040517f08c379a000000000000000000000000000000000000000000000000000000000815260040161237a9190614222565b60405180910390fd5b5050565b6123918282611913565b612464576001600a600084815260200190815260200160002060000160008373ffffffffffffffffffffffffffffffffffffffff1673ffffffffffffffffffffffffffffffffffffffff16815260200190815260200160002060006101000a81548160ff021916908315150217905550612409611eef565b73ffffffffffffffffffffffffffffffffffffffff168173ffffffffffffffffffffffffffffffffffffffff16837f2f8788117e7eff1d82e926ec794901d17c78024a50270940304540a733656f0d60405160405180910390a45b5050565b600081600001549050919050565b6124808282611913565b15612554576000600a600084815260200190815260200160002060000160008373ffffffffffffffffffffffffffffffffffffffff1673ffffffffffffffffffffffffffffffffffffffff16815260200190815260200160002060006101000a81548160ff0219169083151502179055506124f9611eef565b73ffffffffffffffffffffffffffffffffffffffff168173ffffffffffffffffffffffffffffffffffffffff16837ff6391f5c32d9c69d2a47ea670b442974b53935d1edc7fd64eb21e047a839171b60405160405180910390a45b5050565b6001816000016000828254019250508190555050565b612588828260405180602001604052806000815250612a74565b5050565b61259582611e83565b6125d4576040517f08c379a00000000000000000000000000000000000000000000000000000000081526004016125cb9061442c565b60405180910390fd5b80600b600084815260200190815260200160002090805190602001906125fb9291906135d1565b505050565b61260b84848461208e565b61261784848484612acf565b612656576040517f08c379a000000000000000000000000000000000000000000000000000000000815260040161264d9061432c565b60405180910390fd5b50505050565b606061266782611e83565b6126a6576040517f08c379a000000000000000000000000000000000000000000000000000000000815260040161269d906144ac565b60405180910390fd5b6000600b600084815260200190815260200160002080546126c6906148c9565b80601f01602080910402602001604051908101604052809291908181526020018280546126f2906148c9565b801561273f5780601f106127145761010080835404028352916020019161273f565b820191906000526020600020905b81548152906001019060200180831161272257829003601f168201915b505050505090506000612750612c66565b90506000815114156127665781925050506127a9565b60008251111561279b578082604051602001612783929190614105565b604051602081830303815290604052925050506127a9565b6127a484612c7d565b925050505b919050565b60007f780e9d63000000000000000000000000000000000000000000000000000000007bffffffffffffffffffffffffffffffffffffffffffffffffffffffff1916827bffffffffffffffffffffffffffffffffffffffffffffffffffffffff19161480612821575061282082612d24565b5b9050919050565b612833838383612e06565b505050565b60606000600283600261284b9190614751565b61285591906146ca565b67ffffffffffffffff81111561286e5761286d614a91565b5b6040519080825280601f01601f1916602001820160405280156128a05781602001600182028036833780820191505090505b5090507f3000000000000000000000000000000000000000000000000000000000000000816000815181106128d8576128d7614a62565b5b60200101907effffffffffffffffffffffffffffffffffffffffffffffffffffffffffffff1916908160001a9053507f78000000000000000000000000000000000000000000000000000000000000008160018151811061293c5761293b614a62565b5b60200101907effffffffffffffffffffffffffffffffffffffffffffffffffffffffffffff1916908160001a9053506000600184600261297c9190614751565b61298691906146ca565b90505b6001811115612a26577f3031323334353637383961626364656600000000000000000000000000000000600f8616601081106129c8576129c7614a62565b5b1a60f81b8282815181106129df576129de614a62565b5b60200101907effffffffffffffffffffffffffffffffffffffffffffffffffffffffffffff1916908160001a905350600485901c945080612a1f9061489f565b9050612989565b5060008414612a6a576040517f08c379a0000000000000000000000000000000000000000000000000000000008152600401612a61906142ac565b60405180910390fd5b8091505092915050565b612a7e8383612f1a565b612a8b6000848484612acf565b612aca576040517f08c379a0000000000000000000000000000000000000000000000000000000008152600401612ac19061432c565b60405180910390fd5b505050565b6000612af08473ffffffffffffffffffffffffffffffffffffffff166130e8565b15612c59578373ffffffffffffffffffffffffffffffffffffffff1663150b7a02612b19611eef565b8786866040518563ffffffff1660e01b8152600401612b3b949392919061417e565b602060405180830381600087803b158015612b5557600080fd5b505af1925050508015612b8657506040513d601f19601f82011682018060405250810190612b839190613a2f565b60015b612c09573d8060008114612bb6576040519150601f19603f3d011682016040523d82523d6000602084013e612bbb565b606091505b50600081511415612c01576040517f08c379a0000000000000000000000000000000000000000000000000000000008152600401612bf89061432c565b60405180910390fd5b805181602001fd5b63150b7a0260e01b7bffffffffffffffffffffffffffffffffffffffffffffffffffffffff1916817bffffffffffffffffffffffffffffffffffffffffffffffffffffffff191614915050612c5e565b600190505b949350505050565b606060405180602001604052806000815250905090565b6060612c8882611e83565b612cc7576040517f08c379a0000000000000000000000000000000000000000000000000000000008152600401612cbe9061450c565b60405180910390fd5b6000612cd1612c66565b90506000815111612cf15760405180602001604052806000815250612d1c565b80612cfb846130fb565b604051602001612d0c929190614105565b6040516020818303038152906040525b915050919050565b60007f80ac58cd000000000000000000000000000000000000000000000000000000007bffffffffffffffffffffffffffffffffffffffffffffffffffffffff1916827bffffffffffffffffffffffffffffffffffffffffffffffffffffffff19161480612def57507f5b5e139f000000000000000000000000000000000000000000000000000000007bffffffffffffffffffffffffffffffffffffffffffffffffffffffff1916827bffffffffffffffffffffffffffffffffffffffffffffffffffffffff1916145b80612dff5750612dfe8261325c565b5b9050919050565b612e118383836132c6565b600073ffffffffffffffffffffffffffffffffffffffff168373ffffffffffffffffffffffffffffffffffffffff161415612e5457612e4f816132cb565b612e93565b8173ffffffffffffffffffffffffffffffffffffffff168373ffffffffffffffffffffffffffffffffffffffff1614612e9257612e918382613314565b5b5b600073ffffffffffffffffffffffffffffffffffffffff168273ffffffffffffffffffffffffffffffffffffffff161415612ed657612ed181613481565b612f15565b8273ffffffffffffffffffffffffffffffffffffffff168273ffffffffffffffffffffffffffffffffffffffff1614612f1457612f138282613552565b5b5b505050565b600073ffffffffffffffffffffffffffffffffffffffff168273ffffffffffffffffffffffffffffffffffffffff161415612f8a576040517f08c379a0000000000000000000000000000000000000000000000000000000008152600401612f819061446c565b60405180910390fd5b612f9381611e83565b15612fd3576040517f08c379a0000000000000000000000000000000000000000000000000000000008152600401612fca9061434c565b60405180910390fd5b612fdf60008383612828565b6001600360008473ffffffffffffffffffffffffffffffffffffffff1673ffffffffffffffffffffffffffffffffffffffff168152602001908152602001600020600082825461302f91906146ca565b92505081905550816002600083815260200190815260200160002060006101000a81548173ffffffffffffffffffffffffffffffffffffffff021916908373ffffffffffffffffffffffffffffffffffffffff160217905550808273ffffffffffffffffffffffffffffffffffffffff16600073ffffffffffffffffffffffffffffffffffffffff167fddf252ad1be2c89b69c2b068fc378daa952ba7f163c4a11628f55a4df523b3ef60405160405180910390a45050565b600080823b905060008111915050919050565b60606000821415613143576040518060400160405280600181526020017f30000000000000000000000000000000000000000000000000000000000000008152509050613257565b600082905060005b6000821461317557808061315e9061492c565b915050600a8261316e9190614720565b915061314b565b60008167ffffffffffffffff81111561319157613190614a91565b5b6040519080825280601f01601f1916602001820160405280156131c35781602001600182028036833780820191505090505b5090505b60008514613250576001826131dc91906147ab565b9150600a856131eb9190614975565b60306131f791906146ca565b60f81b81838151811061320d5761320c614a62565b5b60200101907effffffffffffffffffffffffffffffffffffffffffffffffffffffffffffff1916908160001a905350600a856132499190614720565b94506131c7565b8093505050505b919050565b60007f01ffc9a7000000000000000000000000000000000000000000000000000000007bffffffffffffffffffffffffffffffffffffffffffffffffffffffff1916827bffffffffffffffffffffffffffffffffffffffffffffffffffffffff1916149050919050565b505050565b6008805490506009600083815260200190815260200160002081905550600881908060018154018082558091505060019003906000526020600020016000909190919091505550565b60006001613321846117ab565b61332b91906147ab565b9050600060076000848152602001908152602001600020549050818114613410576000600660008673ffffffffffffffffffffffffffffffffffffffff1673ffffffffffffffffffffffffffffffffffffffff168152602001908152602001600020600084815260200190815260200160002054905080600660008773ffffffffffffffffffffffffffffffffffffffff1673ffffffffffffffffffffffffffffffffffffffff168152602001908152602001600020600084815260200190815260200160002081905550816007600083815260200190815260200160002081905550505b6007600084815260200190815260200160002060009055600660008573ffffffffffffffffffffffffffffffffffffffff1673ffffffffffffffffffffffffffffffffffffffff16815260200190815260200160002060008381526020019081526020016000206000905550505050565b6000600160088054905061349591906147ab565b90506000600960008481526020019081526020016000205490506000600883815481106134c5576134c4614a62565b5b9060005260206000200154905080600883815481106134e7576134e6614a62565b5b90600052602060002001819055508160096000838152602001908152602001600020819055506009600085815260200190815260200160002060009055600880548061353657613535614a33565b5b6001900381819060005260206000200160009055905550505050565b600061355d836117ab565b905081600660008573ffffffffffffffffffffffffffffffffffffffff1673ffffffffffffffffffffffffffffffffffffffff168152602001908152602001600020600083815260200190815260200160002081905550806007600084815260200190815260200160002081905550505050565b8280546135dd906148c9565b90600052602060002090601f0160209004810192826135ff5760008555613646565b82601f1061361857805160ff1916838001178555613646565b82800160010185558215613646579182015b8281111561364557825182559160200191906001019061362a565b5b5090506136539190613657565b5090565b5b80821115613670576000816000905550600101613658565b5090565b6000613687613682846145ec565b6145c7565b9050828152602081018484840111156136a3576136a2614ac5565b5b6136ae84828561485d565b509392505050565b60006136c96136c48461461d565b6145c7565b9050828152602081018484840111156136e5576136e4614ac5565b5b6136f084828561485d565b509392505050565b600081359050613707816151bb565b92915050565b60008135905061371c816151d2565b92915050565b600081359050613731816151e9565b92915050565b60008135905061374681615200565b92915050565b60008151905061375b81615200565b92915050565b600082601f83011261377657613775614ac0565b5b8135613786848260208601613674565b91505092915050565b600082601f8301126137a4576137a3614ac0565b5b81356137b48482602086016136b6565b91505092915050565b6000813590506137cc81615217565b92915050565b6000602082840312156137e8576137e7614acf565b5b60006137f6848285016136f8565b91505092915050565b6000806040838503121561381657613815614acf565b5b6000613824858286016136f8565b9250506020613835858286016136f8565b9150509250929050565b60008060006060848603121561385857613857614acf565b5b6000613866868287016136f8565b9350506020613877868287016136f8565b9250506040613888868287016137bd565b9150509250925092565b600080600080608085870312156138ac576138ab614acf565b5b60006138ba878288016136f8565b94505060206138cb878288016136f8565b93505060406138dc878288016137bd565b925050606085013567ffffffffffffffff8111156138fd576138fc614aca565b5b61390987828801613761565b91505092959194509250565b6000806040838503121561392c5761392b614acf565b5b600061393a858286016136f8565b925050602061394b8582860161370d565b9150509250929050565b6000806040838503121561396c5761396b614acf565b5b600061397a858286016136f8565b925050602061398b858286016137bd565b9150509250929050565b6000602082840312156139ab576139aa614acf565b5b60006139b984828501613722565b91505092915050565b600080604083850312156139d9576139d8614acf565b5b60006139e785828601613722565b92505060206139f8858286016136f8565b9150509250929050565b600060208284031215613a1857613a17614acf565b5b6000613a2684828501613737565b91505092915050565b600060208284031215613a4557613a44614acf565b5b6000613a538482850161374c565b91505092915050565b60008060008060808587031215613a7657613a75614acf565b5b600085013567ffffffffffffffff811115613a9457613a93614aca565b5b613aa08782880161378f565b945050602085013567ffffffffffffffff811115613ac157613ac0614aca565b5b613acd8782880161378f565b9350506040613ade878288016137bd565b925050606085013567ffffffffffffffff811115613aff57613afe614aca565b5b613b0b8782880161378f565b91505092959194509250565b600060208284031215613b2d57613b2c614acf565b5b6000613b3b848285016137bd565b91505092915050565b600080600080600060a08688031215613b6057613b5f614acf565b5b6000613b6e888289016137bd565b955050602086013567ffffffffffffffff811115613b8f57613b8e614aca565b5b613b9b8882890161378f565b945050604086013567ffffffffffffffff811115613bbc57613bbb614aca565b5b613bc88882890161378f565b9350506060613bd9888289016137bd565b925050608086013567ffffffffffffffff811115613bfa57613bf9614aca565b5b613c068882890161378f565b9150509295509295909350565b6000613c1f83836140e7565b60208301905092915050565b613c34816147df565b82525050565b6000613c458261465e565b613c4f818561468c565b9350613c5a8361464e565b8060005b83811015613c8b578151613c728882613c13565b9750613c7d8361467f565b925050600181019050613c5e565b5085935050505092915050565b613ca1816147f1565b82525050565b613cb0816147fd565b82525050565b6000613cc182614669565b613ccb818561469d565b9350613cdb81856020860161486c565b613ce481614ad4565b840191505092915050565b6000613cfa82614674565b613d0481856146ae565b9350613d1481856020860161486c565b613d1d81614ad4565b840191505092915050565b6000613d3382614674565b613d3d81856146bf565b9350613d4d81856020860161486c565b80840191505092915050565b6000613d666020836146ae565b9150613d7182614ae5565b602082019050919050565b6000613d89602b836146ae565b9150613d9482614b0e565b604082019050919050565b6000613dac6011836146ae565b9150613db782614b5d565b602082019050919050565b6000613dcf6024836146ae565b9150613dda82614b86565b604082019050919050565b6000613df26032836146ae565b9150613dfd82614bd5565b604082019050919050565b6000613e15601c836146ae565b9150613e2082614c24565b602082019050919050565b6000613e386024836146ae565b9150613e4382614c4d565b604082019050919050565b6000613e5b6019836146ae565b9150613e6682614c9c565b602082019050919050565b6000613e7e602c836146ae565b9150613e8982614cc5565b604082019050919050565b6000613ea16038836146ae565b9150613eac82614d14565b604082019050919050565b6000613ec4602a836146ae565b9150613ecf82614d63565b604082019050919050565b6000613ee76029836146ae565b9150613ef282614db2565b604082019050919050565b6000613f0a602e836146ae565b9150613f1582614e01565b604082019050919050565b6000613f2d601c836146ae565b9150613f3882614e50565b602082019050919050565b6000613f506020836146ae565b9150613f5b82614e79565b602082019050919050565b6000613f736021836146ae565b9150613f7e82614ea2565b604082019050919050565b6000613f966031836146ae565b9150613fa182614ef1565b604082019050919050565b6000613fb9602c836146ae565b9150613fc482614f40565b604082019050919050565b6000613fdc6029836146ae565b9150613fe782614f8f565b604082019050919050565b6000613fff602f836146ae565b915061400a82614fde565b604082019050919050565b60006140226021836146ae565b915061402d8261502d565b604082019050919050565b60006140456031836146ae565b91506140508261507c565b604082019050919050565b6000614068602c836146ae565b9150614073826150cb565b604082019050919050565b600061408b6017836146bf565b91506140968261511a565b601782019050919050565b60006140ae6011836146bf565b91506140b982615143565b601182019050919050565b60006140d1602f836146ae565b91506140dc8261516c565b604082019050919050565b6140f081614853565b82525050565b6140ff81614853565b82525050565b60006141118285613d28565b915061411d8284613d28565b91508190509392505050565b60006141348261407e565b91506141408285613d28565b915061414b826140a1565b91506141578284613d28565b91508190509392505050565b60006020820190506141786000830184613c2b565b92915050565b60006080820190506141936000830187613c2b565b6141a06020830186613c2b565b6141ad60408301856140f6565b81810360608301526141bf8184613cb6565b905095945050505050565b600060208201905081810360008301526141e48184613c3a565b905092915050565b60006020820190506142016000830184613c98565b92915050565b600060208201905061421c6000830184613ca7565b92915050565b6000602082019050818103600083015261423c8184613cef565b905092915050565b600060a082019050818103600083015261425e8188613cef565b905081810360208301526142728187613cef565b905081810360408301526142868186613cef565b90506142956060830185613c2b565b6142a260808301846140f6565b9695505050505050565b600060208201905081810360008301526142c581613d59565b9050919050565b600060208201905081810360008301526142e581613d7c565b9050919050565b6000602082019050818103600083015261430581613d9f565b9050919050565b6000602082019050818103600083015261432581613dc2565b9050919050565b6000602082019050818103600083015261434581613de5565b9050919050565b6000602082019050818103600083015261436581613e08565b9050919050565b6000602082019050818103600083015261438581613e2b565b9050919050565b600060208201905081810360008301526143a581613e4e565b9050919050565b600060208201905081810360008301526143c581613e71565b9050919050565b600060208201905081810360008301526143e581613e94565b9050919050565b6000602082019050818103600083015261440581613eb7565b9050919050565b6000602082019050818103600083015261442581613eda565b9050919050565b6000602082019050818103600083015261444581613efd565b9050919050565b6000602082019050818103600083015261446581613f20565b9050919050565b6000602082019050818103600083015261448581613f43565b9050919050565b600060208201905081810360008301526144a581613f66565b9050919050565b600060208201905081810360008301526144c581613f89565b9050919050565b600060208201905081810360008301526144e581613fac565b9050919050565b6000602082019050818103600083015261450581613fcf565b9050919050565b6000602082019050818103600083015261452581613ff2565b9050919050565b6000602082019050818103600083015261454581614015565b9050919050565b6000602082019050818103600083015261456581614038565b9050919050565b600060208201905081810360008301526145858161405b565b9050919050565b600060208201905081810360008301526145a5816140c4565b9050919050565b60006020820190506145c160008301846140f6565b92915050565b60006145d16145e2565b90506145dd82826148fb565b919050565b6000604051905090565b600067ffffffffffffffff82111561460757614606614a91565b5b61461082614ad4565b9050602081019050919050565b600067ffffffffffffffff82111561463857614637614a91565b5b61464182614ad4565b9050602081019050919050565b6000819050602082019050919050565b600081519050919050565b600081519050919050565b600081519050919050565b6000602082019050919050565b600082825260208201905092915050565b600082825260208201905092915050565b600082825260208201905092915050565b600081905092915050565b60006146d582614853565b91506146e083614853565b9250827fffffffffffffffffffffffffffffffffffffffffffffffffffffffffffffffff03821115614715576147146149a6565b5b828201905092915050565b600061472b82614853565b915061473683614853565b925082614746576147456149d5565b5b828204905092915050565b600061475c82614853565b915061476783614853565b9250817fffffffffffffffffffffffffffffffffffffffffffffffffffffffffffffffff04831182151516156147a05761479f6149a6565b5b828202905092915050565b60006147b682614853565b91506147c183614853565b9250828210156147d4576147d36149a6565b5b828203905092915050565b60006147ea82614833565b9050919050565b60008115159050919050565b6000819050919050565b60007fffffffff0000000000000000000000000000000000000000000000000000000082169050919050565b600073ffffffffffffffffffffffffffffffffffffffff82169050919050565b6000819050919050565b82818337600083830152505050565b60005b8381101561488a57808201518184015260208101905061486f565b83811115614899576000848401525b50505050565b60006148aa82614853565b915060008214156148be576148bd6149a6565b5b600182039050919050565b600060028204905060018216806148e157607f821691505b602082108114156148f5576148f4614a04565b5b50919050565b61490482614ad4565b810181811067ffffffffffffffff8211171561492357614922614a91565b5b80604052505050565b600061493782614853565b91507fffffffffffffffffffffffffffffffffffffffffffffffffffffffffffffffff82141561496a576149696149a6565b5b600182019050919050565b600061498082614853565b915061498b83614853565b92508261499b5761499a6149d5565b5b828206905092915050565b7f4e487b7100000000000000000000000000000000000000000000000000000000600052601160045260246000fd5b7f4e487b7100000000000000000000000000000000000000000000000000000000600052601260045260246000fd5b7f4e487b7100000000000000000000000000000000000000000000000000000000600052602260045260246000fd5b7f4e487b7100000000000000000000000000000000000000000000000000000000600052603160045260246000fd5b7f4e487b7100000000000000000000000000000000000000000000000000000000600052603260045260246000fd5b7f4e487b7100000000000000000000000000000000000000000000000000000000600052604160045260246000fd5b600080fd5b600080fd5b600080fd5b600080fd5b6000601f19601f8301169050919050565b7f537472696e67733a20686578206c656e67746820696e73756666696369656e74600082015250565b7f455243373231456e756d657261626c653a206f776e657220696e646578206f7560008201527f74206f6620626f756e6473000000000000000000000000000000000000000000602082015250565b7f417070204944206d757374206578697374000000000000000000000000000000600082015250565b7f4d757374206265206120646576656c6f70657220746f2063726561746520616e60008201527f2061707000000000000000000000000000000000000000000000000000000000602082015250565b7f4552433732313a207472616e7366657220746f206e6f6e20455243373231526560008201527f63656976657220696d706c656d656e7465720000000000000000000000000000602082015250565b7f4552433732313a20746f6b656e20616c7265616479206d696e74656400000000600082015250565b7f4552433732313a207472616e7366657220746f20746865207a65726f2061646460008201527f7265737300000000000000000000000000000000000000000000000000000000602082015250565b7f4552433732313a20617070726f766520746f2063616c6c657200000000000000600082015250565b7f4552433732313a206f70657261746f7220717565727920666f72206e6f6e657860008201527f697374656e7420746f6b656e0000000000000000000000000000000000000000602082015250565b7f4552433732313a20617070726f76652063616c6c6572206973206e6f74206f7760008201527f6e6572206e6f7220617070726f76656420666f7220616c6c0000000000000000602082015250565b7f4552433732313a2062616c616e636520717565727920666f7220746865207a6560008201527f726f206164647265737300000000000000000000000000000000000000000000602082015250565b7f4552433732313a206f776e657220717565727920666f72206e6f6e657869737460008201527f656e7420746f6b656e0000000000000000000000000000000000000000000000602082015250565b7f45524337323155524953746f726167653a2055524920736574206f66206e6f6e60008201527f6578697374656e7420746f6b656e000000000000000000000000000000000000602082015250565b7f4d75737420626520616e2061646d696e20746f20776974686472617700000000600082015250565b7f4552433732313a206d696e7420746f20746865207a65726f2061646472657373600082015250565b7f596f75206d75737420626520746865206f776e6572206f66207468697320617060008201527f7000000000000000000000000000000000000000000000000000000000000000602082015250565b7f45524337323155524953746f726167653a2055524920717565727920666f722060008201527f6e6f6e6578697374656e7420746f6b656e000000000000000000000000000000602082015250565b7f4552433732313a20617070726f76656420717565727920666f72206e6f6e657860008201527f697374656e7420746f6b656e0000000000000000000000000000000000000000602082015250565b7f4552433732313a207472616e73666572206f6620746f6b656e2074686174206960008201527f73206e6f74206f776e0000000000000000000000000000000000000000000000602082015250565b7f4552433732314d657461646174613a2055524920717565727920666f72206e6f60008201527f6e6578697374656e7420746f6b656e0000000000000000000000000000000000602082015250565b7f4552433732313a20617070726f76616c20746f2063757272656e74206f776e6560008201527f7200000000000000000000000000000000000000000000000000000000000000602082015250565b7f4552433732313a207472616e736665722063616c6c6572206973206e6f74206f60008201527f776e6572206e6f7220617070726f766564000000000000000000000000000000602082015250565b7f455243373231456e756d657261626c653a20676c6f62616c20696e646578206f60008201527f7574206f6620626f756e64730000000000000000000000000000000000000000602082015250565b7f416363657373436f6e74726f6c3a206163636f756e7420000000000000000000600082015250565b7f206973206d697373696e6720726f6c6520000000000000000000000000000000600082015250565b7f416363657373436f6e74726f6c3a2063616e206f6e6c792072656e6f756e636560008201527f20726f6c657320666f722073656c660000000000000000000000000000000000602082015250565b6151c4816147df565b81146151cf57600080fd5b50565b6151db816147f1565b81146151e657600080fd5b50565b6151f2816147fd565b81146151fd57600080fd5b50565b61520981614807565b811461521457600080fd5b50565b61522081614853565b811461522b57600080fd5b5056fea26469706673582212204dc565da347fd862401c390f8e07d91847596ae4704970e18930909282f8701b64736f6c63430008060033",
  "linkReferences": {},
  "deployedLinkReferences": {}
}