{
  "_format": "hh-sol-artifact-1",
  "contractName": "Byoa",
  "sourceName": "contracts/byoa.sol",
  "abi": [
    {
      "inputs": [],
      "stateMutability": "nonpayable",
      "type": "constructor"
    },
    {
      "anonymous": false,
      "inputs": [
        {
          "indexed": true,
          "internalType": "address",
          "name": "owner",
          "type": "address"
        },
        {
          "indexed": true,
          "internalType": "address",
          "name": "approved",
          "type": "address"
        },
        {
          "indexed": true,
          "internalType": "uint256",
          "name": "tokenId",
          "type": "uint256"
        }
      ],
      "name": "Approval",
      "type": "event"
    },
    {
      "anonymous": false,
      "inputs": [
        {
          "indexed": true,
          "internalType": "address",
          "name": "owner",
          "type": "address"
        },
        {
          "indexed": true,
          "internalType": "address",
          "name": "operator",
          "type": "address"
        },
        {
          "indexed": false,
          "internalType": "bool",
          "name": "approved",
          "type": "bool"
        }
      ],
      "name": "ApprovalForAll",
      "type": "event"
    },
    {
      "anonymous": false,
      "inputs": [
        {
          "indexed": true,
          "internalType": "bytes32",
          "name": "role",
          "type": "bytes32"
        },
        {
          "indexed": true,
          "internalType": "bytes32",
          "name": "previousAdminRole",
          "type": "bytes32"
        },
        {
          "indexed": true,
          "internalType": "bytes32",
          "name": "newAdminRole",
          "type": "bytes32"
        }
      ],
      "name": "RoleAdminChanged",
      "type": "event"
    },
    {
      "anonymous": false,
      "inputs": [
        {
          "indexed": true,
          "internalType": "bytes32",
          "name": "role",
          "type": "bytes32"
        },
        {
          "indexed": true,
          "internalType": "address",
          "name": "account",
          "type": "address"
        },
        {
          "indexed": true,
          "internalType": "address",
          "name": "sender",
          "type": "address"
        }
      ],
      "name": "RoleGranted",
      "type": "event"
    },
    {
      "anonymous": false,
      "inputs": [
        {
          "indexed": true,
          "internalType": "bytes32",
          "name": "role",
          "type": "bytes32"
        },
        {
          "indexed": true,
          "internalType": "address",
          "name": "account",
          "type": "address"
        },
        {
          "indexed": true,
          "internalType": "address",
          "name": "sender",
          "type": "address"
        }
      ],
      "name": "RoleRevoked",
      "type": "event"
    },
    {
      "anonymous": false,
      "inputs": [
        {
          "indexed": true,
          "internalType": "address",
          "name": "from",
          "type": "address"
        },
        {
          "indexed": true,
          "internalType": "address",
          "name": "to",
          "type": "address"
        },
        {
          "indexed": true,
          "internalType": "uint256",
          "name": "tokenId",
          "type": "uint256"
        }
      ],
      "name": "Transfer",
      "type": "event"
    },
    {
      "inputs": [],
      "name": "DEFAULT_ADMIN_ROLE",
      "outputs": [
        {
          "internalType": "bytes32",
          "name": "",
          "type": "bytes32"
        }
      ],
      "stateMutability": "view",
      "type": "function"
    },
    {
      "inputs": [],
      "name": "DEVELOPER_ROLE",
      "outputs": [
        {
          "internalType": "bytes32",
          "name": "",
          "type": "bytes32"
        }
      ],
      "stateMutability": "view",
      "type": "function"
    },
    {
      "inputs": [
        {
          "internalType": "address",
          "name": "to",
          "type": "address"
        },
        {
          "internalType": "uint256",
          "name": "tokenId",
          "type": "uint256"
        }
      ],
      "name": "approve",
      "outputs": [],
      "stateMutability": "nonpayable",
      "type": "function"
    },
    {
      "inputs": [
        {
          "internalType": "address",
          "name": "owner",
          "type": "address"
        }
      ],
      "name": "balanceOf",
      "outputs": [
        {
          "internalType": "uint256",
          "name": "",
          "type": "uint256"
        }
      ],
      "stateMutability": "view",
      "type": "function"
    },
    {
      "inputs": [
        {
          "internalType": "string",
          "name": "a",
          "type": "string"
        },
        {
          "internalType": "string",
          "name": "b",
          "type": "string"
        }
      ],
      "name": "compareStrings",
      "outputs": [
        {
          "internalType": "bool",
          "name": "",
          "type": "bool"
        }
      ],
      "stateMutability": "view",
      "type": "function"
    },
    {
      "inputs": [
        {
          "internalType": "string",
          "name": "name",
          "type": "string"
        },
        {
          "internalType": "string",
          "name": "description",
          "type": "string"
        },
        {
          "internalType": "uint256",
          "name": "price",
          "type": "uint256"
        },
        {
          "internalType": "string",
          "name": "_tokenURI",
          "type": "string"
        }
      ],
      "name": "createApp",
      "outputs": [
        {
          "internalType": "uint256",
          "name": "",
          "type": "uint256"
        }
      ],
      "stateMutability": "nonpayable",
      "type": "function"
    },
    {
      "inputs": [
        {
          "internalType": "uint256",
          "name": "appId",
          "type": "uint256"
        }
      ],
      "name": "getAppDetailsById",
      "outputs": [
        {
          "internalType": "string",
          "name": "name",
          "type": "string"
        },
        {
          "internalType": "string",
          "name": "description",
          "type": "string"
        },
        {
          "internalType": "string",
          "name": "_tokenURI",
          "type": "string"
        },
        {
          "internalType": "address",
          "name": "owner",
          "type": "address"
        },
        {
          "internalType": "uint256",
          "name": "price",
          "type": "uint256"
        }
      ],
      "stateMutability": "view",
      "type": "function"
    },
    {
      "inputs": [
        {
          "internalType": "uint256",
          "name": "_tokenId",
          "type": "uint256"
        }
      ],
      "name": "getAppIdByTokenId",
      "outputs": [
        {
          "internalType": "uint256",
          "name": "",
          "type": "uint256"
        }
      ],
      "stateMutability": "view",
      "type": "function"
    },
    {
      "inputs": [],
      "name": "getAppIds",
      "outputs": [
        {
          "internalType": "uint256[]",
          "name": "",
          "type": "uint256[]"
        }
      ],
      "stateMutability": "view",
      "type": "function"
    },
    {
      "inputs": [
        {
          "internalType": "uint256",
          "name": "tokenId",
          "type": "uint256"
        }
      ],
      "name": "getApproved",
      "outputs": [
        {
          "internalType": "address",
          "name": "",
          "type": "address"
        }
      ],
      "stateMutability": "view",
      "type": "function"
    },
    {
      "inputs": [
        {
          "internalType": "uint256",
          "name": "_tokenId",
          "type": "uint256"
        },
        {
          "internalType": "string",
          "name": "key",
          "type": "string"
        }
      ],
      "name": "getPreferenceByKey",
      "outputs": [
        {
          "internalType": "string",
          "name": "",
          "type": "string"
        }
      ],
      "stateMutability": "view",
      "type": "function"
    },
    {
      "inputs": [
        {
          "internalType": "uint256",
          "name": "_tokenId",
          "type": "uint256"
        }
      ],
      "name": "getPreferencesKeys",
      "outputs": [
        {
          "internalType": "string[]",
          "name": "",
          "type": "string[]"
        }
      ],
      "stateMutability": "view",
      "type": "function"
    },
    {
      "inputs": [
        {
          "internalType": "bytes32",
          "name": "role",
          "type": "bytes32"
        }
      ],
      "name": "getRoleAdmin",
      "outputs": [
        {
          "internalType": "bytes32",
          "name": "",
          "type": "bytes32"
        }
      ],
      "stateMutability": "view",
      "type": "function"
    },
    {
      "inputs": [
        {
          "internalType": "bytes32",
          "name": "role",
          "type": "bytes32"
        },
        {
          "internalType": "address",
          "name": "account",
          "type": "address"
        }
      ],
      "name": "grantRole",
      "outputs": [],
      "stateMutability": "nonpayable",
      "type": "function"
    },
    {
      "inputs": [
        {
          "internalType": "bytes32",
          "name": "role",
          "type": "bytes32"
        },
        {
          "internalType": "address",
          "name": "account",
          "type": "address"
        }
      ],
      "name": "hasRole",
      "outputs": [
        {
          "internalType": "bool",
          "name": "",
          "type": "bool"
        }
      ],
      "stateMutability": "view",
      "type": "function"
    },
    {
      "inputs": [
        {
          "internalType": "address",
          "name": "owner",
          "type": "address"
        },
        {
          "internalType": "address",
          "name": "operator",
          "type": "address"
        }
      ],
      "name": "isApprovedForAll",
      "outputs": [
        {
          "internalType": "bool",
          "name": "",
          "type": "bool"
        }
      ],
      "stateMutability": "view",
      "type": "function"
    },
    {
      "inputs": [
        {
          "internalType": "uint256",
          "name": "_appId",
          "type": "uint256"
        }
      ],
      "name": "mint",
      "outputs": [],
      "stateMutability": "payable",
      "type": "function"
    },
    {
      "inputs": [],
      "name": "name",
      "outputs": [
        {
          "internalType": "string",
          "name": "",
          "type": "string"
        }
      ],
      "stateMutability": "view",
      "type": "function"
    },
    {
      "inputs": [
        {
          "internalType": "uint256",
          "name": "tokenId",
          "type": "uint256"
        }
      ],
      "name": "ownerOf",
      "outputs": [
        {
          "internalType": "address",
          "name": "",
          "type": "address"
        }
      ],
      "stateMutability": "view",
      "type": "function"
    },
    {
      "inputs": [
        {
          "internalType": "bytes32",
          "name": "role",
          "type": "bytes32"
        },
        {
          "internalType": "address",
          "name": "account",
          "type": "address"
        }
      ],
      "name": "renounceRole",
      "outputs": [],
      "stateMutability": "nonpayable",
      "type": "function"
    },
    {
      "inputs": [
        {
          "internalType": "bytes32",
          "name": "role",
          "type": "bytes32"
        },
        {
          "internalType": "address",
          "name": "account",
          "type": "address"
        }
      ],
      "name": "revokeRole",
      "outputs": [],
      "stateMutability": "nonpayable",
      "type": "function"
    },
    {
      "inputs": [
        {
          "internalType": "address",
          "name": "from",
          "type": "address"
        },
        {
          "internalType": "address",
          "name": "to",
          "type": "address"
        },
        {
          "internalType": "uint256",
          "name": "tokenId",
          "type": "uint256"
        }
      ],
      "name": "safeTransferFrom",
      "outputs": [],
      "stateMutability": "nonpayable",
      "type": "function"
    },
    {
      "inputs": [
        {
          "internalType": "address",
          "name": "from",
          "type": "address"
        },
        {
          "internalType": "address",
          "name": "to",
          "type": "address"
        },
        {
          "internalType": "uint256",
          "name": "tokenId",
          "type": "uint256"
        },
        {
          "internalType": "bytes",
          "name": "_data",
          "type": "bytes"
        }
      ],
      "name": "safeTransferFrom",
      "outputs": [],
      "stateMutability": "nonpayable",
      "type": "function"
    },
    {
      "inputs": [
        {
          "internalType": "address",
          "name": "operator",
          "type": "address"
        },
        {
          "internalType": "bool",
          "name": "approved",
          "type": "bool"
        }
      ],
      "name": "setApprovalForAll",
      "outputs": [],
      "stateMutability": "nonpayable",
      "type": "function"
    },
    {
      "inputs": [
        {
          "internalType": "bytes4",
          "name": "interfaceId",
          "type": "bytes4"
        }
      ],
      "name": "supportsInterface",
      "outputs": [
        {
          "internalType": "bool",
          "name": "",
          "type": "bool"
        }
      ],
      "stateMutability": "view",
      "type": "function"
    },
    {
      "inputs": [],
      "name": "symbol",
      "outputs": [
        {
          "internalType": "string",
          "name": "",
          "type": "string"
        }
      ],
      "stateMutability": "view",
      "type": "function"
    },
    {
      "inputs": [
        {
          "internalType": "uint256",
          "name": "index",
          "type": "uint256"
        }
      ],
      "name": "tokenByIndex",
      "outputs": [
        {
          "internalType": "uint256",
          "name": "",
          "type": "uint256"
        }
      ],
      "stateMutability": "view",
      "type": "function"
    },
    {
      "inputs": [
        {
          "internalType": "address",
          "name": "owner",
          "type": "address"
        },
        {
          "internalType": "uint256",
          "name": "index",
          "type": "uint256"
        }
      ],
      "name": "tokenOfOwnerByIndex",
      "outputs": [
        {
          "internalType": "uint256",
          "name": "",
          "type": "uint256"
        }
      ],
      "stateMutability": "view",
      "type": "function"
    },
    {
      "inputs": [
        {
          "internalType": "uint256",
          "name": "tokenId",
          "type": "uint256"
        }
      ],
      "name": "tokenURI",
      "outputs": [
        {
          "internalType": "string",
          "name": "",
          "type": "string"
        }
      ],
      "stateMutability": "view",
      "type": "function"
    },
    {
      "inputs": [],
      "name": "totalSupply",
      "outputs": [
        {
          "internalType": "uint256",
          "name": "",
          "type": "uint256"
        }
      ],
      "stateMutability": "view",
      "type": "function"
    },
    {
      "inputs": [
        {
          "internalType": "address",
          "name": "from",
          "type": "address"
        },
        {
          "internalType": "address",
          "name": "to",
          "type": "address"
        },
        {
          "internalType": "uint256",
          "name": "tokenId",
          "type": "uint256"
        }
      ],
      "name": "transferFrom",
      "outputs": [],
      "stateMutability": "nonpayable",
      "type": "function"
    },
    {
      "inputs": [
        {
          "internalType": "uint256",
          "name": "appId",
          "type": "uint256"
        },
        {
          "internalType": "string",
          "name": "name",
          "type": "string"
        },
        {
          "internalType": "string",
          "name": "description",
          "type": "string"
        },
        {
          "internalType": "uint256",
          "name": "price",
          "type": "uint256"
        },
        {
          "internalType": "string",
          "name": "_tokenURI",
          "type": "string"
        }
      ],
      "name": "updateApp",
      "outputs": [
        {
          "internalType": "uint256",
          "name": "",
          "type": "uint256"
        }
      ],
      "stateMutability": "nonpayable",
      "type": "function"
    },
    {
      "inputs": [
        {
          "internalType": "uint256",
          "name": "_tokenID",
          "type": "uint256"
        },
        {
          "internalType": "string",
          "name": "key",
          "type": "string"
        },
        {
          "internalType": "string",
          "name": "value",
          "type": "string"
        }
      ],
      "name": "updatePreferences",
      "outputs": [],
      "stateMutability": "nonpayable",
      "type": "function"
    },
    {
      "inputs": [
        {
          "internalType": "address",
          "name": "_owner",
          "type": "address"
        }
      ],
      "name": "walletOfOwner",
      "outputs": [
        {
          "internalType": "uint256[]",
          "name": "",
          "type": "uint256[]"
        }
      ],
      "stateMutability": "view",
      "type": "function"
    },
    {
      "inputs": [],
      "name": "withdrawAll",
      "outputs": [],
      "stateMutability": "payable",
      "type": "function"
    }
  ],
  "bytecode": "0x6080604052668e1bc9bf040000600d553480156200001c57600080fd5b506040518060400160405280600781526020017f42796f61205631000000000000000000000000000000000000000000000000008152506040518060400160405280600781526020017f42594f415f5631000000000000000000000000000000000000000000000000008152508160009080519060200190620000a192919062000253565b508060019080519060200190620000ba92919062000253565b505050620000d26000801b33620000d860201b60201c565b62000368565b620000ea8282620000ee60201b60201c565b5050565b620001008282620001e060201b60201c565b620001dc576001600a600084815260200190815260200160002060000160008373ffffffffffffffffffffffffffffffffffffffff1673ffffffffffffffffffffffffffffffffffffffff16815260200190815260200160002060006101000a81548160ff021916908315150217905550620001816200024b60201b60201c565b73ffffffffffffffffffffffffffffffffffffffff168173ffffffffffffffffffffffffffffffffffffffff16837f2f8788117e7eff1d82e926ec794901d17c78024a50270940304540a733656f0d60405160405180910390a45b5050565b6000600a600084815260200190815260200160002060000160008373ffffffffffffffffffffffffffffffffffffffff1673ffffffffffffffffffffffffffffffffffffffff16815260200190815260200160002060009054906101000a900460ff16905092915050565b600033905090565b828054620002619062000303565b90600052602060002090601f016020900481019282620002855760008555620002d1565b82601f10620002a057805160ff1916838001178555620002d1565b82800160010185558215620002d1579182015b82811115620002d0578251825591602001919060010190620002b3565b5b509050620002e09190620002e4565b5090565b5b80821115620002ff576000816000905550600101620002e5565b5090565b600060028204905060018216806200031c57607f821691505b6020821081141562000333576200033262000339565b5b50919050565b7f4e487b7100000000000000000000000000000000000000000000000000000000600052602260045260246000fd5b615d5480620003786000396000f3fe6080604052600436106102045760003560e01c80634f6ccce711610118578063a0712d68116100a0578063bed34bba1161006f578063bed34bba146107d3578063c87b56dd14610810578063d547741f1461084d578063e985e9c514610876578063f26b2bc0146108b357610204565b8063a0712d681461073a578063a217fddf14610756578063a22cb46514610781578063b88d4fde146107aa57610204565b8063853828b6116100e7578063853828b6146106605780639103a0e01461066a5780639118f31a1461069557806391d14854146106d257806395d89b411461070f57610204565b80634f6ccce71461056c578063623450cc146105a95780636352211e146105e657806370a082311461062357610204565b80632f2ff15d1161019b57806342842e0e1161016a57806342842e0e1461044b578063438b630014610474578063458f9cfb146104b1578063471c1ea9146104f25780634b42a0f81461052f57610204565b80632f2ff15d146103915780632f745c59146103ba57806333f717fe146103f757806336568abe1461042257610204565b806318160ddd116101d757806318160ddd146102d75780631c3be41e1461030257806323b872dd1461032b578063248a9ca31461035457610204565b806301ffc9a71461020957806306fdde0314610246578063081812fc14610271578063095ea7b3146102ae575b600080fd5b34801561021557600080fd5b50610230600480360381019061022b91906140be565b6108f0565b60405161023d9190614b6b565b60405180910390f35b34801561025257600080fd5b5061025b610902565b6040516102689190614ba1565b60405180910390f35b34801561027d57600080fd5b506102986004803603810190610293919061424b565b610994565b6040516102a59190614ac0565b60405180910390f35b3480156102ba57600080fd5b506102d560048036038101906102d09190614011565b610a19565b005b3480156102e357600080fd5b506102ec610b31565b6040516102f99190614f8b565b60405180910390f35b34801561030e57600080fd5b50610329600480360381019061032491906142d4565b610b3e565b005b34801561033757600080fd5b50610352600480360381019061034d9190613efb565b610dcb565b005b34801561036057600080fd5b5061037b60048036038101906103769190614051565b610e2b565b6040516103889190614b86565b60405180910390f35b34801561039d57600080fd5b506103b860048036038101906103b3919061407e565b610e4b565b005b3480156103c657600080fd5b506103e160048036038101906103dc9190614011565b610e74565b6040516103ee9190614f8b565b60405180910390f35b34801561040357600080fd5b5061040c610f19565b6040516104199190614b49565b60405180910390f35b34801561042e57600080fd5b506104496004803603810190610444919061407e565b610fcf565b005b34801561045757600080fd5b50610472600480360381019061046d9190613efb565b611052565b005b34801561048057600080fd5b5061049b60048036038101906104969190613e8e565b611072565b6040516104a89190614b49565b60405180910390f35b3480156104bd57600080fd5b506104d860048036038101906104d3919061424b565b61117c565b6040516104e9959493929190614bc3565b60405180910390f35b3480156104fe57600080fd5b506105196004803603810190610514919061435f565b61144d565b6040516105269190614f8b565b60405180910390f35b34801561053b57600080fd5b5061055660048036038101906105519190614190565b6118de565b6040516105639190614f8b565b60405180910390f35b34801561057857600080fd5b50610593600480360381019061058e919061424b565b611a78565b6040516105a09190614f8b565b60405180910390f35b3480156105b557600080fd5b506105d060048036038101906105cb919061424b565b611ae9565b6040516105dd9190614b27565b60405180910390f35b3480156105f257600080fd5b5061060d6004803603810190610608919061424b565b611c1d565b60405161061a9190614ac0565b60405180910390f35b34801561062f57600080fd5b5061064a60048036038101906106459190613e8e565b611ccf565b6040516106579190614f8b565b60405180910390f35b610668611d87565b005b34801561067657600080fd5b5061067f611e13565b60405161068c9190614b86565b60405180910390f35b3480156106a157600080fd5b506106bc60048036038101906106b7919061424b565b611e37565b6040516106c99190614f8b565b60405180910390f35b3480156106de57600080fd5b506106f960048036038101906106f4919061407e565b611e54565b6040516107069190614b6b565b60405180910390f35b34801561071b57600080fd5b50610724611ebf565b6040516107319190614ba1565b60405180910390f35b610754600480360381019061074f919061424b565b611f51565b005b34801561076257600080fd5b5061076b6120a9565b6040516107789190614b86565b60405180910390f35b34801561078d57600080fd5b506107a860048036038101906107a39190613fd1565b6120b0565b005b3480156107b657600080fd5b506107d160048036038101906107cc9190613f4e565b612231565b005b3480156107df57600080fd5b506107fa60048036038101906107f59190614118565b612293565b6040516108079190614b6b565b60405180910390f35b34801561081c57600080fd5b506108376004803603810190610832919061424b565b6122ec565b6040516108449190614ba1565b60405180910390f35b34801561085957600080fd5b50610874600480360381019061086f919061407e565b6122fe565b005b34801561088257600080fd5b5061089d60048036038101906108989190613ebb565b612327565b6040516108aa9190614b6b565b60405180910390f35b3480156108bf57600080fd5b506108da60048036038101906108d59190614278565b6123bb565b6040516108e79190614ba1565b60405180910390f35b60006108fb826124c5565b9050919050565b606060008054610911906152f2565b80601f016020809104026020016040519081016040528092919081815260200182805461093d906152f2565b801561098a5780601f1061095f5761010080835404028352916020019161098a565b820191906000526020600020905b81548152906001019060200180831161096d57829003601f168201915b5050505050905090565b600061099f8261253f565b6109de576040517f08c379a00000000000000000000000000000000000000000000000000000000081526004016109d590614eab565b60405180910390fd5b6004600083815260200190815260200160002060009054906101000a900473ffffffffffffffffffffffffffffffffffffffff169050919050565b6000610a2482611c1d565b90508073ffffffffffffffffffffffffffffffffffffffff168373ffffffffffffffffffffffffffffffffffffffff161415610a95576040517f08c379a0000000000000000000000000000000000000000000000000000000008152600401610a8c90614f0b565b60405180910390fd5b8073ffffffffffffffffffffffffffffffffffffffff16610ab46125ab565b73ffffffffffffffffffffffffffffffffffffffff161480610ae35750610ae281610add6125ab565b612327565b5b610b22576040517f08c379a0000000000000000000000000000000000000000000000000000000008152600401610b1990614d8b565b60405180910390fd5b610b2c83836125b3565b505050565b6000600880549050905090565b610b478361253f565b610b86576040517f08c379a0000000000000000000000000000000000000000000000000000000008152600401610b7d90614e4b565b60405180910390fd5b3373ffffffffffffffffffffffffffffffffffffffff16610ba684611c1d565b73ffffffffffffffffffffffffffffffffffffffff1614610bfc576040517f08c379a0000000000000000000000000000000000000000000000000000000008152600401610bf390614d0b565b60405180910390fd5b806010600085815260200190815260200160002083604051610c1e9190614a4b565b90815260200160405180910390209080519060200190610c3f929190613c8d565b50600060116000858152602001908152602001600020805480602002602001604051908101604052809291908181526020016000905b82821015610d21578382906000526020600020018054610c94906152f2565b80601f0160208091040260200160405190810160405280929190818152602001828054610cc0906152f2565b8015610d0d5780601f10610ce257610100808354040283529160200191610d0d565b820191906000526020600020905b815481529060010190602001808311610cf057829003601f168201915b505050505081526020019060010190610c75565b50505050905060005b8151811015610d7657610d57828281518110610d4957610d4861548b565b5b602002602001015185612293565b15610d63575050610dc6565b8080610d6e90615355565b915050610d2a565b506011600085815260200190815260200160002083908060018154018082558091505060019003906000526020600020016000909190919091509080519060200190610dc3929190613c8d565b50505b505050565b610ddc610dd66125ab565b8261266c565b610e1b576040517f08c379a0000000000000000000000000000000000000000000000000000000008152600401610e1290614f2b565b60405180910390fd5b610e2683838361274a565b505050565b6000600a6000838152602001908152602001600020600101549050919050565b610e5482610e2b565b610e6581610e606125ab565b6129a6565b610e6f8383612a43565b505050565b6000610e7f83611ccf565b8210610ec0576040517f08c379a0000000000000000000000000000000000000000000000000000000008152600401610eb790614c6b565b60405180910390fd5b600660008473ffffffffffffffffffffffffffffffffffffffff1673ffffffffffffffffffffffffffffffffffffffff168152602001908152602001600020600083815260200190815260200160002054905092915050565b60606000610f27600c612b24565b67ffffffffffffffff811115610f4057610f3f6154ba565b5b604051908082528060200260200182016040528015610f6e5781602001602082028036833780820191505090505b5090506000600190505b610f82600c612b24565b8111610fc7578082600183610f9791906151d4565b81518110610fa857610fa761548b565b5b6020026020010181815250508080610fbf90615355565b915050610f78565b508091505090565b610fd76125ab565b73ffffffffffffffffffffffffffffffffffffffff168173ffffffffffffffffffffffffffffffffffffffff1614611044576040517f08c379a000000000000000000000000000000000000000000000000000000000815260040161103b90614f6b565b60405180910390fd5b61104e8282612b32565b5050565b61106d83838360405180602001604052806000815250612231565b505050565b6060600061107f83611ccf565b905060008114156110dc57600067ffffffffffffffff8111156110a5576110a46154ba565b5b6040519080825280602002602001820160405280156110d35781602001602082028036833780820191505090505b50915050611177565b60008167ffffffffffffffff8111156110f8576110f76154ba565b5b6040519080825280602002602001820160405280156111265781602001602082028036833780820191505090505b50905060005b828110156111705761113e8582610e74565b8282815181106111515761115061548b565b5b602002602001018181525050808061116890615355565b91505061112c565b5080925050505b919050565b60608060606000806000600e60008881526020019081526020016000206000015414156111de576040517f08c379a00000000000000000000000000000000000000000000000000000000081526004016111d590614c8b565b60405180910390fd5b6000600e60008881526020019081526020016000206040518060c001604052908160008201548152602001600182018054611218906152f2565b80601f0160208091040260200160405190810160405280929190818152602001828054611244906152f2565b80156112915780601f1061126657610100808354040283529160200191611291565b820191906000526020600020905b81548152906001019060200180831161127457829003601f168201915b505050505081526020016002820180546112aa906152f2565b80601f01602080910402602001604051908101604052809291908181526020018280546112d6906152f2565b80156113235780601f106112f857610100808354040283529160200191611323565b820191906000526020600020905b81548152906001019060200180831161130657829003601f168201915b5050505050815260200160038201548152602001600482018054611346906152f2565b80601f0160208091040260200160405190810160405280929190818152602001828054611372906152f2565b80156113bf5780601f10611394576101008083540402835291602001916113bf565b820191906000526020600020905b8154815290600101906020018083116113a257829003601f168201915b505050505081526020016005820160009054906101000a900473ffffffffffffffffffffffffffffffffffffffff1673ffffffffffffffffffffffffffffffffffffffff1673ffffffffffffffffffffffffffffffffffffffff168152505090508060200151816040015182608001518360a001518460600151955095509550955095505091939590929450565b60006114797f4504b9dfd7400a1522f49a8b4a100552da9236849581fd59b7363eb48c6a474c33611e54565b6114b8576040517f08c379a00000000000000000000000000000000000000000000000000000000081526004016114af90614cab565b60405180910390fd5b6000600e6000888152602001908152602001600020600001541415611512576040517f08c379a000000000000000000000000000000000000000000000000000000000815260040161150990614c8b565b60405180910390fd5b6000600e60008881526020019081526020016000206040518060c00160405290816000820154815260200160018201805461154c906152f2565b80601f0160208091040260200160405190810160405280929190818152602001828054611578906152f2565b80156115c55780601f1061159a576101008083540402835291602001916115c5565b820191906000526020600020905b8154815290600101906020018083116115a857829003601f168201915b505050505081526020016002820180546115de906152f2565b80601f016020809104026020016040519081016040528092919081815260200182805461160a906152f2565b80156116575780601f1061162c57610100808354040283529160200191611657565b820191906000526020600020905b81548152906001019060200180831161163a57829003601f168201915b505050505081526020016003820154815260200160048201805461167a906152f2565b80601f01602080910402602001604051908101604052809291908181526020018280546116a6906152f2565b80156116f35780601f106116c8576101008083540402835291602001916116f3565b820191906000526020600020905b8154815290600101906020018083116116d657829003601f168201915b505050505081526020016005820160009054906101000a900473ffffffffffffffffffffffffffffffffffffffff1673ffffffffffffffffffffffffffffffffffffffff1673ffffffffffffffffffffffffffffffffffffffff168152505090503373ffffffffffffffffffffffffffffffffffffffff168160a0015173ffffffffffffffffffffffffffffffffffffffff16146117c6576040517f08c379a00000000000000000000000000000000000000000000000000000000081526004016117bd90614e6b565b60405180910390fd5b6040518060c001604052808881526020018781526020018681526020018581526020018481526020013373ffffffffffffffffffffffffffffffffffffffff16815250600e6000898152602001908152602001600020600082015181600001556020820151816001019080519060200190611842929190613c8d565b50604082015181600201908051906020019061185f929190613c8d565b50606082015181600301556080820151816004019080519060200190611886929190613c8d565b5060a08201518160050160006101000a81548173ffffffffffffffffffffffffffffffffffffffff021916908373ffffffffffffffffffffffffffffffffffffffff1602179055509050508691505095945050505050565b600061190a7f4504b9dfd7400a1522f49a8b4a100552da9236849581fd59b7363eb48c6a474c33611e54565b611949576040517f08c379a000000000000000000000000000000000000000000000000000000000815260040161194090614cab565b60405180910390fd5b611953600c612c14565b600061195f600c612b24565b90506040518060c001604052808281526020018781526020018681526020018581526020018481526020013373ffffffffffffffffffffffffffffffffffffffff16815250600e60008381526020019081526020016000206000820151816000015560208201518160010190805190602001906119dd929190613c8d565b5060408201518160020190805190602001906119fa929190613c8d565b50606082015181600301556080820151816004019080519060200190611a21929190613c8d565b5060a08201518160050160006101000a81548173ffffffffffffffffffffffffffffffffffffffff021916908373ffffffffffffffffffffffffffffffffffffffff16021790555090505080915050949350505050565b6000611a82610b31565b8210611ac3576040517f08c379a0000000000000000000000000000000000000000000000000000000008152600401611aba90614f4b565b60405180910390fd5b60088281548110611ad757611ad661548b565b5b90600052602060002001549050919050565b6060611af48261253f565b611b33576040517f08c379a0000000000000000000000000000000000000000000000000000000008152600401611b2a90614c4b565b60405180910390fd5b60116000838152602001908152602001600020805480602002602001604051908101604052809291908181526020016000905b82821015611c12578382906000526020600020018054611b85906152f2565b80601f0160208091040260200160405190810160405280929190818152602001828054611bb1906152f2565b8015611bfe5780601f10611bd357610100808354040283529160200191611bfe565b820191906000526020600020905b815481529060010190602001808311611be157829003601f168201915b505050505081526020019060010190611b66565b505050509050919050565b6000806002600084815260200190815260200160002060009054906101000a900473ffffffffffffffffffffffffffffffffffffffff169050600073ffffffffffffffffffffffffffffffffffffffff168173ffffffffffffffffffffffffffffffffffffffff161415611cc6576040517f08c379a0000000000000000000000000000000000000000000000000000000008152600401611cbd90614dcb565b60405180910390fd5b80915050919050565b60008073ffffffffffffffffffffffffffffffffffffffff168273ffffffffffffffffffffffffffffffffffffffff161415611d40576040517f08c379a0000000000000000000000000000000000000000000000000000000008152600401611d3790614dab565b60405180910390fd5b600360008373ffffffffffffffffffffffffffffffffffffffff1673ffffffffffffffffffffffffffffffffffffffff168152602001908152602001600020549050919050565b611d946000801b33611e54565b611dd3576040517f08c379a0000000000000000000000000000000000000000000000000000000008152600401611dca90614e0b565b60405180910390fd5b3373ffffffffffffffffffffffffffffffffffffffff166108fc479081150290604051600060405180830381858888f19350505050611e1157600080fd5b565b7f4504b9dfd7400a1522f49a8b4a100552da9236849581fd59b7363eb48c6a474c81565b6000600f6000838152602001908152602001600020549050919050565b6000600a600084815260200190815260200160002060000160008373ffffffffffffffffffffffffffffffffffffffff1673ffffffffffffffffffffffffffffffffffffffff16815260200190815260200160002060009054906101000a900460ff16905092915050565b606060018054611ece906152f2565b80601f0160208091040260200160405190810160405280929190818152602001828054611efa906152f2565b8015611f475780601f10611f1c57610100808354040283529160200191611f47565b820191906000526020600020905b815481529060010190602001808311611f2a57829003601f168201915b5050505050905090565b6000600e6000838152602001908152602001600020600001541415611fab576040517f08c379a0000000000000000000000000000000000000000000000000000000008152600401611fa290614c8b565b60405180910390fd5b6000611fb5610b31565b90506000600182611fc691906150f3565b9050611fd23382612c2a565b611fdb8161253f565b611fe457600080fd5b82600f6000838152602001908152602001600020819055506120a481600e60008681526020019081526020016000206004018054612021906152f2565b80601f016020809104026020016040519081016040528092919081815260200182805461204d906152f2565b801561209a5780601f1061206f5761010080835404028352916020019161209a565b820191906000526020600020905b81548152906001019060200180831161207d57829003601f168201915b5050505050612c48565b505050565b6000801b81565b6120b86125ab565b73ffffffffffffffffffffffffffffffffffffffff168273ffffffffffffffffffffffffffffffffffffffff161415612126576040517f08c379a000000000000000000000000000000000000000000000000000000000815260040161211d90614d4b565b60405180910390fd5b80600560006121336125ab565b73ffffffffffffffffffffffffffffffffffffffff1673ffffffffffffffffffffffffffffffffffffffff16815260200190815260200160002060008473ffffffffffffffffffffffffffffffffffffffff1673ffffffffffffffffffffffffffffffffffffffff16815260200190815260200160002060006101000a81548160ff0219169083151502179055508173ffffffffffffffffffffffffffffffffffffffff166121e06125ab565b73ffffffffffffffffffffffffffffffffffffffff167f17307eab39ab6107e8899845ad3d59bd9653f200f220920489ca2b5937696c31836040516122259190614b6b565b60405180910390a35050565b61224261223c6125ab565b8361266c565b612281576040517f08c379a000000000000000000000000000000000000000000000000000000000815260040161227890614f2b565b60405180910390fd5b61228d84848484612cbc565b50505050565b6000816040516020016122a69190614a4b565b60405160208183030381529060405280519060200120836040516020016122cd9190614a4b565b6040516020818303038152906040528051906020012014905092915050565b60606122f782612d18565b9050919050565b61230782610e2b565b612318816123136125ab565b6129a6565b6123228383612b32565b505050565b6000600560008473ffffffffffffffffffffffffffffffffffffffff1673ffffffffffffffffffffffffffffffffffffffff16815260200190815260200160002060008373ffffffffffffffffffffffffffffffffffffffff1673ffffffffffffffffffffffffffffffffffffffff16815260200190815260200160002060009054906101000a900460ff16905092915050565b60606123c68361253f565b612405576040517f08c379a00000000000000000000000000000000000000000000000000000000081526004016123fc90614c4b565b60405180910390fd5b60106000848152602001908152602001600020826040516124269190614a4b565b9081526020016040518091039020805461243f906152f2565b80601f016020809104026020016040519081016040528092919081815260200182805461246b906152f2565b80156124b85780601f1061248d576101008083540402835291602001916124b8565b820191906000526020600020905b81548152906001019060200180831161249b57829003601f168201915b5050505050905092915050565b60007f7965db0b000000000000000000000000000000000000000000000000000000007bffffffffffffffffffffffffffffffffffffffffffffffffffffffff1916827bffffffffffffffffffffffffffffffffffffffffffffffffffffffff19161480612538575061253782612e6a565b5b9050919050565b60008073ffffffffffffffffffffffffffffffffffffffff166002600084815260200190815260200160002060009054906101000a900473ffffffffffffffffffffffffffffffffffffffff1673ffffffffffffffffffffffffffffffffffffffff1614159050919050565b600033905090565b816004600083815260200190815260200160002060006101000a81548173ffffffffffffffffffffffffffffffffffffffff021916908373ffffffffffffffffffffffffffffffffffffffff160217905550808273ffffffffffffffffffffffffffffffffffffffff1661262683611c1d565b73ffffffffffffffffffffffffffffffffffffffff167f8c5be1e5ebec7d5bd14f71427d1e84f3dd0314c0f7b2291e5b200ac8c7c3b92560405160405180910390a45050565b60006126778261253f565b6126b6576040517f08c379a00000000000000000000000000000000000000000000000000000000081526004016126ad90614d6b565b60405180910390fd5b60006126c183611c1d565b90508073ffffffffffffffffffffffffffffffffffffffff168473ffffffffffffffffffffffffffffffffffffffff16148061273057508373ffffffffffffffffffffffffffffffffffffffff1661271884610994565b73ffffffffffffffffffffffffffffffffffffffff16145b8061274157506127408185612327565b5b91505092915050565b8273ffffffffffffffffffffffffffffffffffffffff1661276a82611c1d565b73ffffffffffffffffffffffffffffffffffffffff16146127c0576040517f08c379a00000000000000000000000000000000000000000000000000000000081526004016127b790614ecb565b60405180910390fd5b600073ffffffffffffffffffffffffffffffffffffffff168273ffffffffffffffffffffffffffffffffffffffff161415612830576040517f08c379a000000000000000000000000000000000000000000000000000000000815260040161282790614d2b565b60405180910390fd5b61283b838383612ee4565b6128466000826125b3565b6001600360008573ffffffffffffffffffffffffffffffffffffffff1673ffffffffffffffffffffffffffffffffffffffff168152602001908152602001600020600082825461289691906151d4565b925050819055506001600360008473ffffffffffffffffffffffffffffffffffffffff1673ffffffffffffffffffffffffffffffffffffffff16815260200190815260200160002060008282546128ed91906150f3565b92505081905550816002600083815260200190815260200160002060006101000a81548173ffffffffffffffffffffffffffffffffffffffff021916908373ffffffffffffffffffffffffffffffffffffffff160217905550808273ffffffffffffffffffffffffffffffffffffffff168473ffffffffffffffffffffffffffffffffffffffff167fddf252ad1be2c89b69c2b068fc378daa952ba7f163c4a11628f55a4df523b3ef60405160405180910390a4505050565b6129b08282611e54565b612a3f576129d58173ffffffffffffffffffffffffffffffffffffffff166014612ef4565b6129e38360001c6020612ef4565b6040516020016129f4929190614a86565b6040516020818303038152906040526040517f08c379a0000000000000000000000000000000000000000000000000000000008152600401612a369190614ba1565b60405180910390fd5b5050565b612a4d8282611e54565b612b20576001600a600084815260200190815260200160002060000160008373ffffffffffffffffffffffffffffffffffffffff1673ffffffffffffffffffffffffffffffffffffffff16815260200190815260200160002060006101000a81548160ff021916908315150217905550612ac56125ab565b73ffffffffffffffffffffffffffffffffffffffff168173ffffffffffffffffffffffffffffffffffffffff16837f2f8788117e7eff1d82e926ec794901d17c78024a50270940304540a733656f0d60405160405180910390a45b5050565b600081600001549050919050565b612b3c8282611e54565b15612c10576000600a600084815260200190815260200160002060000160008373ffffffffffffffffffffffffffffffffffffffff1673ffffffffffffffffffffffffffffffffffffffff16815260200190815260200160002060006101000a81548160ff021916908315150217905550612bb56125ab565b73ffffffffffffffffffffffffffffffffffffffff168173ffffffffffffffffffffffffffffffffffffffff16837ff6391f5c32d9c69d2a47ea670b442974b53935d1edc7fd64eb21e047a839171b60405160405180910390a45b5050565b6001816000016000828254019250508190555050565b612c44828260405180602001604052806000815250613130565b5050565b612c518261253f565b612c90576040517f08c379a0000000000000000000000000000000000000000000000000000000008152600401612c8790614deb565b60405180910390fd5b80600b60008481526020019081526020016000209080519060200190612cb7929190613c8d565b505050565b612cc784848461274a565b612cd38484848461318b565b612d12576040517f08c379a0000000000000000000000000000000000000000000000000000000008152600401612d0990614ccb565b60405180910390fd5b50505050565b6060612d238261253f565b612d62576040517f08c379a0000000000000000000000000000000000000000000000000000000008152600401612d5990614e8b565b60405180910390fd5b6000600b60008481526020019081526020016000208054612d82906152f2565b80601f0160208091040260200160405190810160405280929190818152602001828054612dae906152f2565b8015612dfb5780601f10612dd057610100808354040283529160200191612dfb565b820191906000526020600020905b815481529060010190602001808311612dde57829003601f168201915b505050505090506000612e0c613322565b9050600081511415612e22578192505050612e65565b600082511115612e57578082604051602001612e3f929190614a62565b60405160208183030381529060405292505050612e65565b612e6084613339565b925050505b919050565b60007f780e9d63000000000000000000000000000000000000000000000000000000007bffffffffffffffffffffffffffffffffffffffffffffffffffffffff1916827bffffffffffffffffffffffffffffffffffffffffffffffffffffffff19161480612edd5750612edc826133e0565b5b9050919050565b612eef8383836134c2565b505050565b606060006002836002612f07919061517a565b612f1191906150f3565b67ffffffffffffffff811115612f2a57612f296154ba565b5b6040519080825280601f01601f191660200182016040528015612f5c5781602001600182028036833780820191505090505b5090507f300000000000000000000000000000000000000000000000000000000000000081600081518110612f9457612f9361548b565b5b60200101907effffffffffffffffffffffffffffffffffffffffffffffffffffffffffffff1916908160001a9053507f780000000000000000000000000000000000000000000000000000000000000081600181518110612ff857612ff761548b565b5b60200101907effffffffffffffffffffffffffffffffffffffffffffffffffffffffffffff1916908160001a90535060006001846002613038919061517a565b61304291906150f3565b90505b60018111156130e2577f3031323334353637383961626364656600000000000000000000000000000000600f8616601081106130845761308361548b565b5b1a60f81b82828151811061309b5761309a61548b565b5b60200101907effffffffffffffffffffffffffffffffffffffffffffffffffffffffffffff1916908160001a905350600485901c9450806130db906152c8565b9050613045565b5060008414613126576040517f08c379a000000000000000000000000000000000000000000000000000000000815260040161311d90614c2b565b60405180910390fd5b8091505092915050565b61313a83836135d6565b613147600084848461318b565b613186576040517f08c379a000000000000000000000000000000000000000000000000000000000815260040161317d90614ccb565b60405180910390fd5b505050565b60006131ac8473ffffffffffffffffffffffffffffffffffffffff166137a4565b15613315578373ffffffffffffffffffffffffffffffffffffffff1663150b7a026131d56125ab565b8786866040518563ffffffff1660e01b81526004016131f79493929190614adb565b602060405180830381600087803b15801561321157600080fd5b505af192505050801561324257506040513d601f19601f8201168201806040525081019061323f91906140eb565b60015b6132c5573d8060008114613272576040519150601f19603f3d011682016040523d82523d6000602084013e613277565b606091505b506000815114156132bd576040517f08c379a00000000000000000000000000000000000000000000000000000000081526004016132b490614ccb565b60405180910390fd5b805181602001fd5b63150b7a0260e01b7bffffffffffffffffffffffffffffffffffffffffffffffffffffffff1916817bffffffffffffffffffffffffffffffffffffffffffffffffffffffff19161491505061331a565b600190505b949350505050565b606060405180602001604052806000815250905090565b60606133448261253f565b613383576040517f08c379a000000000000000000000000000000000000000000000000000000000815260040161337a90614eeb565b60405180910390fd5b600061338d613322565b905060008151116133ad57604051806020016040528060008152506133d8565b806133b7846137b7565b6040516020016133c8929190614a62565b6040516020818303038152906040525b915050919050565b60007f80ac58cd000000000000000000000000000000000000000000000000000000007bffffffffffffffffffffffffffffffffffffffffffffffffffffffff1916827bffffffffffffffffffffffffffffffffffffffffffffffffffffffff191614806134ab57507f5b5e139f000000000000000000000000000000000000000000000000000000007bffffffffffffffffffffffffffffffffffffffffffffffffffffffff1916827bffffffffffffffffffffffffffffffffffffffffffffffffffffffff1916145b806134bb57506134ba82613918565b5b9050919050565b6134cd838383613982565b600073ffffffffffffffffffffffffffffffffffffffff168373ffffffffffffffffffffffffffffffffffffffff1614156135105761350b81613987565b61354f565b8173ffffffffffffffffffffffffffffffffffffffff168373ffffffffffffffffffffffffffffffffffffffff161461354e5761354d83826139d0565b5b5b600073ffffffffffffffffffffffffffffffffffffffff168273ffffffffffffffffffffffffffffffffffffffff1614156135925761358d81613b3d565b6135d1565b8273ffffffffffffffffffffffffffffffffffffffff168273ffffffffffffffffffffffffffffffffffffffff16146135d0576135cf8282613c0e565b5b5b505050565b600073ffffffffffffffffffffffffffffffffffffffff168273ffffffffffffffffffffffffffffffffffffffff161415613646576040517f08c379a000000000000000000000000000000000000000000000000000000000815260040161363d90614e2b565b60405180910390fd5b61364f8161253f565b1561368f576040517f08c379a000000000000000000000000000000000000000000000000000000000815260040161368690614ceb565b60405180910390fd5b61369b60008383612ee4565b6001600360008473ffffffffffffffffffffffffffffffffffffffff1673ffffffffffffffffffffffffffffffffffffffff16815260200190815260200160002060008282546136eb91906150f3565b92505081905550816002600083815260200190815260200160002060006101000a81548173ffffffffffffffffffffffffffffffffffffffff021916908373ffffffffffffffffffffffffffffffffffffffff160217905550808273ffffffffffffffffffffffffffffffffffffffff16600073ffffffffffffffffffffffffffffffffffffffff167fddf252ad1be2c89b69c2b068fc378daa952ba7f163c4a11628f55a4df523b3ef60405160405180910390a45050565b600080823b905060008111915050919050565b606060008214156137ff576040518060400160405280600181526020017f30000000000000000000000000000000000000000000000000000000000000008152509050613913565b600082905060005b6000821461383157808061381a90615355565b915050600a8261382a9190615149565b9150613807565b60008167ffffffffffffffff81111561384d5761384c6154ba565b5b6040519080825280601f01601f19166020018201604052801561387f5781602001600182028036833780820191505090505b5090505b6000851461390c5760018261389891906151d4565b9150600a856138a7919061539e565b60306138b391906150f3565b60f81b8183815181106138c9576138c861548b565b5b60200101907effffffffffffffffffffffffffffffffffffffffffffffffffffffffffffff1916908160001a905350600a856139059190615149565b9450613883565b8093505050505b919050565b60007f01ffc9a7000000000000000000000000000000000000000000000000000000007bffffffffffffffffffffffffffffffffffffffffffffffffffffffff1916827bffffffffffffffffffffffffffffffffffffffffffffffffffffffff1916149050919050565b505050565b6008805490506009600083815260200190815260200160002081905550600881908060018154018082558091505060019003906000526020600020016000909190919091505550565b600060016139dd84611ccf565b6139e791906151d4565b9050600060076000848152602001908152602001600020549050818114613acc576000600660008673ffffffffffffffffffffffffffffffffffffffff1673ffffffffffffffffffffffffffffffffffffffff168152602001908152602001600020600084815260200190815260200160002054905080600660008773ffffffffffffffffffffffffffffffffffffffff1673ffffffffffffffffffffffffffffffffffffffff168152602001908152602001600020600084815260200190815260200160002081905550816007600083815260200190815260200160002081905550505b6007600084815260200190815260200160002060009055600660008573ffffffffffffffffffffffffffffffffffffffff1673ffffffffffffffffffffffffffffffffffffffff16815260200190815260200160002060008381526020019081526020016000206000905550505050565b60006001600880549050613b5191906151d4565b9050600060096000848152602001908152602001600020549050600060088381548110613b8157613b8061548b565b5b906000526020600020015490508060088381548110613ba357613ba261548b565b5b906000526020600020018190555081600960008381526020019081526020016000208190555060096000858152602001908152602001600020600090556008805480613bf257613bf161545c565b5b6001900381819060005260206000200160009055905550505050565b6000613c1983611ccf565b905081600660008573ffffffffffffffffffffffffffffffffffffffff1673ffffffffffffffffffffffffffffffffffffffff168152602001908152602001600020600083815260200190815260200160002081905550806007600084815260200190815260200160002081905550505050565b828054613c99906152f2565b90600052602060002090601f016020900481019282613cbb5760008555613d02565b82601f10613cd457805160ff1916838001178555613d02565b82800160010185558215613d02579182015b82811115613d01578251825591602001919060010190613ce6565b5b509050613d0f9190613d13565b5090565b5b80821115613d2c576000816000905550600101613d14565b5090565b6000613d43613d3e84614fcb565b614fa6565b905082815260208101848484011115613d5f57613d5e6154ee565b5b613d6a848285615286565b509392505050565b6000613d85613d8084614ffc565b614fa6565b905082815260208101848484011115613da157613da06154ee565b5b613dac848285615286565b509392505050565b600081359050613dc381615cab565b92915050565b600081359050613dd881615cc2565b92915050565b600081359050613ded81615cd9565b92915050565b600081359050613e0281615cf0565b92915050565b600081519050613e1781615cf0565b92915050565b600082601f830112613e3257613e316154e9565b5b8135613e42848260208601613d30565b91505092915050565b600082601f830112613e6057613e5f6154e9565b5b8135613e70848260208601613d72565b91505092915050565b600081359050613e8881615d07565b92915050565b600060208284031215613ea457613ea36154f8565b5b6000613eb284828501613db4565b91505092915050565b60008060408385031215613ed257613ed16154f8565b5b6000613ee085828601613db4565b9250506020613ef185828601613db4565b9150509250929050565b600080600060608486031215613f1457613f136154f8565b5b6000613f2286828701613db4565b9350506020613f3386828701613db4565b9250506040613f4486828701613e79565b9150509250925092565b60008060008060808587031215613f6857613f676154f8565b5b6000613f7687828801613db4565b9450506020613f8787828801613db4565b9350506040613f9887828801613e79565b925050606085013567ffffffffffffffff811115613fb957613fb86154f3565b5b613fc587828801613e1d565b91505092959194509250565b60008060408385031215613fe857613fe76154f8565b5b6000613ff685828601613db4565b925050602061400785828601613dc9565b9150509250929050565b60008060408385031215614028576140276154f8565b5b600061403685828601613db4565b925050602061404785828601613e79565b9150509250929050565b600060208284031215614067576140666154f8565b5b600061407584828501613dde565b91505092915050565b60008060408385031215614095576140946154f8565b5b60006140a385828601613dde565b92505060206140b485828601613db4565b9150509250929050565b6000602082840312156140d4576140d36154f8565b5b60006140e284828501613df3565b91505092915050565b600060208284031215614101576141006154f8565b5b600061410f84828501613e08565b91505092915050565b6000806040838503121561412f5761412e6154f8565b5b600083013567ffffffffffffffff81111561414d5761414c6154f3565b5b61415985828601613e4b565b925050602083013567ffffffffffffffff81111561417a576141796154f3565b5b61418685828601613e4b565b9150509250929050565b600080600080608085870312156141aa576141a96154f8565b5b600085013567ffffffffffffffff8111156141c8576141c76154f3565b5b6141d487828801613e4b565b945050602085013567ffffffffffffffff8111156141f5576141f46154f3565b5b61420187828801613e4b565b935050604061421287828801613e79565b925050606085013567ffffffffffffffff811115614233576142326154f3565b5b61423f87828801613e4b565b91505092959194509250565b600060208284031215614261576142606154f8565b5b600061426f84828501613e79565b91505092915050565b6000806040838503121561428f5761428e6154f8565b5b600061429d85828601613e79565b925050602083013567ffffffffffffffff8111156142be576142bd6154f3565b5b6142ca85828601613e4b565b9150509250929050565b6000806000606084860312156142ed576142ec6154f8565b5b60006142fb86828701613e79565b935050602084013567ffffffffffffffff81111561431c5761431b6154f3565b5b61432886828701613e4b565b925050604084013567ffffffffffffffff811115614349576143486154f3565b5b61435586828701613e4b565b9150509250925092565b600080600080600060a0868803121561437b5761437a6154f8565b5b600061438988828901613e79565b955050602086013567ffffffffffffffff8111156143aa576143a96154f3565b5b6143b688828901613e4b565b945050604086013567ffffffffffffffff8111156143d7576143d66154f3565b5b6143e388828901613e4b565b93505060606143f488828901613e79565b925050608086013567ffffffffffffffff811115614415576144146154f3565b5b61442188828901613e4b565b9150509295509295909350565b600061443a8383614593565b905092915050565b600061444e8383614a2d565b60208301905092915050565b61446381615208565b82525050565b60006144748261504d565b61447e8185615093565b9350836020820285016144908561502d565b8060005b858110156144cc57848403895281516144ad858261442e565b94506144b883615079565b925060208a01995050600181019050614494565b50829750879550505050505092915050565b60006144e982615058565b6144f381856150a4565b93506144fe8361503d565b8060005b8381101561452f5781516145168882614442565b975061452183615086565b925050600181019050614502565b5085935050505092915050565b6145458161521a565b82525050565b61455481615226565b82525050565b600061456582615063565b61456f81856150b5565b935061457f818560208601615295565b614588816154fd565b840191505092915050565b600061459e8261506e565b6145a881856150c6565b93506145b8818560208601615295565b6145c1816154fd565b840191505092915050565b60006145d78261506e565b6145e181856150d7565b93506145f1818560208601615295565b6145fa816154fd565b840191505092915050565b60006146108261506e565b61461a81856150e8565b935061462a818560208601615295565b80840191505092915050565b60006146436020836150d7565b915061464e8261550e565b602082019050919050565b60006146666026836150d7565b915061467182615537565b604082019050919050565b6000614689602b836150d7565b915061469482615586565b604082019050919050565b60006146ac6011836150d7565b91506146b7826155d5565b602082019050919050565b60006146cf6024836150d7565b91506146da826155fe565b604082019050919050565b60006146f26032836150d7565b91506146fd8261564d565b604082019050919050565b6000614715601c836150d7565b91506147208261569c565b602082019050919050565b6000614738602f836150d7565b9150614743826156c5565b604082019050919050565b600061475b6024836150d7565b915061476682615714565b604082019050919050565b600061477e6019836150d7565b915061478982615763565b602082019050919050565b60006147a1602c836150d7565b91506147ac8261578c565b604082019050919050565b60006147c46038836150d7565b91506147cf826157db565b604082019050919050565b60006147e7602a836150d7565b91506147f28261582a565b604082019050919050565b600061480a6029836150d7565b915061481582615879565b604082019050919050565b600061482d602e836150d7565b9150614838826158c8565b604082019050919050565b6000614850601c836150d7565b915061485b82615917565b602082019050919050565b60006148736020836150d7565b915061487e82615940565b602082019050919050565b60006148966013836150d7565b91506148a182615969565b602082019050919050565b60006148b96021836150d7565b91506148c482615992565b604082019050919050565b60006148dc6031836150d7565b91506148e7826159e1565b604082019050919050565b60006148ff602c836150d7565b915061490a82615a30565b604082019050919050565b60006149226029836150d7565b915061492d82615a7f565b604082019050919050565b6000614945602f836150d7565b915061495082615ace565b604082019050919050565b60006149686021836150d7565b915061497382615b1d565b604082019050919050565b600061498b6031836150d7565b915061499682615b6c565b604082019050919050565b60006149ae602c836150d7565b91506149b982615bbb565b604082019050919050565b60006149d16017836150e8565b91506149dc82615c0a565b601782019050919050565b60006149f46011836150e8565b91506149ff82615c33565b601182019050919050565b6000614a17602f836150d7565b9150614a2282615c5c565b604082019050919050565b614a368161527c565b82525050565b614a458161527c565b82525050565b6000614a578284614605565b915081905092915050565b6000614a6e8285614605565b9150614a7a8284614605565b91508190509392505050565b6000614a91826149c4565b9150614a9d8285614605565b9150614aa8826149e7565b9150614ab48284614605565b91508190509392505050565b6000602082019050614ad5600083018461445a565b92915050565b6000608082019050614af0600083018761445a565b614afd602083018661445a565b614b0a6040830185614a3c565b8181036060830152614b1c818461455a565b905095945050505050565b60006020820190508181036000830152614b418184614469565b905092915050565b60006020820190508181036000830152614b6381846144de565b905092915050565b6000602082019050614b80600083018461453c565b92915050565b6000602082019050614b9b600083018461454b565b92915050565b60006020820190508181036000830152614bbb81846145cc565b905092915050565b600060a0820190508181036000830152614bdd81886145cc565b90508181036020830152614bf181876145cc565b90508181036040830152614c0581866145cc565b9050614c14606083018561445a565b614c216080830184614a3c565b9695505050505050565b60006020820190508181036000830152614c4481614636565b9050919050565b60006020820190508181036000830152614c6481614659565b9050919050565b60006020820190508181036000830152614c848161467c565b9050919050565b60006020820190508181036000830152614ca48161469f565b9050919050565b60006020820190508181036000830152614cc4816146c2565b9050919050565b60006020820190508181036000830152614ce4816146e5565b9050919050565b60006020820190508181036000830152614d0481614708565b9050919050565b60006020820190508181036000830152614d248161472b565b9050919050565b60006020820190508181036000830152614d448161474e565b9050919050565b60006020820190508181036000830152614d6481614771565b9050919050565b60006020820190508181036000830152614d8481614794565b9050919050565b60006020820190508181036000830152614da4816147b7565b9050919050565b60006020820190508181036000830152614dc4816147da565b9050919050565b60006020820190508181036000830152614de4816147fd565b9050919050565b60006020820190508181036000830152614e0481614820565b9050919050565b60006020820190508181036000830152614e2481614843565b9050919050565b60006020820190508181036000830152614e4481614866565b9050919050565b60006020820190508181036000830152614e6481614889565b9050919050565b60006020820190508181036000830152614e84816148ac565b9050919050565b60006020820190508181036000830152614ea4816148cf565b9050919050565b60006020820190508181036000830152614ec4816148f2565b9050919050565b60006020820190508181036000830152614ee481614915565b9050919050565b60006020820190508181036000830152614f0481614938565b9050919050565b60006020820190508181036000830152614f248161495b565b9050919050565b60006020820190508181036000830152614f448161497e565b9050919050565b60006020820190508181036000830152614f64816149a1565b9050919050565b60006020820190508181036000830152614f8481614a0a565b9050919050565b6000602082019050614fa06000830184614a3c565b92915050565b6000614fb0614fc1565b9050614fbc8282615324565b919050565b6000604051905090565b600067ffffffffffffffff821115614fe657614fe56154ba565b5b614fef826154fd565b9050602081019050919050565b600067ffffffffffffffff821115615017576150166154ba565b5b615020826154fd565b9050602081019050919050565b6000819050602082019050919050565b6000819050602082019050919050565b600081519050919050565b600081519050919050565b600081519050919050565b600081519050919050565b6000602082019050919050565b6000602082019050919050565b600082825260208201905092915050565b600082825260208201905092915050565b600082825260208201905092915050565b600082825260208201905092915050565b600082825260208201905092915050565b600081905092915050565b60006150fe8261527c565b91506151098361527c565b9250827fffffffffffffffffffffffffffffffffffffffffffffffffffffffffffffffff0382111561513e5761513d6153cf565b5b828201905092915050565b60006151548261527c565b915061515f8361527c565b92508261516f5761516e6153fe565b5b828204905092915050565b60006151858261527c565b91506151908361527c565b9250817fffffffffffffffffffffffffffffffffffffffffffffffffffffffffffffffff04831182151516156151c9576151c86153cf565b5b828202905092915050565b60006151df8261527c565b91506151ea8361527c565b9250828210156151fd576151fc6153cf565b5b828203905092915050565b60006152138261525c565b9050919050565b60008115159050919050565b6000819050919050565b60007fffffffff0000000000000000000000000000000000000000000000000000000082169050919050565b600073ffffffffffffffffffffffffffffffffffffffff82169050919050565b6000819050919050565b82818337600083830152505050565b60005b838110156152b3578082015181840152602081019050615298565b838111156152c2576000848401525b50505050565b60006152d38261527c565b915060008214156152e7576152e66153cf565b5b600182039050919050565b6000600282049050600182168061530a57607f821691505b6020821081141561531e5761531d61542d565b5b50919050565b61532d826154fd565b810181811067ffffffffffffffff8211171561534c5761534b6154ba565b5b80604052505050565b60006153608261527c565b91507fffffffffffffffffffffffffffffffffffffffffffffffffffffffffffffffff821415615393576153926153cf565b5b600182019050919050565b60006153a98261527c565b91506153b48361527c565b9250826153c4576153c36153fe565b5b828206905092915050565b7f4e487b7100000000000000000000000000000000000000000000000000000000600052601160045260246000fd5b7f4e487b7100000000000000000000000000000000000000000000000000000000600052601260045260246000fd5b7f4e487b7100000000000000000000000000000000000000000000000000000000600052602260045260246000fd5b7f4e487b7100000000000000000000000000000000000000000000000000000000600052603160045260246000fd5b7f4e487b7100000000000000000000000000000000000000000000000000000000600052603260045260246000fd5b7f4e487b7100000000000000000000000000000000000000000000000000000000600052604160045260246000fd5b600080fd5b600080fd5b600080fd5b600080fd5b6000601f19601f8301169050919050565b7f537472696e67733a20686578206c656e67746820696e73756666696369656e74600082015250565b7f546f6b656e204944206d75737420657869737420746f2067657420707265666560008201527f72656e6365730000000000000000000000000000000000000000000000000000602082015250565b7f455243373231456e756d657261626c653a206f776e657220696e646578206f7560008201527f74206f6620626f756e6473000000000000000000000000000000000000000000602082015250565b7f417070204944206d757374206578697374000000000000000000000000000000600082015250565b7f4d757374206265206120646576656c6f70657220746f2063726561746520616e60008201527f2061707000000000000000000000000000000000000000000000000000000000602082015250565b7f4552433732313a207472616e7366657220746f206e6f6e20455243373231526560008201527f63656976657220696d706c656d656e7465720000000000000000000000000000602082015250565b7f4552433732313a20746f6b656e20616c7265616479206d696e74656400000000600082015250565b7f546865206f776e6572206d75737420626520746865206f6e6520617474656d7060008201527f74696e6720746865207570646174650000000000000000000000000000000000602082015250565b7f4552433732313a207472616e7366657220746f20746865207a65726f2061646460008201527f7265737300000000000000000000000000000000000000000000000000000000602082015250565b7f4552433732313a20617070726f766520746f2063616c6c657200000000000000600082015250565b7f4552433732313a206f70657261746f7220717565727920666f72206e6f6e657860008201527f697374656e7420746f6b656e0000000000000000000000000000000000000000602082015250565b7f4552433732313a20617070726f76652063616c6c6572206973206e6f74206f7760008201527f6e6572206e6f7220617070726f76656420666f7220616c6c0000000000000000602082015250565b7f4552433732313a2062616c616e636520717565727920666f7220746865207a6560008201527f726f206164647265737300000000000000000000000000000000000000000000602082015250565b7f4552433732313a206f776e657220717565727920666f72206e6f6e657869737460008201527f656e7420746f6b656e0000000000000000000000000000000000000000000000602082015250565b7f45524337323155524953746f726167653a2055524920736574206f66206e6f6e60008201527f6578697374656e7420746f6b656e000000000000000000000000000000000000602082015250565b7f4d75737420626520616e2061646d696e20746f20776974686472617700000000600082015250565b7f4552433732313a206d696e7420746f20746865207a65726f2061646472657373600082015250565b7f546f6b656e204944206d75737420657869737400000000000000000000000000600082015250565b7f596f75206d75737420626520746865206f776e6572206f66207468697320617060008201527f7000000000000000000000000000000000000000000000000000000000000000602082015250565b7f45524337323155524953746f726167653a2055524920717565727920666f722060008201527f6e6f6e6578697374656e7420746f6b656e000000000000000000000000000000602082015250565b7f4552433732313a20617070726f76656420717565727920666f72206e6f6e657860008201527f697374656e7420746f6b656e0000000000000000000000000000000000000000602082015250565b7f4552433732313a207472616e73666572206f6620746f6b656e2074686174206960008201527f73206e6f74206f776e0000000000000000000000000000000000000000000000602082015250565b7f4552433732314d657461646174613a2055524920717565727920666f72206e6f60008201527f6e6578697374656e7420746f6b656e0000000000000000000000000000000000602082015250565b7f4552433732313a20617070726f76616c20746f2063757272656e74206f776e6560008201527f7200000000000000000000000000000000000000000000000000000000000000602082015250565b7f4552433732313a207472616e736665722063616c6c6572206973206e6f74206f60008201527f776e6572206e6f7220617070726f766564000000000000000000000000000000602082015250565b7f455243373231456e756d657261626c653a20676c6f62616c20696e646578206f60008201527f7574206f6620626f756e64730000000000000000000000000000000000000000602082015250565b7f416363657373436f6e74726f6c3a206163636f756e7420000000000000000000600082015250565b7f206973206d697373696e6720726f6c6520000000000000000000000000000000600082015250565b7f416363657373436f6e74726f6c3a2063616e206f6e6c792072656e6f756e636560008201527f20726f6c657320666f722073656c660000000000000000000000000000000000602082015250565b615cb481615208565b8114615cbf57600080fd5b50565b615ccb8161521a565b8114615cd657600080fd5b50565b615ce281615226565b8114615ced57600080fd5b50565b615cf981615230565b8114615d0457600080fd5b50565b615d108161527c565b8114615d1b57600080fd5b5056fea264697066735822122077f309baea6e0fdf33364689e6da1498b5fc468aa9f5ea7b26911b7aa3ee721564736f6c63430008060033",
  "linkReferences": {},
  "deployedLinkReferences": {}
}